:020000040800F2
:100000000050002081A40008F96D0008016E00086E
:10001000116E0008216E0008316E0008000000001B
:10002000000000000000000000000000416E000819
:100030004D6E000800000000596E0008656E000853
:10004000C9A40008C9A40008C9A40008C9A40008DC
:10005000C9A40008C9A40008C9A40008C9A40008CC
:10006000C9A40008C9A40008C9A40008C9A40008BC
:10007000716E0008856E0008996E0008AD6E00086C
:10008000C9A40008C9A40008C9A40008C9A400089C
:10009000C9A40008C9A40008C9A40008C16E0008CA
:1000A000C9A40008D16E0008C9A40008C9A40008AA
:1000B000C9A40008C9A40008C9A40008C9A400086C
:1000C000C9A40008C9A40008C9A40008C9A400085C
:1000D000C9A40008E56E0008C9A40008F96E00086C
:1000E0000D6F0008C9A40008C9A4000800000000A2
:1000F0000000000000000000000000000000000000
:0C01000000000000000000005FF808F1A3
:10010C0010B5054C237833B9044B13B10448AFF345
:10011C0000800123237010BDB400002000000000FB
:10012C0074BF000808B5034B1BB103490348AFF378
:10013C00008008BD00000000B800002074BF00085B
:10014C0081F0004102E000BF83F0004330B54FEA7C
:10015C0041044FEA430594EA050F08BF90EA020FE9
:10016C001FBF54EA000C55EA020C7FEA645C7FEA7C
:10017C00655C00F0E2804FEA5454D4EB5555B8BF9F
:10018C006D420CDD2C4480EA020281EA030382EA10
:10019C00000083EA010180EA020281EA0303362DA2
:1001AC0088BF30BD11F0004F4FEA01314FF4801C75
:1001BC004CEA113102D0404261EB410113F0004F87
:1001CC004FEA03334CEA133302D0524263EB43033E
:1001DC0094EA050F00F0A780A4F10104D5F1200EDC
:1001EC000DDB02FA0EFC22FA05F2801841F1000137
:1001FC0003FA0EF2801843FA05F359410EE0A5F10B
:10020C0020050EF1200E012A03FA0EFC28BF4CF03B
:10021C00020C43FA05F3C01851EBE37101F00045F1
:10022C0007D54FF0000EDCF1000C7EEB00006EEBFE
:10023C000101B1F5801F1BD3B1F5001F0CD3490888
:10024C005FEA30004FEA3C0C04F101044FEA4452DF
:10025C0012F5800F80F09A80BCF1004F08BF5FEA66
:10026C00500C50F1000041EB045141EA050130BD46
:10027C005FEA4C0C404141EB0101013C28BFB1F558
:10028C00801FE9D291F0000F04BF01460020B1FAA3
:10029C0081F308BF2033A3F10B03B3F120020CDA76
:1002AC000C3208DD02F1140CC2F10C0201FA0CF054
:1002BC0021FA02F10CE002F11402D8BFC2F1200CB9
:1002CC0001FA02F120FA0CFCDCBF41EA0C0190406F
:1002DC00E41AA2BF01EB0451294330BD6FEA0404B8
:1002EC001F3C1CDA0C340EDC04F11404C4F12002A3
:1002FC0020FA04F001FA02F340EA030021FA04F3B5
:10030C0045EA030130BDC4F10C04C4F1200220FA0B
:10031C0002F001FA04F340EA0300294630BD21FA49
:10032C0004F0294630BD94F0000F83F4801306BF0F
:10033C0081F480110134013D4EE77FEA645C18BF03
:10034C007FEA655C29D094EA050F08BF90EA020F9A
:10035C0005D054EA000C04BF1946104630BD91EA92
:10036C00030F1EBF0021002030BD5FEA545C05D195
:10037C004000494128BF41F0004130BD14F58004D4
:10038C003CBF01F5801130BD01F0004545F0FE4148
:10039C0041F470014FF0000030BD7FEA645C1ABF7D
:1003AC00194610467FEA655C1CBF0B46024650EAB4
:1003BC00013406BF52EA033591EA030F41F40021E0
:1003CC0030BD00BF90F0000F04BF0021704730B566
:1003DC004FF4806404F132044FF000054FF000013B
:1003EC0050E700BF90F0000F04BF0021704730B5FC
:1003FC004FF4806404F1320410F0004548BF4042D1
:10040C004FF000013EE700BF42004FEAE2014FEA25
:10041C0031014FEA02701FBF12F07F4393F07F4F00
:10042C0081F06051704732F07F4208BF704793F003
:10043C007F4F04BF41F40021704730B54FF4607416
:10044C0001F0004521F000411CE700BF50EA010219
:10045C0008BF704730B54FF000050AE050EA0102C2
:10046C0008BF704730B511F0004502D5404261EB32
:10047C0041014FF4806404F132045FEA915C3FF473
:10048C00D8AE4FF003025FEADC0C18BF03325FEA10
:10049C00DC0C18BF033202EBDC02C2F1200300FAC1
:1004AC0003FC20FA02F001FA03FE40EA0E0021FAE6
:1004BC0002F11444BDE600BF80F0004002E000BF32
:1004CC0081F0004142001FBF5FEA410392EA030F33
:1004DC007FEA226C7FEA236C6AD04FEA1262D2EB7D
:1004EC001363C1BFD218414048404140B8BF5B4282
:1004FC00192B88BF704710F0004F40F4000020F01B
:10050C007F4018BF404211F0004F41F4000121F030
:10051C007F4118BF494292EA030F3FD0A2F101027A
:10052C0041FA03FC10EB0C00C3F1200301FA03F1B8
:10053C0000F0004302D5494260EB4000B0F5000FDB
:10054C0013D3B0F1807F06D340084FEA310102F19A
:10055C000102FE2A51D2B1F1004F40EBC25008BF4C
:10056C0020F0010040EA03007047490040EB000016
:10057C00013A28BFB0F5000FEDD2B0FA80FCACF117
:10058C00080CB2EB0C0200FA0CF0AABF00EBC25044
:10059C0052421843BCBFD0401843704792F0000F32
:1005AC0081F4000106BF80F400000132013BB5E785
:1005BC004FEA41037FEA226C18BF7FEA236C21D0FB
:1005CC0092EA030F04D092F0000F08BF0846704760
:1005DC0090EA010F1CBF0020704712F07F4F04D12E
:1005EC00400028BF40F00040704712F100723CBF41
:1005FC0000F50000704700F0004343F0FE4040F46B
:10060C00000070477FEA226216BF08467FEA236328
:10061C000146420206BF5FEA412390EA010F40F413
:10062C00800070474FF0000304E000BF10F000435F
:10063C0048BF40425FEA000C08BF704743F0964346
:10064C0001464FF000001CE050EA010208BF704761
:10065C004FF000030AE000BF50EA010208BF7047E8
:10066C0011F0004302D5404261EB41015FEA010CFD
:10067C0002BF84460146002043F0B64308BFA3F1F5
:10068C008053A3F50003BCFA8CF2083AA3EBC253D7
:10069C0010DB01FA02FC634400FA02FCC2F12002F6
:1006AC00BCF1004F20FA02F243EB020008BF20F02D
:1006BC000100704702F1200201FA02FCC2F1200293
:1006CC0050EA4C0021FA02F243EB020008BF20EA88
:1006DC00DC7070474FF0FF0C1CEAD0521EBF1CEAB6
:1006EC00D15392EA0C0F93EA0C0F6FD01A4480EAA4
:1006FC00010C400218BF5FEA41211ED04FF000638D
:10070C0043EA501043EA5111A0FB01310CF00040B8
:10071C00B1F5000F3EBF490041EAD3715B0040EADE
:10072C00010062F17F02FD2A1DD8B3F1004F40EBAE
:10073C00C25008BF20F00100704790F0000F0CF081
:10074C00004C08BF49024CEA502040EA51207F3A45
:10075C00C2BFD2F1FF0340EAC250704740F4000020
:10076C004FF00003013A5DDC12F1190FDCBF00F011
:10077C0000407047C2F10002410021FA02F1C2F1BF
:10078C00200200FA02FC5FEA310040F1000053EA5B
:10079C004C0308BF20EADC70704792F0000F00F0A9
:1007AC00004C02BF400010F4000F013AF9D040EAAF
:1007BC000C0093F0000F01F0004C02BF490011F443
:1007CC00000F013BF9D041EA0C018FE70CEAD15341
:1007DC0092EA0C0F18BF93EA0C0F0AD030F0004CC1
:1007EC0018BF31F0004CD8D180EA010000F0004075
:1007FC00704790F0000F17BF90F0004F084691F033
:10080C00000F91F0004F14D092EA0C0F01D142026C
:10081C000FD193EA0C0F03D14B0218BF084608D135
:10082C0080EA010000F0004040F0FE4040F400007F
:10083C00704740F0FE4040F4400070474FF0FF0C12
:10084C001CEAD0521EBF1CEAD15392EA0C0F93EA59
:10085C000C0F69D0A2EB030280EA010C49024FEAAB
:10086C00402037D04FF0805343EA111143EA101364
:10087C000CF000408B4238BF5B0042F17D024FF41C
:10088C00000C8B4224BF5B1A40EA0C00B3EB510FF7
:10089C0024BFA3EB510340EA5C00B3EB910F24BFE0
:1008AC00A3EB910340EA9C00B3EBD10F24BFA3EB65
:1008BC00D10340EADC001B0118BF5FEA1C1CE0D12D
:1008CC00FD2A3FF650AF8B4240EBC25008BF20F0E0
:1008DC00010070470CF0004C4CEA50207F32C2BF34
:1008EC00D2F1FF0340EAC250704740F400004FF0D1
:1008FC000003013A37E792F0000F00F0004C02BF02
:10090C00400010F4000F013AF9D040EA0C0093F0CB
:10091C00000F01F0004C02BF490011F4000F013B25
:10092C00F9D041EA0C0195E70CEAD15392EA0C0F8D
:10093C0008D142027FF47DAF93EA0C0F7FF470AFC5
:10094C00084676E793EA0C0F04D14B023FF44CAF08
:10095C0008466EE730F0004C18BF31F0004CCAD19D
:10096C0030F000427FF45CAF31F000437FF43CAFD9
:10097C005FE700BF4FF0FF3C06E000BF4FF0010CFB
:10098C0002E000BF4FF0010C4DF804CD4FEA4002DD
:10099C004FEA41037FEA226C18BF7FEA236C11D027
:1009AC0001B052EA530C18BF90EA010F58BFB2EBDA
:1009BC00030088BFC81738BF6FEAE17018BF40F05A
:1009CC00010070477FEA226C02D15FEA402C05D10E
:1009DC007FEA236CE4D15FEA412CE1D05DF8040B93
:1009EC00704700BF844608466146FFE70FB5FFF726
:1009FC00C9FF002848BF10F1000F0FBD4DF808EDDE
:100A0C00FFF7F4FF0CBF012000205DF808FB00BFCE
:100A1C004DF808EDFFF7EAFF34BF012000205DF828
:100A2C0008FB00BF4DF808EDFFF7E0FF94BF012075
:100A3C0000205DF808FB00BF4DF808EDFFF7D2FF72
:100A4C0094BF012000205DF808FB00BF4DF808EDB5
:100A5C00FFF7C8FF34BF012000205DF808FB00BF82
:100A6C004FEA4002B2F1FE4F0FD34FF09E03B3EBAF
:100A7C0012620DD94FEA002343F0004310F0004FEF
:100A8C0023FA02F018BF404270474FF00000704745
:100A9C0012F1610F01D1420205D110F0004008BFE4
:100AAC006FF0004070474FF00000704742000ED2CC
:100ABC00B2F1FE4F0BD34FF09E03B3EB126209D48D
:100ACC004FEA002343F0004323FA02F070474FF043
:100ADC000000704712F1610F01D1420202D14FF0B8
:100AEC00FF3070474FF00000704700BF4FEA4002E4
:100AFC004FEA41037FEA226C02D15FEA402C08D115
:100B0C007FEA236C02D15FEA412C02D14FF0000046
:100B1C0070474FF00100704770B500260C4D0D4C1E
:100B2C00641BA410A64209D10BF01EFA00260A4D34
:100B3C000A4C641BA410A64205D170BD55F8043BA9
:100B4C0098470136EEE755F8043B98470136F2E733
:100B5C00A0CF0008A0CF0008A0CF0008A4CF0008A9
:100B6C0003460244934200D1704703F8011BF9E796
:100B7C0080B582B000AF00237B600FE00B4A7B682E
:100B8C0052F8332009497B68DB000B445B6819463B
:100B9C00104606F0E1FA7B6801337B607B68052B1D
:100BAC00ECD900BF00BF0837BD4680BD64000020F3
:100BBC0080B485B000AF786039607B68052B27D88E
:100BCC00164A7B6852F83330FB60144A7B68DB00B2
:100BDC0013445B68BB60BB68002B04D1FB681B68CB
:100BEC003A685A6315E0BB68042B04D1FB681A6899
:100BFC003B6893630DE0BB68082B04D1FB681A6853
:100C0C003B68D36305E0FB681A683B68136400E03B
:100C1C0000BF1437BD4680BC704700BF6400002085
:100C2C0080B584B000AF0346FB71FB79342202FB24
:100C3C0003F3134A1344FB60FB79012202FA03F31A
:100C4C00DB431A460F4B1B6813400E4A1360FB68BC
:100C5C001B6B002B07D0FB681B6BFA79104698476F
:100C6C00FB6800221A63084B1B68002B04D0064B50
:100C7C001B68FA791046984700BF1037BD4680BDF7
:100C8C00D0000020080200200C020020B0B588B073
:100C9C0000AF214B3C461D460FCD0FC495E8030019
:100CAC0084E803000023FB6128E0FB69342202FB8B
:100CBC0003F31A4A1344BB61BB6939461822184620
:100CCC0009F004FCBB695A68BB699A61BB695A6834
:100CDC00BB69DA61BB695A68BB691A62BB690022DD
:100CEC005A62BB6900229A62BB69002283F82C20ED
:100CFC00BB6900221A63FB690133FB61FB69052B9D
:100D0C00D3DD074B00221A60064B00221A6000BF8D
:100D1C002037BD46B0BD00BF8CBF0008D0000020FE
:100D2C00080200200C02002080B483B000AF786071
:100D3C00034A7B68136000BF0C37BD4680BC70470C
:100D4C000C02002090B589B000AF03463960FB71EE
:100D5C00FB79052B02D940F2DC5370E0FB7934228D
:100D6C0002FB03F3384A1344BB61BB697B617B69AB
:100D7C00DB6819463868FFF74BFE0346002B03D09F
:100D8C007B69DB683B600BE07B695B691946386803
:100D9C00FFF75CFE0346002B02D07B695B693B606E
:100DAC007B695A697B69DB6819461046FFF788FB3B
:100DBC0003463B6125493869FFF72AFE0346002BA1
:100DCC0002D07B695B683AE07B69DB68194638685E
:100DDC00FFF776FB034639691846FFF72FFD0346EC
:100DEC00FB614FF00001F869FFF712FE0346002B80
:100DFC0002D04FF00003FB614FF07E51F869FFF712
:100E0C0025FE0346002B02D04FF07E53FB617B691D
:100E1C009A687B691B68D31AFB607B691C68F8684D
:100E2C00FFF700FC0346F9691846FFF753FC03462D
:100E3C001846FFF73BFE03462344BB60BB681846CD
:100E4C002437BD4690BD00BFD00000206F12833AFE
:100E5C0090B589B000AF03463960FB71FB79052B67
:100E6C0001D92C4B52E0FB79342202FB03F32A4AC2
:100E7C001344FB61FB69BB61BB691B683A689A420E
:100E8C0002D2BB691B683B60BB699B683A689A429B
:100E9C0002D9BB699B683B60BB699A68BB691B68DC
:100EAC00D31A1846FFF7BEFB03467B611B497869D2
:100EBC00FFF7AEFD0346002B02D0BB691B6925E092
:100ECC00BB691B683A68D31A1846FFF7ABFB03469D
:100EDC0079691846FFF7B2FC03463B61BB695A6956
:100EEC00BB69DB6819461046FFF7EAFA0346FB605C
:100EFC00BB69DC68F9683869FFF7ECFB03461946F7
:100F0C002046FFF7DFFA0346BB60BB681846243760
:100F1C00BD4690BD00000743D00000206F12833AFD
:100F2C0080B586B000AFB9607A603B600346FB7356
:100F3C00FB7B052B45D8FB7B342202FB03F3234AB6
:100F4C0013447B617B693B613B691B68BA689A42BD
:100F5C0002D23B691B68BB603B699B68BA689A42CA
:100F6C0002D93B699B68BB607B699B69BA689A42F2
:100F7C0008D17B69002283F82C20FB7B1846FFF7F5
:100F8C004FFE1FE07B699A697B691A627B69BA68BC
:100F9C00DA617B697A685A627B697A689A627B69E2
:100FAC00012283F82C207B693A681A63FB7B0122AF
:100FBC0002FA03F31A46064B1B681343044A1360E8
:100FCC0000E000BF1837BD4680BD00BFD000002038
:100FDC000802002080B586B000AFB9607A603B6033
:100FEC000346FB73FB7B052B0CD8FB7BB9681846BF
:100FFC00FFF7A8FE7861F87B3B687A687969FFF7A0
:10100C008FFF00E000BF1837BD4680BD80B586B0AD
:10101C0000AF0346B9607A60FB73FB7B052B0ED8DF
:10102C00FB7B342202FB03F3074A13447B617B698D
:10103C005968F87B7B68BA68FFF772FF00E000BF65
:10104C001837BD4680BD00BFD000002080B582B0EF
:10105C0000AF0023FB7110E0FB79342202FB03F399
:10106C000A4A13443B60FA793B689B69194610465F
:10107C00FFF79EFDFB790133FB71FB79052BEBD957
:10108C0000BF00BF0837BD4680BD00BFD0000020A8
:10109C0080B586B000AFF860B9603B601346FB7159
:1010AC00FB68002B1DD0BB68002B1AD0FB79002BE2
:1010BC0017D00023FB750FE0FB7DFA6813441878FA
:1010CC00FB7D9B00BA68134419683B6A3A68FFF7CA
:1010DC0081FFFB7D0133FB75FA7DFB799A42EBD3E3
:1010EC0000E000BF1837BD4680BD000080B584B05D
:1010FC0000AF0346FB71FB79052B17D8FB79342223
:10110C0002FB03F30B4A1344FB60FB6893F82C308F
:10111C00002B0CD0FB68002283F82C20FB680022EB
:10112C009A62FB791846FFF77BFD00E000BF103791
:10113C00BD4680BDD000002080B485B000AF034612
:10114C00FB71FB79052B10D8FB79342202FB03F3DE
:10115C00084A1344FB60FB6893F82C30002B05D035
:10116C00FB68002283F82C2000E000BF1437BD463A
:10117C0080BC7047D000002080B485B000AF03461F
:10118C00FB71FB79052B13D8FB79342202FB03F39B
:10119C000A4A1344FB60FB6893F82C3083F001037C
:1011AC00DBB2002B05D0FB68012283F82C2000E079
:1011BC0000BF1437BD4680BC704700BFD000002074
:1011CC0080B582B000AF0023FB7106E0FB791846B6
:1011DC00FFF78CFFFB790133FB71FB79052BF5D9FC
:1011EC0000BF00BF0837BD4680BD000080B582B08F
:1011FC0000AF0023FB711BE0FB79342202FB03F3ED
:10120C000F4A13443B603B68002283F82C203B6858
:10121C0000229A623B685A683B689A61FA793B688B
:10122C005B6819461046FFF7C3FCFB790133FB7171
:10123C00FB79052BE0D900BF00BF0837BD4680BD48
:10124C00D000002080B483B000AF0346FB71FB7963
:10125C00052B01D9002307E0FB79064A342101FB59
:10126C0003F313442C331B7818460C37BD4680BC53
:10127C00704700BFD000002080B400AF024B1B6849
:10128C001846BD4680BC70470802002080B483B06D
:10129C0000AF0346FB71FB79052B02D940F2DC53FE
:1012AC0007E0FB79054A342101FB03F3134418339F
:1012BC001B6818460C37BD4680BC7047D000002018
:1012CC0080B582B000AF0346FB71FB79052B01D9C9
:1012DC00094B0DE0FB79094A342101FB03F313445C
:1012EC001C331A68FB7911461846FFF7B1FD03460B
:1012FC0018460837BD4680BD00000743D0000020CB
:10130C0080B483B000AF0346FB71FB79052B01D988
:10131C00002307E0FB79064A342101FB03F3134455
:10132C0028331B6818460C37BD4680BC704700BF7D
:10133C00D000002090B583B000AF78604FF07C51A6
:10134C0078680AF037F9786079687868FFF7C2F93D
:10135C0003461C467B6819461846FFF7B3F803464C
:10136C0019460648FFF7ACF8034619462046FFF726
:10137C00B1F9034618460C37BD4690BD00004040FD
:10138C0090B587B000AF0023FB757AE0FB7D34226B
:10139C0002FB03F33F4A13443B613B6993F82C3047
:1013AC0083F00103DBB2002B67D13B699B6A002BF6
:1013BC0004D03B699B6A5A1E3B699A623B699B6AE3
:1013CC00002B13D13B69DA693B699A613B690022B6
:1013DC0083F82C20FA7D3B69DB6919461046FFF730
:1013EC00E7FBFB7D1846FFF71BFC47E03B699B6A5C
:1013FC001846FFF717F904463B695B6A1846FFF776
:10140C0011F9034619462046FFF718FA0346194608
:10141C004FF07E50FFF754F80346FB60F868FFF777
:10142C0089FFF8603B69DB691A463B691B6AD31A72
:10143C00BB603B691B6A1C46B868FFF7F7F80346AC
:10144C00F9681846FFF746F903461846FFF708FBFC
:10145C00034623447B607B6823EAE3733B603B6970
:10146C009B693A689A4209D03B693A689A61FB7D5C
:10147C0039681846FFF79CFB00E000BFFB7D013389
:10148C00FB75FB7D052B81D900BF00BF1C37BD460A
:10149C0090BD00BFD000002080B500AF1822002105
:1014AC000748FFF75DFBA02200210648FFF758FB19
:1014BC00054B01221A600548FFF736FC00BF80BDC2
:1014CC00100200202802002094000020991500082A
:1014DC0080B483B000AF00237B6018E010497A68B9
:1014EC0013469B0013449B000B440C331B7883F076
:1014FC000103DBB2002B07D07A6813469B00134420
:10150C009B00074A134406E07B6801337B607B68D1
:10151C00072BE3DD002318460C37BD4680BC704713
:10152C002802002080B485B000AF78600023FB60F7
:10153C0020E01549FA6813469B0013449B000B44AA
:10154C000C331B78002B12D00F49FA6813469B0002
:10155C0013449B000B441B687A689A4207D1FA68C3
:10156C0013469B0013449B00074A134406E0FB6898
:10157C000133FB60FB68072BDBDD002318461437B7
:10158C00BD4680BC704700BF2802002080B584B0E7
:10159C0000AF0346FB71FB79052B37D8FB791F4A4B
:1015AC0052F82330FB60FB68002B31D0F868FFF752
:1015BC00B9FFB860BB68002B2CD0BB681B7B83F0D9
:1015CC000103DBB2002B25D1BB689A68FB790121A2
:1015DC0001FA03F31A43BB689A60FB790F4A0021A6
:1015EC0042F82310BB689A68BB685B689A4212D1B8
:1015FC00BB6800221A73BB681B69002B0BD0BB683D
:10160C001B69BA6812681046984704E000BF02E0F4
:10161C0000BF00E000BF1037BD4680BD10020020A7
:10162C0080B483B000AF0346FB71FB79052B01D965
:10163C00002308E0FB79064A52F82330002B0CBF3C
:10164C0001230023DBB218460C37BD4680BC704723
:10165C001002002080B586B000AF78600B46FB709E
:10166C007B68002B02D0FB78002B01D1002359E0C2
:10167C00FFF72EFFF860FB68002B01D1002351E02F
:10168C0000237B610023FB741FE0FB7C7A6813440E
:10169C001B78FB72FB7A052B01D9002342E0FB7A05
:1016AC001846FFF7BDFF034683F00103DBB2002BA6
:1016BC0001D0002336E0FB7A012202FA03F37A69A7
:1016CC0013437B61FB7C0133FB74FA7CFB789A42FD
:1016DC00DBD3164B1B685A1C14490A60FA6813605A
:1016EC00FB687A695A60FB6800229A60FB680122E9
:1016FC001A73FB6800221A610023BB740CE0BB7CDC
:10170C007A6813441B781946FB681B68084A42F830
:10171C002130BB7C0133BB74BA7CFB789A42EED38C
:10172C00FB681B6818461837BD4680BD9400002026
:10173C001002002080B584B000AF78607868FFF7A5
:10174C00F1FEB860BB68002B01D100231EE0002322
:10175C00FB7314E0BB685A68FB7B012101FA03F3AD
:10176C001340002B08D0FB7B1846FFF7BFFCFB7B1C
:10177C00084A002142F82310FB7B0133FB73FB7BEF
:10178C00052BE7D9BB6800221A73012318461037C2
:10179C00BD4680BD1002002080B584B000AF7860DB
:1017AC007868FFF7BFFEB860BB68002B01D100233F
:1017BC0016E00023FB730FE0BB685A68FB7B01212A
:1017CC0001FA03F31340002B03D0FB7B1846FFF701
:1017DC00D3FCFB7B0133FB73FB7B052BECD9012387
:1017EC0018461037BD4680BD80B584B000AF786018
:1017FC007868FFF797FEB860BB68002B01D1002317
:10180C0016E00023FB730FE0BB685A68FB7B0121D9
:10181C0001FA03F31340002B03D0FB7B1846FFF7B0
:10182C008BFCFB7B0133FB73FB7B052BECD901237E
:10183C0018461037BD4680BD80B584B000AF7860C7
:10184C007868FFF76FFEF860FB68002B06D0FB682A
:10185C001B7B83F00103DBB2002B01D0012300E0E2
:10186C00002303F00103DBB218461037BD4680BDE0
:10187C0080B584B000AF78607868FFF753FEF860ED
:10188C00FB68002B02D0FB685B6800E00023184665
:10189C001037BD4680BD80B588B000AFF860B96028
:1018AC003B601346FB71FB791946F868FFF7D2FED3
:1018BC00B861BB69002B01D1002321E0B869FFF7A7
:1018CC0031FE78617B69002B02D07B69BA6A1A61A0
:1018DC000023FB770FE0FB7FFA6813441878FB7F3B
:1018EC009B00BA681344196800233A68FFF772FB2F
:1018FC00FB7F0133FB77FA7FFB799A42EBD3BB6911
:10190C0018462037BD4680BD80B588B000AFF86062
:10191C00B9603B601346FB71FB791946F868FFF719
:10192C0099FEB861BB69002B01D1002321E0B86995
:10193C00FFF7F8FD78617B69002B02D07B69BA6AEE
:10194C001A610023FB770FE0FB7FFA6813441878C9
:10195C00FB7F9B00BA681344196800233A68FFF7B1
:10196C00DFFAFB7F0133FB77FA7FFB799A42EBD3EB
:10197C00BB6918462037BD4680BD000080B485B0D9
:10198C0000AF78600023FB6028E0194AFB68342123
:10199C0001FB03F3134424331B78002B1BD0144A94
:1019AC00FB68342101FB03F3134425331B78002B14
:1019BC0011D00F4AFB68342101FB03F313442C3381
:1019CC001B687A689A4206D1FB68342202FB03F347
:1019DC00074A134406E0FB680133FB60FB68052BE8
:1019EC00D3DD002318461437BD4680BC704700BFBA
:1019FC00C802002080B483B000AF00237B6011E0EC
:101A0C000D4A7B68342101FB03F3134424331B7808
:101A1C0083F00103DBB2002B01D07B6807E07B680D
:101A2C0001337B607B68052BEADD4FF0FF331846F2
:101A3C000C37BD4680BC7047C802002090B587B0FB
:101A4C0000AF78607868FFF799FFF860FB68002BAF
:101A5C0062D0FB6893F8253083F00103DBB2002BD6
:101A6C005AD100237B6100233B610EE03B69342299
:101A7C0002FB03F32B4A1344FA689A4202D13B69E6
:101A8C007B6105E03B6901333B613B69052BEDDD77
:101A9C00FB681B6A5A1CFB681A62FB681A6AFB68B3
:101AAC001B699A4233D3FB6800221A62FB689B6A5B
:101ABC005A1CFB689A62FB681B6B002B08D0FB68F6
:101ACC001C6BFB68996AFB685A6900237869A0470C
:101ADC00FB685B69002B1AD0FB689A6AFB685B6930
:101AEC009A4214D3FB68002283F82520FB6800225D
:101AFC00DA62FB681B6B002B10D0FB681C6BFB685D
:101B0C00996AFB685A6901237869A04706E07969EC
:101B1C00F86800F009F802E000BF00E000BF1C37D5
:101B2C00BD4690BDC802002090B587B002AF78606A
:101B3C0039607B681B6AFB607B68DA68FB689B001A
:101B4C0013441B68BB607B681B7E002B13D17B6826
:101B5C0018687B689A68FB689B00134419687B685B
:101B6C005B68DAB2164B0093BB68FFF7CDFE0246FA
:101B7C007B68DA6212E07B6818687B689A68FB689D
:101B8C009B00134419687B685B68DAB20C4B0093BA
:101B9C00BB68FFF780FE02467B68DA627B681B6BD2
:101BAC00002B08D07B681C6B7B68996A7B685A6930
:101BBC0000233868A04700BF1437BD4690BD00BF56
:101BCC00491A000880B584B000AF786039607B6832
:101BDC00002B02D14FF0FF333FE07B681B68002BDA
:101BEC0002D14FF0FF3338E07B68DB68002B02D169
:101BFC004FF0FF3331E07B685B68002B03D07B68D0
:101C0C001B69002B02D14FF0FF3326E0FFF7F2FEE9
:101C1C00F860FB68002B02DA4FF0FF331DE0FB6825
:101C2C00342202FB03F30F4A1344BB60342200211D
:101C3C00B868FEF795FFBB6820227968184608F053
:101C4C0045FCBB683A681A63BB68012283F8242000
:101C5C00BB68002283F82520FB6818461037BD4668
:101C6C0080BD00BFC802002090B585B000AF786081
:101C7C007B68052B02D94FF0FF3334E07B683422AC
:101C8C0002FB03F31A4A1344FB60FB6893F82430FD
:101C9C0083F00103DBB2002B04D1FB6893F82530F1
:101CAC00002B02D04FF0FF331DE0FB6800221A62BC
:101CBC00FB6800229A62FB680022DA62FB68012250
:101CCC0083F82520FB681B6B002B07D0FB681C6B73
:101CDC00FB685A69002300217868A0477968F86886
:101CEC00FFF722FF002318461437BD4690BD00BFF6
:101CFC00C802002090B585B000AF78607B68052BDA
:101D0C0002D94FF0FF333DE07B68342202FB03F332
:101D1C001E4A1344FB60FB6893F8243083F00103E4
:101D2C00DBB2002B02D04FF0FF332BE0FB6893F8B3
:101D3C002530002B08D0FB68DB6A002B04D0FB6835
:101D4C00DB6A1846FFF7F6FCFB6800221A62FB6898
:101D5C0000229A62FB680022DA62FB68012283F897
:101D6C002520FB681B6B002B07D0FB681C6BFB68EA
:101D7C005A69002300217868A0477968F868FFF752
:101D8C00D3FE002318461437BD4690BDC802002070
:101D9C0090B585B000AF78607B68052B02D94FF009
:101DAC00FF3330E07B68342202FB03F3184A134400
:101DBC00FB60FB6893F8243083F00103DBB2002B4B
:101DCC0007D1FB6893F8253083F00103DBB2002BBD
:101DDC0002D04FF0FF3316E0FB68DB6A1846FFF7C2
:101DEC0003FDFB68002283F82520FB681B6B002B8E
:101DFC0008D0FB681C6BFB68996AFB685A69002366
:101E0C007868A047002318461437BD4690BD00BF24
:101E1C00C802002090B585B000AF78607B68052BB8
:101E2C0002D94FF0FF3335E07B68342202FB03F319
:101E3C001A4A1344FB60FB6893F8243083F00103C7
:101E4C00DBB2002B02D04FF0FF3323E0FB6893F89A
:101E5C002530002B18D0FB68DB6A1846FFF76AFCAC
:101E6C00FB680022DA62FB68002283F82520FB68FD
:101E7C001B6B002B08D0FB681C6BFB68996AFB681A
:101E8C005A6901237868A04734220021F868FEF7CC
:101E9C0067FE002318461437BD4690BDC8020020CB
:101EAC0080B485B000AF786039607B68052B01D9B0
:101EBC00002335E07B68342202FB03F31B4A1344F6
:101ECC00FB60FB6893F8243083F00103DBB2002B3A
:101EDC0001D0002324E0FB6893F824203B681A709F
:101EEC00FB6893F825203B685A70FB681B6ADAB2D2
:101EFC003B689A70FB681B69DAB23B68DA70FB6866
:101F0C009A6A3B685A60FB685A693B689A60FB683E
:101F1C00DA6A3B68DA60FB68DA693B681A610123AC
:101F2C0018461437BD4680BC704700BFC80200205D
:101F3C0080B485B000AF786039607B68052B01D91F
:101F4C00002314E07B68342202FB03F30A4A134497
:101F5C00FB60FB6893F8243083F00103DBB2002BA9
:101F6C0001D0002303E0FB683A68DA6101231846CC
:101F7C001437BD4680BC7047C802002080B485B0C1
:101F8C0000AF78607B68052B01D9002312E07B68D9
:101F9C00342202FB03F30A4A1344FB60FB6893F8F8
:101FAC00243083F00103DBB2002B01D0002301E0CD
:101FBC00FB68DB6918461437BD4680BC704700BF10
:101FCC00C802002080B582B000AF03F00BF9786036
:101FDC007B68002B01D1002348E00123FB70254ACC
:101FEC000121786803F05EFA03461A46FB78134029
:101FFC00002B14BF01230023FB701F4A10217868AB
:10200C0003F050FA03461A46FB781340002B14BF1A
:10201C0001230023FB70194A1121786803F042FA5E
:10202C0003461A46FB781340002B14BF01230023F0
:10203C00FB70134A1221786803F034FA03461A46EF
:10204C00FB781340002B14BF01230023FB700D4AB7
:10205C00E021786803F026FA03461A46FB78134011
:10206C00002B14BF01230023FB70FB7818460837A4
:10207C00BD4680BDF520000865250008012D00082F
:10208C00654A0008A54C000880B485B000AFF86024
:10209C000B467A607B817B68002B01D100231EE00C
:1020AC00FB68002B02D07B89002B0AD17B680022B5
:1020BC001A707B6800225A607B6800221A81002308
:1020CC000DE0FB681A787B681A70FB685A1C7B68F9
:1020DC005A607B89013B9AB27B681A8101231846AE
:1020EC001437BD4680BC704780B586B000AF7860B1
:1020FC0039603B68002B01D1002318E03B6858681D
:10210C003B681B7A9BB207F10C021946FFF7BCFF28
:10211C00034683F00103DBB2002B01D0002306E061
:10212C003B7B3969BA8A184600F006F80123184639
:10213C001837BD4680BD000080B5C6B000AF07F5AE
:10214C008C73A3F58C731960114607F58C73A3F28D
:10215C00111302461A7007F58C73A3F58A730A469D
:10216C001A8007F58C73A3F211131B78013B052B16
:10217C0000F2B58001A252F823F000BFA1210008A3
:10218C0025220008E72200082D220008E32200087F
:10219C002922000807F58C73A3F58A731B88B3F505
:1021AC00807F01D900239BE007F58C73A3F5867320
:1021BC0002221A700023A7F8163115E0B7F8163171
:1021CC0007F58C72A2F58C7212681A44B7F81631A6
:1021DC000133117807F58C72A2F58672D154B7F8D9
:1021EC0016310133A7F8163107F58C73A3F58A73F2
:1021FC00B7F816211B889A42E0D307F58C73A3F528
:10220C008A731B8801339AB207F10C03194601201B
:10221C0002F08CFF034663E0012361E001235FE0E1
:10222C00324BC7F81031002387F8153104E097F8CA
:10223C001531013387F8153197F81531D7F810217E
:10224C0013441B78002B03D097F81531FC2BEED9D7
:10225C0007F58C73A3F5867305221A7007F58C733A
:10226C00A3F5867301225A7007F58C73A3F5867358
:10227C0000229A7007F58C73A3F5867397F81521D5
:10228C00DA70002387F8143112E097F81431D7F87C
:10229C0010211A4497F814310433117807F58C7215
:1022AC00A2F58672D15497F81431013387F81431A2
:1022BC0097F8142197F815319A42E6D397F815310F
:1022CC009BB204339AB207F10C031946012002F0B9
:1022DC002DFF034604E0012302E0012300E000236C
:1022EC00184607F58C77BD4680BD00BFA4BF00081B
:1022FC0080B485B000AFF8600B467A607B817B6858
:10230C00002B01D100231EE0FB68002B02D07B893F
:10231C00002B0AD17B6800221A707B6800225A605D
:10232C007B6800221A8100230DE0FB681A787B6819
:10233C001A70FB685A1C7B685A607B89013B9AB205
:10234C007B681A81012318461437BD4680BC704740
:10235C0080B485B000AFF8607B600B467B81134680
:10236C003B81FB68002B02D07B68002B01D1002342
:10237C0024E03B891A1D7B899A4201D900231DE078
:10238C003B89FA6813441B7819463B890133FA6878
:10239C0013441B781B0241EA03023B890233F968A0
:1023AC000B441B781B041A433B890333F9680B4419
:1023BC001B781B061A437B681A60012318461437D6
:1023CC00BD4680BC704780B586B000AFF8607B60BE
:1023DC000B467B8113463B8100237B617B68002B82
:1023EC0001D1002314E007F114033A897989F868C4
:1023FC00FFF7AEFF034683F00103DBB2002B01D0E5
:10240C00002305E07B693B613A697B681A60012314
:10241C0018461837BD4680BD80B485B000AFF86053
:10242C000B467A607B817B89FA6813447A68D2B256
:10243C001A707B68190A7B890133FA681344CAB293
:10244C001A707B68190C7B890233FA681344CAB280
:10245C001A707B68190E7B890333FA681344CAB26D
:10246C001A7000BF1437BD4680BC704780B586B06B
:10247C0000AFF8600B467A607B8100237B617B6840
:10248C007B617A697B891946F868FFF7C5FF00BF45
:10249C001837BD4680BD000080B588B000AF03463C
:1024AC00FB71FB79052B4ED8FB7901229A40294B05
:1024BC001B681340002B48D0FB79012202FA03F36E
:1024CC00DA43244B1B681340224A136006233B73E8
:1024DC00FA7907F10C0301211846FFF79DFFFB79F0
:1024EC001846FEF7AFFE0346002B01D0012300E097
:1024FC0000237B74FB791846FEF7C8FE024607F1F1
:10250C000C0306211846FFF787FFFB791846FEF7E8
:10251C00D7FE024607F10C030A211846FFF7A6FF67
:10252C00FB791846FEF7ECFE024607F10C030E2170
:10253C001846FFF771FF07F10C031222194602200F
:10254C0002F000FC02E000BF00E000BF2037BD46F7
:10255C0080BD00BF0004002080B586B000AF78605D
:10256C0039603B68002B01D1002318E03B685868A8
:10257C003B681B7A9BB207F10C021946FFF7B8FEB9
:10258C00034683F00103DBB2002B01D0002306E0ED
:10259C003B7B3969BA8A184600F006F801231846C5
:1025AC001837BD4680BD000090B593B002AF03460E
:1025BC003960FB711346BB80FB79013B052B00F2A4
:1025CC00F68101A252F823F0ED250008312600080F
:1025DC00A926000879270008592800087B2900083B
:1025EC00AC4808F0F7F8BB881A46AB49AB4808F082
:1025FC0057F80023FB870AE0FB8F3A6813441B78DB
:10260C001946A74808F04CF8FB8F0133FB87FA8F6B
:10261C00BB889A42F0D30A2008F05AF8FEF716FD50
:10262C000123C5E19F4808F0D5F8BB881A469A49A2
:10263C009A4808F035F80023BB870AE0BB8F3A684C
:10264C0013441B781946964808F02AF8BB8F0133BF
:10265C00BB87BA8FBB889A42F0D30A2008F038F8AF
:10266C00BB88012B16D13B681B7887F8303097F864
:10267C003030052B01D900239AE197F830301946F8
:10268C00894808F00DF897F830301846FEF72EFD03
:10269C0001238DE1FEF7AAFD012389E1834808F0AF
:1026AC0099F8BB881A467C497C4807F0F9FF00234F
:1026BC007B870AE07B8F3A6813441B78194678486D
:1026CC0007F0EEFF7B8F01337B877A8FBB889A42B2
:1026DC00F0D30A2007F0FCFFBB88092B01D00023A4
:1026EC0066E13B681B7887F831300023FB620023DE
:1026FC00BB6297F83130052B01D9002358E107F163
:10270C002C03B98801223868FFF722FE034683F0B8
:10271C000103DBB2002B01D0002349E107F12803B0
:10272C00B98805223868FFF713FE034683F00103CE
:10273C00DBB2002B01D000233AE197F83110FA6A92
:10274C00BB6A5B4807F0ACFFF96ABA6A97F83100CC
:10275C00584BFEF7E5FB97F8313001229A40564B67
:10276C001B681343544A1360012321E1534808F0BA
:10277C0031F8BB881A464849484807F091FF0023B6
:10278C003B870AE03B8F3A6813441B781946444850
:10279C0007F086FF3B8F01333B873A8FBB889A4209
:1027AC00F0D30A2007F094FFBB88092B01D000233B
:1027BC00FEE03B681B7887F832304FF000037B62F9
:1027CC0000233B6297F83230052B01D90023EFE050
:1027DC0007F12403B98801223868FFF7F4FD03469A
:1027EC0083F00103DBB2002B01D00023E0E007F102
:1027FC002003B98805223868FFF7AAFD034683F049
:10280C000103DBB2002B01D00023D1E097F832405A
:10281C007B6A1846FDF7F8FD02460B46396A0091B3
:10282C002146274807F03CFF796A3A6A97F832004C
:10283C00204BFEF7CFFB97F8323001229A401E4B0B
:10284C001B6813431C4A13600123B1E01D4807F0B9
:10285C00C1FFBB881A461049104807F021FF00231E
:10286C00FB860AE0FB8E3A6813441B7819460C4829
:10287C0007F016FFFB8E0133FB86FA8EBB889A425B
:10288C00F0D30A2007F024FFBB88012B1CD00023B7
:10289C008EE000BFACBF0008C0BF0008C8BF000876
:1028AC00E0BF0008E8BF0008FCBF00080CC000082F
:1028BC0020C00008A52400080004002044C0000823
:1028CC0058C0000880C000083B681B7887F833307C
:1028DC0097F83330052B01D9002369E097F8333092
:1028EC001946354807F0DCFE05233B7397F8332077
:1028FC0007F10C0301211846FFF78EFD97F83330D2
:10290C001846FEF79FFC0346002B01D0012300E084
:10291C0000237B7497F833301846FEF7B7FC024659
:10292C0007F10C0306211846FFF776FD97F83330B4
:10293C001846FEF7C5FC024607F10C030A2118469F
:10294C00FFF794FD97F833301846FEF7D9FC024692
:10295C0007F10C030E211846FFF75EFD07F10C037F
:10296C0012221946022002F0EDF9034620E013482A
:10297C0007F030FFBB881A461149124807F090FE49
:10298C000023BB860AE0BB8E3A6813441B781946B9
:10299C000D4807F085FEBB8E0133BB86BA8EBB8813
:1029AC009A42F0D30A2007F093FE012300E00023A3
:1029BC0018464437BD4690BDFCBF000898C00008BF
:1029CC00C0BF0008C8BF0008E0BF000880B485B0D5
:1029DC0000AFF8600B467A607B817B68002B01D1DD
:1029EC0000231EE0FB68002B02D07B89002B0AD150
:1029FC007B6800221A707B6800225A607B68002278
:102A0C001A8100230DE0FB681A787B681A70FB684A
:102A1C005A1C7B685A607B89013B9AB27B681A818D
:102A2C00012318461437BD4680BC704780B485B06E
:102A3C0000AFF8607B600B467B8113463B81FB68E3
:102A4C00002B02D07B68002B01D1002324E03B89B2
:102A5C001A1D7B899A4201D900231DE03B89FA6833
:102A6C0013441B7819463B890133FA6813441B78CD
:102A7C001B0241EA03023B890233F9680B441B78C1
:102A8C001B041A433B890333F9680B441B781B0660
:102A9C001A437B681A60012318461437BD4680BC64
:102AAC00704780B586B000AFF8607B600B467B81C9
:102ABC0013463B8100237B617B68002B01D10023F3
:102ACC0014E007F114033A897989F868FFF7AEFF2F
:102ADC00034683F00103DBB2002B01D0002305E099
:102AEC007B693B613A697B681A6001231846183789
:102AFC00BD4680BD80B485B000AFF8600B467A60EF
:102B0C007B817B89FA6813447A68D2B21A707B682D
:102B1C00190A7B890133FA681344CAB21A707B68AC
:102B2C00190C7B890233FA681344CAB21A707B6899
:102B3C00190E7B890333FA681344CAB21A7000BFAA
:102B4C001437BD4680BC704780B483B000AF0023FF
:102B5C007B6011E00D4A7B684FF49A7101FB03F323
:102B6C00134403F231131B78002B02D17B685BB248
:102B7C0007E07B6801337B607B68052BEADD4FF057
:102B8C00FF3318460C37BD4680BC70470404002048
:102B9C0080B483B000AF0346FB71FB79052B0BD8D7
:102BAC00FB79084A4FF49A7101FB03F3134403F2C7
:102BBC00311300221A7000E000BF0C37BD4680BCF8
:102BCC00704700BF0404002080B58EB002AFF860DF
:102BDC00B9607A60FB70F868FFF7D0F9F862FB6AAD
:102BEC00002B5FD0FB6ABB62BB6A93F83131002BC0
:102BFC005AD0FB681F2B59D80122FB689A402E4BE8
:102C0C001B681340002B53D0FB78002B09D00122FA
:102C1C00FB6802FA03F3DA43274B1B681340264A7E
:102C2C0013607B68002B09D07A68BB689A4203D981
:102C3C007A68BB68D31A03E0002301E04FF0FF333E
:102C4C007B6216233B7507F11403FA6801211846C1
:102C5C00FFF750FF07F11403BA6805211846FFF778
:102C6C0049FF07F114037A6A09211846FFF742FF5E
:102C7C00FB78002B14BF01230023DBB287F8213033
:102C8C0007F114030E221946032002F05BF8FB78BF
:102C9C0001937B6A00937B68BA68F968074807F070
:102CAC00FFFC06E000BF04E000BF02E000BF00E054
:102CBC0000BF3037BD4680BD3C0B0020ACC00008C7
:102CCC0080B584B000AF786007233B7207F108032E
:102CDC007A6801211846FFF70DFF01237B7307F17A
:102CEC00080306221946032002F02CF800BF103707
:102CFC00BD4680BD80B586B000AF786039603B685A
:102D0C00002B01D1002318E03B6858683B681B7A04
:102D1C009BB207F10C021946FFF758FE034683F0ED
:102D2C000103DBB2002B01D0002306E03B7B3969A9
:102D3C00BA8A184600F006F8012318461837BD4623
:102D4C0080BD0000F0B5ADF5397D06AF07F53273E7
:102D5C00A3F532731960114607F53273A3F2C12340
:102D6C0002461A7007F53273A3F531730A461A80BE
:102D7C0007F53273A3F2C1231B78013B162B01F22A
:102D8C009D8501A252F823F0F12D00085D31000859
:102D9C000F320008C1320008713400087333000888
:102DAC00FB340008C9480008C9480008C948000895
:102DBC00C9480008C9480008C9480008C9480008A3
:102DCC00C94800085F3500089F3D0008053F000812
:102DDC0095400008F741000885430008854300082A
:102DEC00BF450008D24807F0F5FC07F53273A3F590
:102DFC0031731B881A46CF49CF4807F051FC00238A
:102E0C00A7F8C63211E0B7F8C63207F53272A2F550
:102E1C003272126813441B781946C84807F040FCFC
:102E2C00B7F8C6320133A7F8C63207F53273A3F5EB
:102E3C003173B7F8C6221B889A42E4D30A2007F0F4
:102E4C0047FC07F53273A3F531731B88052B02D8A9
:102E5C00002301F034BD07F53273A3F532731B6800
:102E6C001B7887F8533207F53273A3F532731B685E
:102E7C005B7887F852320023C7F8443207F5117299
:102E8C0007F53273A3F53173198807F53273A3F57F
:102E9C003270134602220068FFF7C8FD034683F028
:102EAC000103DBB2002B02D0002301F008BD97F820
:102EBC00531297F85222D7F84432A14807F0F0FB8E
:102ECC000623A7F8503297F852329AB2B7F850321C
:102EDC001344A7F84E320423A7F84C3297F8523219
:102EEC009BB2B7F84C2202FB03F39AB2B7F84E32FE
:102EFC001344A7F84A3297F85232002B08D007F542
:102F0C003273A3F53173B7F84A221B889A4202D95F
:102F1C00002301F0D4BC0023C7F8C03297F8533219
:102F2C00002B70D197F85232062B02D9002301F0F6
:102F3C00C6BC002387F8BF324AE097F8BF329BB279
:102F4C009B009AB2B7F84E3213449CB297F8BF323A
:102F5C0007F509729B001A4407F53273A3F5317318
:102F6C00198807F53273A3F53270134622460068B0
:102F7C00FFF75CFD034683F00103DBB2002B02D0AC
:102F8C00002301F09CBC97F8BF12B7F8502297F8B9
:102F9C00BF3213441A4607F53273A3F532731B681C
:102FAC0013441B78184697F8BF2297F8BF329B0042
:102FBC0003F532733B4453F8A43C0093134602468A
:102FCC00604807F06DFB97F8BF32013387F8BF32CA
:102FDC0097F8BF2297F852329A42AED3B7F85032D4
:102FEC0007F53272A2F532721268D018D7F8443253
:102FFC0097F8522207F50971534C0094FEF784FCA4
:10300C00C7F8C0027EE097F85332012B77D197F8BE
:10301C005232062B02D9002301F051BC002387F851
:10302C00BE3251E097F8BE329BB29B009AB2B7F811
:10303C004E3213449CB297F8BE3207F503729B00D4
:10304C001A4407F53273A3F53173198807F53273F7
:10305C00A3F53270134622460068FFF722FD0346A3
:10306C0083F00103DBB2002B02D0002301F027BC5C
:10307C0097F8BE42B7F8502297F8BE3213441A465E
:10308C0007F53273A3F532731B6813441B781E4685
:10309C0097F8BE5297F8BE329B0003F532733B444F
:1030AC0053F8BC3C1846FDF7AFF902460B46CDE988
:1030BC0000232B4632462146244807F0F1FA97F8B4
:1030CC00BE32013387F8BE3297F8BE2297F85232DF
:1030DC009A42A7D3B7F8503207F53272A2F5327282
:1030EC001268D018D7F8443297F8522207F50371BA
:1030FC00154C0094FEF7CFFBC7F8C00202E000238A
:10310C0001F0DDBB012387F83C3207F50F73D7F8CC
:10311C00C02201211846FFF7EDFC07F50F730522BD
:10312C001946032001F00EFE012301F0C8BB00BFBD
:10313C00F8C000080CC1000814C100082CC100081C
:10314C0034C100085CC10008CD2C000880C1000807
:10315C00CD4807F03FFB07F53273A3F531731B889D
:10316C001A46CA49CA4807F09BFA0023A7F8BC3292
:10317C0011E0B7F8BC3207F53272A2F53272126860
:10318C0013441B781946C34807F08AFAB7F8BC32C7
:10319C000133A7F8BC3207F53273A3F53173B7F8D6
:1031AC00BC221B889A42E4D30A2007F091FA002330
:1031BC00C7F8083207F5027207F53273A3F53173BD
:1031CC00198807F53273A3F5327013460022006894
:1031DC00FFF72CFC034683F00103DBB2002B02D07B
:1031EC00002301F06CBBD7F808321946AA4807F047
:1031FC0057FAD7F808321846FEF79CFA034601F046
:10320C005EBBA64807F0E6FA07F53273A3F53173F7
:10321C001B881A469D499E4807F042FA0023A7F8DE
:10322C00BA3211E0B7F8BA3207F53272A2F532723F
:10323C00126813441B781946964807F031FAB7F810
:10324C00BA320133A7F8BA3207F53273A3F53173EA
:10325C00B7F8BA221B889A42E4D30A2007F038FA4E
:10326C000023C7F8043207F5017207F53273A3F592
:10327C003173198807F53273A3F5327013460022A7
:10328C000068FFF7D3FB034683F00103DBB2002B8E
:10329C0002D0002301F013BBD7F8043219467E4844
:1032AC0007F0FEF9D7F804321846FEF79DFA0346EC
:1032BC0001F005BB7A4807F08DFA07F53273A3F5D8
:1032CC0031731B881A467149714807F0E9F90023DC
:1032DC00A7F8B83211E0B7F8B83207F53272A2F598
:1032EC003272126813441B7819466A4807F0D8F9F1
:1032FC00B7F8B8320133A7F8B83207F53273A3F533
:10330C003173B7F8B8221B889A42E4D30A2007F02D
:10331C00DFF90023C7F8003207F5007207F53273A6
:10332C00A3F53173198807F53273A3F53270134680
:10333C0000220068FFF77AFB034683F00103DBB23F
:10334C00002B02D0002301F0BABAD7F8003219468C
:10335C00514807F0A5F9D7F800321846FEF71CFAC9
:10336C00034601F0ACBA4F4807F034FA07F5327354
:10337C00A3F531731B881A464449454807F090F968
:10338C000023A7F8B63211E0B7F8B63207F532725F
:10339C00A2F53272126813441B7819463D4807F0A7
:1033AC007FF9B7F8B6320133A7F8B63207F53273A6
:1033BC00A3F53173B7F8B6221B889A42E4D30A20DE
:1033CC0007F086F90023C7F8FC3107F5FE7207F504
:1033DC003273A3F53173198807F53273A3F5327084
:1033EC00134600220068FFF721FB034683F001031C
:1033FC00DBB2002B02D0002301F061BAD7F8FC310C
:10340C001946254807F04CF9062387F8F031D7F810
:10341C00FC2107F5F87301211846FFF76BFBD7F871
:10342C00FC311846FEF724FA024607F5F87305211D
:10343C001846FFF75FFBD7F8FC311846FEF7FCF98E
:10344C000346002B01D0012300E0002387F8F9315B
:10345C0007F5F8730A221946032001F073FC0346A2
:10346C0001F02DBA104807F0B5F907F53273A3F542
:10347C0031731B881A460549054807F011F90023DA
:10348C00A7F8B43224E000BFA4C100080CC10008A6
:10349C0014C100082CC10008B8C10008D0C1000834
:1034AC00E4C10008F8C1000810C20008B7F8B43233
:1034BC0007F53272A2F53272126813441B78194662
:1034CC00CA4807F0EDF8B7F8B4320133A7F8B432B4
:1034DC0007F53273A3F53173B7F8B4221B889A42FF
:1034EC00E4D30A2007F0F4F8002301F0E8B9C0484F
:1034FC0007F070F907F53273A3F531731B881A4680
:10350C00BC49BD4807F0CCF80023A7F8B23211E053
:10351C00B7F8B23207F53272A2F532721268134460
:10352C001B781946B14807F0BBF8B7F8B232013333
:10353C00A7F8B23207F53273A3F53173B7F8B2229C
:10354C001B889A42E4D30A2007F0C2F8012301F049
:10355C00B6B9AA4807F03EF907F53273A3F53173F3
:10356C001B881A46A349A44807F09AF80023A7F829
:10357C00B03211E0B7F8B03207F53272A2F5327200
:10358C00126813441B781946984807F089F8B7F865
:10359C00B0320133A7F8B03207F53273A3F53173AB
:1035AC00B7F8B0221B889A42E4D30A2007F090F8AF
:1035BC0007F53273A3F531731B88062B02D8002351
:1035CC0001F07DB907F53273A3F532731B681B78D4
:1035DC0087F86F3207F53273A3F532731B685B788B
:1035EC0087F86E3207F53273A3F532731B689B783C
:1035FC0087F86D320023C7F8EC3107F5F67207F542
:10360C003273A3F53173198807F53273A3F5327051
:10361C00134603220068FFF709FA034683F00103FF
:10362C00DBB2002B02D0002301F049B997F86F12DE
:10363C0097F86E2297F86D02D7F8EC310093034699
:10364C006F4807F02DF897F86E32002B03D097F8DF
:10365C006D32002B02D1002301F031B997F86E3294
:10366C00062B03D897F86D32082B02D9002301F0F2
:10367C0026B90723A7F86A3297F86D329BB29B00E4
:10368C009AB2B7F86A321344A7F8683297F86E32D8
:10369C009AB2B7F868321344A7F8663297F86D32CD
:1036AC009BB297F86E2292B202FB03F39BB29B0083
:1036BC00A7F86432B7F86622B7F864321344A7F857
:1036CC00623207F53273A3F53173B7F862221B88A7
:1036DC009A4202D9002301F0F2B8FFF735FA0346FB
:1036EC0087F8613297F96132002B05DA454807F00B
:1036FC0071F8002301F0E3B897F961324FF49A7234
:10370C0002FB03F3404A1344C7F85C32D7F85C322F
:10371C00012283F83121D7F85C3297F86F2283F8B5
:10372C00302197F86E22D7F85C329A6097F86D22A8
:10373C00D7F85C32C3F82C21002387F8AF3221E094
:10374C00B7F8682297F8AF3213441A4607F532736C
:10375C00A3F532731B681A4497F8AF321178D7F877
:10376C005C22D15497F8AF1297F8AF32D7F85C229D
:10377C00D35C1A46254806F093FF97F8AF32013315
:10378C0087F8AF3297F8AF2297F86E329A42D7D3B8
:10379C00002387F8AE3252E00023C7F8E83197F8DF
:1037AC00AE329BB29B009AB2B7F86A3213449AB20B
:1037BC0007F5F47407F53273A3F53173198807F51F
:1037CC003273A3F5327023460068FFF72FF90346D6
:1037DC0083F00103DBB2002B1AD097F86132184644
:1037EC00FFF7D6F9002301F06AB800BF2CC100081E
:1037FC0028C200080CC1000814C100083CC2000813
:10380C0058C2000898C2000804040020CCC200086A
:10381C0097F8AE32D7F8E821D7F85C1242339B0008
:10382C000B445A6097F8AE32D7F8E8211946D948BC
:10383C0006F036FF97F8AE32013387F8AE3297F8C0
:10384C00AE2297F86D329A42A6D3002387F8AD3298
:10385C00F7E097F86F32002B70D197F8AD2297F8FC
:10386C00AD0213465B001344DB000833D7F85C222F
:10387C0013441A1DD7F85C1200F132039B000B4461
:10388C005A60002387F8AC3251E00023C7F8E431CA
:10389C0097F8AD3297F86E2203FB02F297F8AC3230
:1038AC0013449BB29B009AB2B7F866321344A7F844
:1038BC00543207F5F274B7F8542207F53273A3F5B6
:1038CC003173198807F53273A3F5327023460068FB
:1038DC00FFF7ACF8034683F00103DBB2002B07D0F3
:1038EC0097F861321846FFF753F9002300F0E7BF51
:1038FC0097F8AD2297F8AC42D7F8E411D7F85C02F0
:10390C0013465B0013445B00234402339B000344C7
:10391C00596097F8AD1297F8AC22D7F8E4319E486D
:10392C0006F0BEFE97F8AC32013387F8AC3297F84C
:10393C00AC2297F86E329A42A7D37DE097F86F329B
:10394C00012B79D197F8AD2297F8AD0213465B00A5
:10395C001344DB000833D7F85C2213441A1DD7F844
:10396C005C1200F13A039B000B445A60002387F869
:10397C00AB325BE04FF00003C7F8E03197F8AD32A3
:10398C0097F86E2203FB02F297F8AB3213449BB20A
:10399C009B009AB2B7F866321344A7F8563207F573
:1039AC00F074B7F8562207F53273A3F53173198802
:1039BC0007F53273A3F5327023460068FFF771F8F0
:1039CC00034683F00103DBB2002B07D097F861327A
:1039DC001846FFF7DDF8002300F071BF97F8AD2211
:1039EC0097F8AB42D7F8E011D7F85C0213465B00AE
:1039FC0013445B00234402339B000344596097F843
:103A0C00AD4297F8AB52D7F8E0311846FCF7FCFC06
:103A1C0002460B46CDE900232A4621465F4806F0B4
:103A2C003FFE97F8AB32013387F8AB3297F8AB22F5
:103A3C0097F86E329A429DD397F8AD32013387F8DE
:103A4C00AD3297F8AD2297F86D329A42FFF401AF80
:103A5C0007F53273A3F53073184620231A4600215C
:103A6C00FDF77EF8D7F85C2207F53273A3F53073B7
:103A7C001A6097F86E2207F53273A3F530735A600B
:103A8C00D7F85C3203F5867207F53273A3F5307301
:103A9C00DA6097F86D2207F53273A3F530731A616B
:103AAC00D7F8EC2107F53273A3F530735A6107F59B
:103ABC003273A3F5307397F86F221A7607F53273C9
:103ACC00A3F53073D7F85C22DA6197F86F32002BCC
:103ADC0009D1D7F85C3203F1CC0207F53273A3F5A8
:103AEC0030739A6008E0D7F85C3203F1EC0207F50A
:103AFC003273A3F530739A6007F10803284918460E
:103B0C00FEF760F8C7F85802D7F85832002B0ADADB
:103B1C00244806F05FFE97F861321846FFF738F834
:103B2C00002300F0CCBED7F85832D7F85C121846F8
:103B3C00FEF7FEF9034683F00103DBB2002B0FD036
:103B4C00194806F047FED7F858321846FEF762F9C6
:103B5C0097F861321846FFF71BF8002300F0AFBE50
:103B6C00D7F858321F2B08DC0122D7F858329A406C
:103B7C000E4B1B6813430D4A136097F961321A46BA
:103B8C00D7F858120A4806F08BFD002387F8AA32A2
:103B9C003FE000BFE4C2000800C3000820C30008D7
:103BAC00D52B000844C3000868C300083C0B002058
:103BBC0094C3000897F8AA3207F5E6721146184626
:103BCC00FEF76EF90346002B1ED097F8AA0297F861
:103BDC00CC311E4697F8CD319C4697F8CE311C4619
:103BEC0097F8CF311D46D7F8D031D7F8D421D7F874
:103BFC00D8110491039202930195009463463246C6
:103C0C000146C64806F04CFD97F8AA32013387F8F6
:103C1C00AA3297F8AA32052BCCD9002387F8A932FF
:103C2C0007F53273A3F5287317221A700223A7F82D
:103C3C00A632002387F8A5328CE097F8A53207F559
:103C4C00DC7211461846FEF72BF90346002B7CD08C
:103C5C00B7F8A6321233B3F5807F03D9B04806F01B
:103C6C00B9FD7CE0B7F8A63207F53272A2F52872DE
:103C7C0097F8A512D15407F53273A3F588731A7807
:103C8C00B7F8A6320133114607F53272A2F5287245
:103C9C00D15407F53273A3F588735A78B7F8A63266
:103CAC000233114607F53272A2F52872D154B7F8D7
:103CBC00A632033307F53272A2F58872917807F5B4
:103CCC003272A2F52872D154B7F8A632043307F534
:103CDC003272A2F58872D17807F53272A2F5287289
:103CEC00D154B7F8A632053399B207F53273A3F560
:103CFC0088735A6807F128031846FEF7FBFEB7F8DD
:103D0C00A632093399B207F53273A3F588739A6812
:103D1C0007F128031846FEF7EDFEB7F8A6320D336F
:103D2C0099B207F53273A3F58873DA6807F12803A3
:103D3C001846FEF7DFFEB7F8A6321133A7F8A63205
:103D4C0097F8A932013387F8A93297F8A5320133D5
:103D5C0087F8A53297F8A532052B7FF66EAF07F5DD
:103D6C003273A3F5287397F8A9225A7097F8A932E1
:103D7C00B7F8A62219466B4806F092FCB7F8A622B3
:103D8C0007F128031946032000F0DCFF034600F07E
:103D9C0096BD654806F01EFD07F53273A3F5317329
:103DAC001B881A466149624806F07AFC0023A7F882
:103DBC00A23211E0B7F8A23207F53272A2F53272D4
:103DCC00126813441B7819465A4806F069FCB7F878
:103DDC00A2320133A7F8A23207F53273A3F531737F
:103DEC00B7F8A2221B889A42E4D30A2006F070FC92
:103DFC0007F53273A3F58A7300221A6007F5DA729D
:103E0C0007F53273A3F53173198807F53273A3F5EF
:103E1C003270134600220068FEF708FE034683F05A
:103E2C000103DBB2002B02D0002300F048BD07F5E4
:103E3C003273A3F58A731B681846FDF715FFC7F894
:103E4C007002D7F87032002B4DD107F53273A3F501
:103E5C008A731B681946384806F022FC07F5327342
:103E6C00A3F58A731B6807F5D07211461846FEF746
:103E7C0017F80346002B36D007F53273A3F58A7377
:103E8C00186807F53273A3F594731B781E4607F573
:103E9C003273A3F594735B789C4607F53273A3F5E4
:103EAC0094739B781C4607F53273A3F59473DB78F7
:103EBC001D4607F53273A3F594735B6807F53272F0
:103ECC00A2F59472926807F53271A1F59471C968E4
:103EDC000491039202930195009463463246014685
:103EEC00164806F0DDFBD7F87032002B0CBF01230F
:103EFC000023DBB200F0E3BC114806F06BFC07F5C5
:103F0C003273A3F531731B881A460849084806F02A
:103F1C00C7FB0023A7F8A03226E000BFCCC30008E3
:103F2C001CC400085CC4000898C400080CC100083C
:103F3C0014C100082CC10008B4C40008E0C4000877
:103F4C0030C50008B7F8A03207F53272A2F532720C
:103F5C00126813441B781946CA4806F0A1FBB7F83F
:103F6C00A0320133A7F8A03207F53273A3F53173F1
:103F7C00B7F8A0221B889A42E4D30A2006F0A8FBCB
:103F8C0007F53273A3F5967300221A6007F5CE720B
:103F9C0007F53273A3F53173198807F53273A3F55E
:103FAC003270134600220068FEF740FD034683F092
:103FBC000103DBB2002B02D0002300F080BC07F51C
:103FCC003273A3F596731B681846FDF793FEC7F87A
:103FDC007402D7F87432002B4DD107F53273A3F568
:103FEC0096731B681946A84806F05AFB07F53273FE
:103FFC00A3F596731B6807F5C47211461846FDF7B6
:10400C004FFF0346002B36D007F53273A3F596739A
:10401C00186807F53273A3F5A0731B781E4607F5D5
:10402C003273A3F5A0735B789C4607F53273A3F546
:10403C00A0739B781C4607F53273A3F5A073DB784D
:10404C001D4607F53273A3F5A0735B6807F5327252
:10405C00A2F5A072926807F53271A1F5A071C9683A
:10406C0004910392029301950094634632460146F3
:10407C00864806F015FBD7F87432002B0CBF0123D1
:10408C000023DBB200F01BBC814806F0A3FB07F554
:10409C003273A3F531731B881A467E497E4806F0AD
:1040AC00FFFA0023A7F89E3211E0B7F89E3207F50D
:1040BC003272A2F53272126813441B781946714899
:1040CC0006F0EEFAB7F89E320133A7F89E3207F5E8
:1040DC003273A3F53173B7F89E221B889A42E4D34E
:1040EC000A2006F0F5FA07F53273A3F5A273002245
:1040FC001A6007F5C27207F53273A3F5317319888C
:10410C0007F53273A3F53270134600220068FEF7F0
:10411C008DFC034683F00103DBB2002B01D000239E
:10412C00CDE307F53273A3F5A2731B681846FDF7B0
:10413C002FFEC7F87802D7F87832002B4DD107F54F
:10414C003273A3F5A2731B681946544806F0A8FAFB
:10415C0007F53273A3F5A2731B6807F5B872114605
:10416C001846FDF79DFE0346002B36D007F532733B
:10417C00A3F5A273186807F53273A3F5AC731B781B
:10418C001E4607F53273A3F5AC735B789C4607F5B6
:10419C003273A3F5AC739B781C4607F53273A3F509
:1041AC00AC73DB781D4607F53273A3F5AC735B6813
:1041BC0007F53272A2F5AC72926807F53271A1F56F
:1041CC00AC71C96804910392029301950094634603
:1041DC00324601462D4806F063FAD7F87832002BA8
:1041EC000CBF01230023DBB269E32D4806F0F2FA81
:1041FC0007F53273A3F531731B881A4625492648F7
:10420C0006F04EFA0023A7F89C3211E0B7F89C3266
:10421C0007F53272A2F53272126813441B781946F4
:10422C00184806F03DFAB7F89C320133A7F89C32D7
:10423C0007F53273A3F53173B7F89C221B889A42A9
:10424C00E4D30A2006F044FA07F53273A3F5AE73F3
:10425C0000221A6007F5B67207F53273A3F53173B5
:10426C00198807F53273A3F53270134600220068E3
:10427C00FEF7DCFB034683F00103DBB2002B11D00D
:10428C0000231CE32CC100084CC50008E0C4000846
:10429C0078C500080CC1000814C1000894C50008BA
:1042AC00C0C5000807F53273A3F5AE731B6818463A
:1042BC00FDF764FEC7F88402D7F88432002B27D0B0
:1042CC00D7F8843293F83131002B21D0D7F88432CF
:1042DC00C04A9B1A9B10C04A02FB03F387F8833237
:1042EC0097F98332002B13DB97F98332052B0FDC04
:1042FC0097F883321846FEF74BFC97F9831207F5B3
:10430C003273A3F5AE731B681A46B44806F0C8F9AD
:10431C0007F53273A3F5AE731B681F2B0DD807F589
:10432C003273A3F5AE731B68012202FA03F3DA436E
:10433C00AB4B1B681340AA4A136007F53273A3F505
:10434C00AE731B681846FDF765FDC7F87C02D7F8FD
:10435C007C32002B08D107F53273A3F5AE731B68C2
:10436C001946A04806F09CF9D7F87C32002B0CBFFC
:10437C0001230023DBB2A2E29B4806F02BFA07F5DF
:10438C003273A3F531731B881A469849984806F086
:10439C0087F90023A7F89A3211E0B7F89A3207F59B
:1043AC003272A2F53272126813441B781946914886
:1043BC0006F076F9B7F89A320133A7F89A3207F576
:1043CC003273A3F53173B7F89A221B889A42E4D35F
:1043DC000A2006F07DF907F53273A3F5B0730022BD
:1043EC001A6007F5B47207F53273A3F531731988A7
:1043FC0007F53273A3F53270134600220068FEF7FE
:10440C0015FB034683F00103DBB2002B01D0002324
:10441C0055E207F53273A3F5B0731B68194676485D
:10442C0006F03EF907F53273A3F5B0731B6807F578
:10443C00AA7211461846FDF733FD034683F00103BB
:10444C00DBB2002B01D0002339E207F53273A3F560
:10445C00BA731B781C4607F53273A3F5BA735B78F5
:10446C001D4607F53273A3F5BA739B781E4607F504
:10447C003273A3F5BA73DB78184607F53273A3F5DC
:10448C00BA735B6807F53272A2F5BA72926807F5D7
:10449C003271A1F5BA71C96803910292019300902F
:1044AC0033462A462146554806F0FAF807F532738A
:1044BC00A3F5BA731B69C7F88832D7F88832002B7A
:1044CC0012D0D7F8883293F83131002B0CD007F585
:1044DC003273A3F5B0731968D7F8883293F830317A
:1044EC001A46474806F0DCF807F53273A3F5C67395
:1044FC0015221A7007F53273A3F5B0731A6807F515
:10450C009E7301211846FEF7F5FA07F53273A3F5F1
:10451C00BA731B781A4607F53273A3F5C6735A7132
:10452C0007F53273A3F5BA735B781A4607F5327345
:10453C00A3F5C6739A7107F53273A3F5BA739A781B
:10454C0007F53273A3F5C673DA7107F53273A3F569
:10455C00BA73DA7807F53273A3F5C6731A7207F5D6
:10456C003273A3F5BA735A6807F59E73092118467E
:10457C00FEF7C0FA07F53273A3F5BA739A6807F51C
:10458C009E730D211846FEF7B5FA07F53273A3F5A5
:10459C00BA73DA6807F59E7311211846FEF7AAFA6A
:1045AC0007F59E7315221946032000F0CBFB03463A
:1045BC0085E1144806F00EF907F53273A3F5317353
:1045CC001B881A4609490A4806F06AF80023A7F81E
:1045DC0098322BE00404002085382B3FDCC5000802
:1045EC003C0B00201CC6000848C600080CC1000883
:1045FC0014C100082CC1000870C600088CC6000845
:10460C00FCC600082CC70008B7F8983207F53272C0
:10461C00A2F53272126813441B781946AA4806F0A8
:10462C003FF8B7F898320133A7F8983207F5327390
:10463C00A3F53173B7F898221B889A42E4D30A2069
:10464C0006F046F8002387F8973207F53273A3F586
:10465C00287317221A700223A7F89432002387F8C4
:10466C0093320DE197F8933207F594721146184680
:10467C00FDF716FC0346002B00F0FD80B7F89432D2
:10468C001233B3F5807F03D9904806F0A3F8FCE011
:10469C00B7F8943207F53272A2F5287297F8931294
:1046AC00D15407F53273A3F5D0731A78B7F8943256
:1046BC000133114607F53272A2F52872D15407F571
:1046CC003273A3F5D0735A78B7F89432023311468B
:1046DC0007F53272A2F52872D154B7F8943203332D
:1046EC0007F53272A2F5D072917807F53272A2F505
:1046FC002872D154B7F89432043307F53272A2F50C
:10470C00D072D17807F53272A2F52872D154B7F86D
:10471C009432053399B207F53273A3F5D0735A6806
:10472C0007F128031846FEF7E5F9B7F89432093378
:10473C0099B207F53273A3F5D0739A6807F1280381
:10474C001846FEF7D7F9B7F894320D3399B207F53E
:10475C003273A3F5D073DA6807F128031846FEF715
:10476C00C9F9B7F894321133A7F8943297F8973205
:10477C00013387F8973207F53273A3F5D0731B69B1
:10478C00C7F88C32D7F88C32002B40D0D7F88C324B
:10479C0093F83131002B3AD097F89302D7F88C323A
:1047AC0093F830319C4607F53273A3F5D0731B7820
:1047BC009E4607F53273A3F5D0735B781C4607F55C
:1047CC003273A3F5D0739B781D4607F53273A3F5AE
:1047DC00D073DB781E4607F53273A3F5D0735B6894
:1047EC0007F53272A2F5D072926807F53271A1F515
:1047FC00D071C968059104920393029601950094B7
:10480C00734662460146324805F04AFF33E097F89A
:10481C00930207F53273A3F5D0731B781E4607F588
:10482C003273A3F5D0735B789C4607F53273A3F50E
:10483C00D0739B781C4607F53273A3F5D073DB78E5
:10484C001D4607F53273A3F5D0735B6807F532721A
:10485C00A2F5D072926807F53271A1F5D071C968D2
:10486C0004910392029301950094634632460146EB
:10487C00184805F015FF97F89332013387F89332F7
:10488C0097F89332052B7FF6EDAE07F53273A3F54F
:10489C00287397F897225A7097F89732B7F89422A2
:1048AC0019460D4805F0FCFEB7F8942207F12803D1
:1048BC001946032000F046FA034600E00023184690
:1048CC0007F53377BD46F0BD2CC100081CC40008A9
:1048DC0044C70008A8C7000804C8000880B485B005
:1048EC0000AFF8600B467A607B817B68002B01D1AE
:1048FC0000231EE0FB68002B02D07B89002B0AD121
:10490C007B6800221A707B6800225A607B68002248
:10491C001A8100230DE0FB681A787B681A70FB681B
:10492C005A1C7B685A607B89013B9AB27B681A815E
:10493C00012318461437BD4680BC704780B485B03F
:10494C0000AFF8607B600B467B8113463B81FB68B4
:10495C00002B02D07B68002B01D1002324E03B8983
:10496C001A1D7B899A4201D900231DE03B89FA6804
:10497C0013441B7819463B890133FA6813441B789E
:10498C001B0241EA03023B890233F9680B441B7892
:10499C001B041A433B890333F9680B441B781B0631
:1049AC001A437B681A60012318461437BD4680BC35
:1049BC00704780B586B000AFF8607B600B467B819A
:1049CC0013463B8100237B617B68002B01D10023C4
:1049DC0014E007F114033A897989F868FFF7AEFF00
:1049EC00034683F00103DBB2002B01D0002305E06A
:1049FC007B693B613A697B681A600123184618375A
:104A0C00BD4680BD80B485B000AFF8600B467A60BF
:104A1C007B817B89FA6813447A68D2B21A707B68FE
:104A2C00190A7B890133FA681344CAB21A707B687D
:104A3C00190C7B890233FA681344CAB21A707B686A
:104A4C00190E7B890333FA681344CAB21A7000BF7B
:104A5C001437BD4680BC704780B586B000AF786017
:104A6C0039603B68002B01D1002318E03B68586883
:104A7C003B681B7A9BB207F10C021946FFF72EFF1D
:104A8C00034683F00103DBB2002B01D0002306E0C8
:104A9C003B7B3969BA8A184600F006F801231846A0
:104AAC001837BD4680BD000080B590B002AF0346FC
:104ABC003960FB711346BB80FB79013B042B00F280
:104ACC00B68001A252F823F0E94A0008494B0008CD
:104ADC00514B0008134C0008374C00084FF47A7304
:104AEC00FB62BB88042B0ED107F12C03B988002282
:104AFC003868FFF723FF034683F00103DBB2002B7A
:104B0C0006D0002394E0BB88002B01D000238FE05B
:104B1C00002387F837300BE0F96A97F8373000221A
:104B2C001846FCF773FA97F83730013387F83730AB
:104B3C0097F83730042BEFD9012379E0FCF740FBD1
:104B4C00012375E018237B86BA887B8E9A4201D0AC
:104B5C0000236DE00023BB6207F12803B988002213
:104B6C003868FFF7EBFE034683F00103DBB2002B42
:104B7C0001D000235CE0002387F836301EE097F864
:104B8C0036309BB201339BB29B0098B297F836300B
:104B9C0007F114029B001344B98802463868FFF7EA
:104BAC0008FF034683F00103DBB2002B01D0002386
:104BBC003EE097F83630013387F8363097F83630C8
:104BCC00042BDCD9002387F835300CE097F835300E
:104BDC0038333B4497F8352003F82C2C97F83530B4
:104BEC00013387F8353097F83530042BEED9BB6A92
:104BFC0007F1140107F10C00002200920522FCF7CA
:104C0C0047FA012314E0FCF737FB024607F10803CF
:104C1C0000211846FFF7F6FE07F108030422194697
:104C2C00042000F08FF8034602E0012300E000238B
:104C3C0018463837BD4680BD80B485B000AFF860EB
:104C4C000B467A607B817B68002B01D100231EE030
:104C5C00FB68002B02D07B89002B0AD17B680022D9
:104C6C001A707B6800225A607B6800221A8100232C
:104C7C000DE0FB681A787B681A70FB685A1C7B681D
:104C8C005A607B89013B9AB27B681A8101231846D2
:104C9C001437BD4680BC704780B586B000AF7860D5
:104CAC0039603B68002B01D1002318E03B68586841
:104CBC003B681B7A9BB207F10C021946FFF7BCFF4D
:104CCC00034683F00103DBB2002B01D0002306E086
:104CDC003B7B3969BA8A184600F006F8012318465E
:104CEC001837BD4680BD000080B582B000AF0346CA
:104CFC003960FB711346BB80FB79013B042B1CD83C
:104D0C0001A252F823F000BF294D0008374D0008CE
:104D1C003B4D00083F4D0008434D00080022002188
:104D2C00052000F00FF8034608E0012306E00123FC
:104D3C0004E0012302E0012300E0002318460837B9
:104D4C00BD4680BD2DE9F04387B000AF0346396006
:104D5C00FB711346BB806B461E46BB88B3F5807F48
:104D6C0001D9002355E03B68002B02D0BB88002BF7
:104D7C000AD1FB793B7207F1080301221946D020B6
:104D8C0000F0D4F9034644E0BB88591C4B1E3B6130
:104D9C000A460023904699464FF000024FF000035C
:104DAC004FEAC90343EA58734FEAC8020A46002384
:104DBC0014461D464FF000024FF00003EB0043EA8F
:104DCC005473E2000B460733DB08DB00ADEB030D3D
:104DDC006B460033FB60FB68FA791A700023FB8288
:104DEC000AE0FB8A3A681A44FB8A01331178FA68A4
:104DFC00D154FB8A0133FB82FA8ABB889A42F0D3E6
:104E0C00BB8801339BB21A46F968D02000F08EF9AA
:104E1C000346B54618461C37BD46BDE8F083000076
:104E2C0080B584B000AF264BDB6B1B685B689BB214
:104E3C00C3F58063FB81234B1B88FA899A423BD0D4
:104E4C00204B1B88FA899A4213D9FB891D4A128878
:104E5C009B1A7B601C4B1B68002B2AD01A4B1B68BF
:104E6C00184A12881146194A0A447968104698471C
:104E7C001FE0144B1B88C3F58063BB60124B1B688F
:104E8C00002B09D0104B1B680E4A128811460F4A92
:104E9C000A44B96810469847FB89002B09D00A4B85
:104EAC001B68002B05D0084B1B68FA891146074874
:104EBC009847044AFB89138000BF1037BD4680BD5C
:104ECC00481A0020400F0020480F0020400B002003
:104EDC0080B582B000AF7860094A7B681360094BDB
:104EEC0000221A80084B00221A604FF48062074996
:104EFC00074804F0B1FA002318460837BD4680BDB8
:104F0C00480F0020400F0020440F0020400B0020D1
:104F1C00481A002080B584B000AF786039607B6897
:104F2C00002B02D03B68002B01D1002310E03B6822
:104F3C009AB24FF0FF337968074804F092F90346B0
:104F4C00FB73FB7B002B01D13B6801E04FF0FF337F
:104F5C0018461037BD4680BD481A002080B584B075
:104F6C0000AF786039607B68002B02D03B68002B67
:104F7C0001D1002319E00F4B1B68002B02D04FF01E
:104F8C00FF3312E00B4B01221A603B689BB21A46AE
:104F9C007968094804F0F0F90346FB73FB7B002B9E
:104FAC0001D1002301E04FF0FF3318461037BD4606
:104FBC0080BD00BF440F0020481A002080B500AF10
:104FCC00FFF72EFF00BF80BD80B400AF034B002263
:104FDC001A6000BFBD4680BC704700BF440F002064
:104FEC0080B584B000AFF860B9607A60BB68002B04
:104FFC0002D07B68002B03D1084805F0EBFB09E0DD
:10500C007968B868FFF7AAFF0346002B02D0044862
:10501C0005F0E0FB1037BD4680BD00BF30C800086E
:10502C005CC8000880B582B000AF786039600C486D
:10503C0005F0D0FB386800F0F7FF0A4B1B68002B1B
:10504C0009D0084B1B683A6890783A6851683A68FE
:10505C00127A92B29847012318460837BD4680BD94
:10506C0078C80008C818002080B582B000AF7860FE
:10507C0039607B68002B08D03B68002B05D03A6860
:10508C007968044800F078FB00E000BF0837BD46A3
:10509C0080BD00BF4C0F002080B582B000AF78609F
:1050AC00184B1B78002B04D0174805F093FB0123F9
:1050BC0023E0164805F08EFB154A7B6813601548F3
:1050CC00FFF706FF0346002B04D0134805F082FBC4
:1050DC00002312E00021114800F0E4F810490F48B9
:1050EC0000F01AFA074B01221A700E4805F072FBF9
:1050FC0079680D4805F0D4FA012318460837BD46E7
:10510C0080BD00BFCC18002094C80008B4C80008AB
:10511C00C818002075500008D0C800084C0F00209B
:10512C0031500008F4C8000818C9000880B588B0D0
:10513C0000AF03463960FB711346BB801B4B1B78D9
:10514C0083F00103DBB2002B04D0194805F042FBBD
:10515C00002327E03B68002B02D0BB88002B04D136
:10516C00144805F037FB00231CE0FB79BB723B684D
:10517C00FB60BB88DBB23B7407F1080319460E4891
:10518C0000F0ECFE0346FB77FB7F002B06D0FB798F
:10519C00BA881946094805F083FA02E0084805F078
:1051AC0019FBFB7F18462037BD4680BDCC1800206C
:1051BC0038C900085CC900084C0F00207CC90008E5
:1051CC00A8C9000880B500AFFFF7F8FE00BF80BD8E
:1051DC0080B500AF024800F0D3FE00BF80BD00BF19
:1051EC004C0F002080B400AF024B1846BD4680BC6B
:1051FC00704700BF4C0F002080B582B000AF7860C4
:10520C00142200217868FBF7ABFC00BF0837BD46C1
:10521C0080BD000080B582B000AF78607B6893F8E9
:10522C002138002B04D0074805F0D4FA002304E001
:10523C007B68012283F82128012318460837BD46D4
:10524C0080BD00BFC0C9000880B483B000AF7860D7
:10525C007B68002283F8212800BF0C37BD4680BC38
:10526C00704780B400AF00231846BD4680BC704721
:10527C0080B483B000AF03460A46FB711346BB7182
:10528C00FB7918460C37BD4680BC704780B483B0A0
:10529C0000AF0346FB71FB7918460C37BD4680BC4A
:1052AC007047000080B584B000AF78600B46FB708F
:1052BC007B68002B04D10F4805F08CFA002315E015
:1052CC007B685B68FB607B681B68BB6040F67C128C
:1052DC0000217868FBF744FC7B68FA685A607B68AD
:1052EC00BA681A607B68FA781A720123184610376C
:1052FC00BD4680BDE0C9000880B483B000AF7860C3
:10530C007B68DA897B689A8100BF0C37BD4680BC0C
:10531C00704780B58AB000AFF8600B467A60FB72BC
:10532C007B685B68002B2CD07B681B69002B03D13E
:10533C007B685B69002B0ED07B681B693B627B68CA
:10534C005B697B620023BB617B685B6807F11402BD
:10535C001146F86898477B6800225A607B680022E7
:10536C009A60FA7AFB6893F87839013B9A4209D132
:10537C00FB6893F87839013BDAB2FB6883F878293B
:10538C0000E000BF2837BD4680BD80B485B000AFBB
:10539C00F8600B467A60FB727B6800225A60FA7ADE
:1053AC00FB6893F87939013B9A4207D1FB6893F873
:1053BC007939013BDAB2FB6883F8792900BF1437DD
:1053CC00BD4680BC704780B485B000AFF8600B461A
:1053DC007A60FB727B6800221A60FA7AFB6893F899
:1053EC007A39013B9A4207D1FB6893F87A39013B31
:1053FC00DAB2FB6883F87A2900BF1437BD4680BC4B
:10540C007047000080B586B000AFF860B9607A6074
:10541C003B600023FB7538E0FA7D13465B001344B8
:10542C00DB0003F50263FA68134404333B613B6908
:10543C005B68002B26D13B697A685A603B693A68F5
:10544C009A60BB681A783B691A70BB68DA683B696A
:10545C001A61BB681A693B695A613B693A8C9A813B
:10546C003B699A893B69DA81FB6893F87839FA7D54
:10547C009A4205D3FB7D0133DAB2FB6883F87829B5
:10548C00012309E0FB7D0133FB75FB7D092BC3D99F
:10549C00034805F09FF9002318461837BD4680BD18
:1054AC0034CA000880B586B000AFF8600B467A604D
:1054BC00FB720023FB7522E0FB7D03F59173DB008F
:1054CC00FA68134404333B613B695B68002B13D1CE
:1054DC003B697A685A603B69FA7A1A70FB6893F8F0
:1054EC007939FA7D9A4205D3FB7D0133DAB2FB6838
:1054FC0083F87929012309E0FB7D0133FB75FB7DE2
:10550C00092BD9D9034805F065F90023184618373B
:10551C00BD4680BD54CA000880B584B000AF786029
:10552C0039600023FB731FE0FB7B03F516739B00B4
:10553C007A6813440433BB60BB681B68002B10D122
:10554C00BB683A681A607B6893F87A39FA7B9A429E
:10555C0005D3FB7B0133DAB27B6883F87A2901230C
:10556C0009E0FB7B0133FB73FB7B042BDCD9044888
:10557C0005F030F9002318461037BD4680BD00BF3A
:10558C0078CA000880B58CB000AF786007F10803CA
:10559C001846FFF731FE7B689B7B3B7200237B72C6
:1055AC007B6893F81334BB727B681033FB607B68A9
:1055BC00DB7B3B74002387F82F304EE097F82F20CD
:1055CC0013465B001344DB0003F502637A68134453
:1055DC000433FB61FB695B68002B39D0FB691A78DB
:1055EC003B7A9A4234D1FB691B697B61FB695B692D
:1055FC00BB61FB695B6807F1080211467868984744
:10560C00034687F827307A69FB691A61BA69FB6926
:10561C005A6197F82730002B1AD097F82730022BB5
:10562C0003D1F869FFF768FE9BE097F82730032B4E
:10563C0040F09780FB6900221A61FB6900225A61D5
:10564C0097F82F30FA6919467868FFF762FE88E000
:10565C0097F82F30013387F82F307B6893F878391F
:10566C0097F82F209A42A9D300237B610023BB61BA
:10567C00002387F82F3030E097F82F3003F5917323
:10568C00DB007A68134404333B623B6A5B68002B93
:10569C001ED03B6A1A78BB7A9A4219D13B6A5B6876
:1056AC0007F10802114678689847034687F82730B7
:1056BC0097F82730002B0BD097F82730032B52D1BB
:1056CC0097F82F303A6A19467868FFF75EFE4AE081
:1056DC0097F82F30013387F82F307B6893F879399E
:1056EC0097F82F209A42C7D3002387F82F302BE04E
:1056FC0097F82F3003F516739B007A681344043324
:10570C00BB62BB6A1B68002B19D0BB6A1B6807F114
:10571C000802114678689847034687F8273097F8AF
:10572C002730002B0BD097F82730032B1DD197F87F
:10573C002F30BA6A19467868FFF745FE15E097F8DE
:10574C002F30013387F82F307B6893F87A3997F82C
:10575C002F209A42CCD3BB7A1946064804F0A0FFFE
:10576C0004E000BF02E000BF00E000BF3037BD46E0
:10577C0080BD00BF20CB000880B586B000AFF860BC
:10578C00B9607A6000237B610AE0BA687B691344D4
:10579C001B781946F86800F03FF87B6901337B6190
:1057AC007A697B689A42F0D300BF00BF1837BD46B8
:1057BC0080BD80B483B000AF78607B6800229A72A1
:1057CC0000BF0C37BD4680BC704780B582B000AFBF
:1057DC007860FFF746FD03461A467B6883F8112470
:1057EC007B6893F8113401211846FFF741FD0346FD
:1057FC001A467B6883F811247B68002283F81424F2
:10580C007B6803229A727B68002283F8102400BF05
:10581C000837BD4680BD000080B582B000AF78600F
:10582C000B46FB707B689B89092B09D97B689B7A9B
:10583C00002B05D07868FFF7BCFFB74804F0CAFF0F
:10584C007B6800229A817B689B7A062B00F27C8114
:10585C0001A252F823F000BF81580008ED5800084F
:10586C00A95900089158000849590008475A0008DE
:10587C00B35A0008FB78012B40F059817868FFF788
:10588C00A4FF54E17B6893F81134FA78114618465A
:10589C00FFF7EEFC03461A467B6883F811247B68FD
:1058AC009B7B1B025AB297F9033013435BB2DAB2FB
:1058BC007B689A737B6893F810340133DAB27B6897
:1058CC0083F810247B6893F81034012B40F031815D
:1058DC007B6801229A727B68002283F8102428E1ED
:1058EC007B6893F81134FA7811461846FFF7C0FC20
:1058FC0003461A467B6883F811247B68DB7B1B020A
:10590C005AB297F9033013435BB2DAB27B68DA739D
:10591C007B6893F810340133DAB27B6883F8102477
:10592C007B6893F81034012B40F005817B680422CE
:10593C009A727B68002283F81024FCE07B6893F851
:10594C001134FA7811461846FFF792FC03461A46B2
:10595C007B6883F811247B6893F813341B025AB2CA
:10596C0097F9033013435BB2DAB27B6883F81324E4
:10597C007B6893F810340133DAB27B6883F8102417
:10598C007B6893F81034012B40F0D7807B6805229C
:10599C009A727B68002283F81024CEE07B6893F81F
:1059AC0012341B025AB297F9033013435BB2DAB2CA
:1059BC007B6883F812247B6893F810340133DAB2D5
:1059CC007B6883F810247B6893F81034012B40F02B
:1059DC00B6807B6893F811341846FFF757FC0346E2
:1059EC001A467B6883F811247B6893F811247B6832
:1059FC0093F812349A4206D0484804F0EBFE7868CB
:105A0C00FFF7D7FEA0E07B68DB7B002B06D1786824
:105A1C00FFF7B8FD7868FFF7CCFE95E07B680522B0
:105A2C009A727B68002283F81024FFF71AFC034655
:105A3C001A467B6883F8112481E07B6893F8143450
:105A4C00002B08D07B6893F810340133DAB27B68F2
:105A5C0083F8102419E07B6893F81134FA78114616
:105A6C001846FFF705FC03461A467B6883F8112499
:105A7C007B6893F810345A1CD1B27A6882F81014EF
:105A8C001A467B681344FA781A747B6893F81024CE
:105A9C007B68DB7B9A4254D17868FFF773FD78689A
:105AAC00FFF787FE4DE07B6893F812341B025AB265
:105ABC0097F9033013435BB2DAB27B6883F8122494
:105ACC007B6893F810340133DAB27B6883F81024C6
