:020000040800F2
:100000000050002041A30008E16C0008E76C0008E4
:10001000ED6C0008F36C0008F96C000800000000AB
:10002000000000000000000000000000FF6C00085D
:100030000B6D000800000000176D0008236D00081C
:1000400089A3000889A3000889A3000889A30008E0
:1000500089A3000889A3000889A3000889A30008D0
:1000600089A3000889A3000889A3000889A30008C0
:10007000316D0008456D0008596D00086D6D000870
:1000800089A3000889A3000889A3000889A30008A0
:1000900089A3000889A3000889A30008816D0008CE
:1000A00089A30008916D000889A3000889A30008AE
:1000B00089A3000889A3000889A3000889A3000870
:1000C00089A3000889A3000889A3000889A3000860
:1000D00089A30008A56D000889A30008B96D000870
:1000E000CD6D000889A3000889A300080000000066
:1000F0000000000000000000000000000000000000
:0C01000000000000000000005FF808F1A3
:10010C0010B5054C237833B9044B13B10448AFF345
:10011C0000800123237010BDA4000020000000000B
:10012C0034BE000808B5034B1BB103490348AFF3B9
:10013C00008008BD00000000A800002034BE0008AC
:10014C0081F0004102E000BF83F0004330B54FEA7C
:10015C0041044FEA430594EA050F08BF90EA020FE9
:10016C001FBF54EA000C55EA020C7FEA645C7FEA7C
:10017C00655C00F0E2804FEA5454D4EB5555B8BF9F
:10018C006D420CDD2C4480EA020281EA030382EA10
:10019C00000083EA010180EA020281EA0303362DA2
:1001AC0088BF30BD11F0004F4FEA01314FF4801C75
:1001BC004CEA113102D0404261EB410113F0004F87
:1001CC004FEA03334CEA133302D0524263EB43033E
:1001DC0094EA050F00F0A780A4F10104D5F1200EDC
:1001EC000DDB02FA0EFC22FA05F2801841F1000137
:1001FC0003FA0EF2801843FA05F359410EE0A5F10B
:10020C0020050EF1200E012A03FA0EFC28BF4CF03B
:10021C00020C43FA05F3C01851EBE37101F00045F1
:10022C0007D54FF0000EDCF1000C7EEB00006EEBFE
:10023C000101B1F5801F1BD3B1F5001F0CD3490888
:10024C005FEA30004FEA3C0C04F101044FEA4452DF
:10025C0012F5800F80F09A80BCF1004F08BF5FEA66
:10026C00500C50F1000041EB045141EA050130BD46
:10027C005FEA4C0C404141EB0101013C28BFB1F558
:10028C00801FE9D291F0000F04BF01460020B1FAA3
:10029C0081F308BF2033A3F10B03B3F120020CDA76
:1002AC000C3208DD02F1140CC2F10C0201FA0CF054
:1002BC0021FA02F10CE002F11402D8BFC2F1200CB9
:1002CC0001FA02F120FA0CFCDCBF41EA0C0190406F
:1002DC00E41AA2BF01EB0451294330BD6FEA0404B8
:1002EC001F3C1CDA0C340EDC04F11404C4F12002A3
:1002FC0020FA04F001FA02F340EA030021FA04F3B5
:10030C0045EA030130BDC4F10C04C4F1200220FA0B
:10031C0002F001FA04F340EA0300294630BD21FA49
:10032C0004F0294630BD94F0000F83F4801306BF0F
:10033C0081F480110134013D4EE77FEA645C18BF03
:10034C007FEA655C29D094EA050F08BF90EA020F9A
:10035C0005D054EA000C04BF1946104630BD91EA92
:10036C00030F1EBF0021002030BD5FEA545C05D195
:10037C004000494128BF41F0004130BD14F58004D4
:10038C003CBF01F5801130BD01F0004545F0FE4148
:10039C0041F470014FF0000030BD7FEA645C1ABF7D
:1003AC00194610467FEA655C1CBF0B46024650EAB4
:1003BC00013406BF52EA033591EA030F41F40021E0
:1003CC0030BD00BF90F0000F04BF0021704730B566
:1003DC004FF4806404F132044FF000054FF000013B
:1003EC0050E700BF90F0000F04BF0021704730B5FC
:1003FC004FF4806404F1320410F0004548BF4042D1
:10040C004FF000013EE700BF42004FEAE2014FEA25
:10041C0031014FEA02701FBF12F07F4393F07F4F00
:10042C0081F06051704732F07F4208BF704793F003
:10043C007F4F04BF41F40021704730B54FF4607416
:10044C0001F0004521F000411CE700BF50EA010219
:10045C0008BF704730B54FF000050AE050EA0102C2
:10046C0008BF704730B511F0004502D5404261EB32
:10047C0041014FF4806404F132045FEA915C3FF473
:10048C00D8AE4FF003025FEADC0C18BF03325FEA10
:10049C00DC0C18BF033202EBDC02C2F1200300FAC1
:1004AC0003FC20FA02F001FA03FE40EA0E0021FAE6
:1004BC0002F11444BDE600BF80F0004002E000BF32
:1004CC0081F0004142001FBF5FEA410392EA030F33
:1004DC007FEA226C7FEA236C6AD04FEA1262D2EB7D
:1004EC001363C1BFD218414048404140B8BF5B4282
:1004FC00192B88BF704710F0004F40F4000020F01B
:10050C007F4018BF404211F0004F41F4000121F030
:10051C007F4118BF494292EA030F3FD0A2F101027A
:10052C0041FA03FC10EB0C00C3F1200301FA03F1B8
:10053C0000F0004302D5494260EB4000B0F5000FDB
:10054C0013D3B0F1807F06D340084FEA310102F19A
:10055C000102FE2A51D2B1F1004F40EBC25008BF4C
:10056C0020F0010040EA03007047490040EB000016
:10057C00013A28BFB0F5000FEDD2B0FA80FCACF117
:10058C00080CB2EB0C0200FA0CF0AABF00EBC25044
:10059C0052421843BCBFD0401843704792F0000F32
:1005AC0081F4000106BF80F400000132013BB5E785
:1005BC004FEA41037FEA226C18BF7FEA236C21D0FB
:1005CC0092EA030F04D092F0000F08BF0846704760
:1005DC0090EA010F1CBF0020704712F07F4F04D12E
:1005EC00400028BF40F00040704712F100723CBF41
:1005FC0000F50000704700F0004343F0FE4040F46B
:10060C00000070477FEA226216BF08467FEA236328
:10061C000146420206BF5FEA412390EA010F40F413
:10062C00800070474FF0000304E000BF10F000435F
:10063C0048BF40425FEA000C08BF704743F0964346
:10064C0001464FF000001CE050EA010208BF704761
:10065C004FF000030AE000BF50EA010208BF7047E8
:10066C0011F0004302D5404261EB41015FEA010CFD
:10067C0002BF84460146002043F0B64308BFA3F1F5
:10068C008053A3F50003BCFA8CF2083AA3EBC253D7
:10069C0010DB01FA02FC634400FA02FCC2F12002F6
:1006AC00BCF1004F20FA02F243EB020008BF20F02D
:1006BC000100704702F1200201FA02FCC2F1200293
:1006CC0050EA4C0021FA02F243EB020008BF20EA88
:1006DC00DC7070474FF0FF0C1CEAD0521EBF1CEAB6
:1006EC00D15392EA0C0F93EA0C0F6FD01A4480EAA4
:1006FC00010C400218BF5FEA41211ED04FF000638D
:10070C0043EA501043EA5111A0FB01310CF00040B8
:10071C00B1F5000F3EBF490041EAD3715B0040EADE
:10072C00010062F17F02FD2A1DD8B3F1004F40EBAE
:10073C00C25008BF20F00100704790F0000F0CF081
:10074C00004C08BF49024CEA502040EA51207F3A45
:10075C00C2BFD2F1FF0340EAC250704740F4000020
:10076C004FF00003013A5DDC12F1190FDCBF00F011
:10077C0000407047C2F10002410021FA02F1C2F1BF
:10078C00200200FA02FC5FEA310040F1000053EA5B
:10079C004C0308BF20EADC70704792F0000F00F0A9
:1007AC00004C02BF400010F4000F013AF9D040EAAF
:1007BC000C0093F0000F01F0004C02BF490011F443
:1007CC00000F013BF9D041EA0C018FE70CEAD15341
:1007DC0092EA0C0F18BF93EA0C0F0AD030F0004CC1
:1007EC0018BF31F0004CD8D180EA010000F0004075
:1007FC00704790F0000F17BF90F0004F084691F033
:10080C00000F91F0004F14D092EA0C0F01D142026C
:10081C000FD193EA0C0F03D14B0218BF084608D135
:10082C0080EA010000F0004040F0FE4040F400007F
:10083C00704740F0FE4040F4400070474FF0FF0C12
:10084C001CEAD0521EBF1CEAD15392EA0C0F93EA59
:10085C000C0F69D0A2EB030280EA010C49024FEAAB
:10086C00402037D04FF0805343EA111143EA101364
:10087C000CF000408B4238BF5B0042F17D024FF41C
:10088C00000C8B4224BF5B1A40EA0C00B3EB510FF7
:10089C0024BFA3EB510340EA5C00B3EB910F24BFE0
:1008AC00A3EB910340EA9C00B3EBD10F24BFA3EB65
:1008BC00D10340EADC001B0118BF5FEA1C1CE0D12D
:1008CC00FD2A3FF650AF8B4240EBC25008BF20F0E0
:1008DC00010070470CF0004C4CEA50207F32C2BF34
:1008EC00D2F1FF0340EAC250704740F400004FF0D1
:1008FC000003013A37E792F0000F00F0004C02BF02
:10090C00400010F4000F013AF9D040EA0C0093F0CB
:10091C00000F01F0004C02BF490011F4000F013B25
:10092C00F9D041EA0C0195E70CEAD15392EA0C0F8D
:10093C0008D142027FF47DAF93EA0C0F7FF470AFC5
:10094C00084676E793EA0C0F04D14B023FF44CAF08
:10095C0008466EE730F0004C18BF31F0004CCAD19D
:10096C0030F000427FF45CAF31F000437FF43CAFD9
:10097C005FE700BF4FF0FF3C06E000BF4FF0010CFB
:10098C0002E000BF4FF0010C4DF804CD4FEA4002DD
:10099C004FEA41037FEA226C18BF7FEA236C11D027
:1009AC0001B052EA530C18BF90EA010F58BFB2EBDA
:1009BC00030088BFC81738BF6FEAE17018BF40F05A
:1009CC00010070477FEA226C02D15FEA402C05D10E
:1009DC007FEA236CE4D15FEA412CE1D05DF8040B93
:1009EC00704700BF844608466146FFE70FB5FFF726
:1009FC00C9FF002848BF10F1000F0FBD4DF808EDDE
:100A0C00FFF7F4FF0CBF012000205DF808FB00BFCE
:100A1C004DF808EDFFF7EAFF34BF012000205DF828
:100A2C0008FB00BF4DF808EDFFF7E0FF94BF012075
:100A3C0000205DF808FB00BF4DF808EDFFF7D2FF72
:100A4C0094BF012000205DF808FB00BF4DF808EDB5
:100A5C00FFF7C8FF34BF012000205DF808FB00BF82
:100A6C004FEA4002B2F1FE4F0FD34FF09E03B3EBAF
:100A7C0012620DD94FEA002343F0004310F0004FEF
:100A8C0023FA02F018BF404270474FF00000704745
:100A9C0012F1610F01D1420205D110F0004008BFE4
:100AAC006FF0004070474FF00000704742000ED2CC
:100ABC00B2F1FE4F0BD34FF09E03B3EB126209D48D
:100ACC004FEA002343F0004323FA02F070474FF043
:100ADC000000704712F1610F01D1420202D14FF0B8
:100AEC00FF3070474FF00000704700BF4FEA4002E4
:100AFC004FEA41037FEA226C02D15FEA402C08D115
:100B0C007FEA236C02D15FEA412C02D14FF0000046
:100B1C0070474FF00100704770B500260C4D0D4C1E
:100B2C00641BA410A64209D10BF07EF900260A4DD5
:100B3C000A4C641BA410A64205D170BD55F8043BA9
:100B4C0098470136EEE755F8043B98470136F2E733
:100B5C00A8CB0008A8CB0008A8CB0008ACCB000899
:100B6C0003460244934200D1704703F8011BF9E796
:100B7C0080B582B000AF00237B600FE00B4A7B682E
:100B8C0052F8332009497B68DB000B445B6819463B
:100B9C00104606F041FA7B6801337B607B68052BBD
:100BAC00ECD900BF00BF0837BD4680BD64000020F3
:100BBC0080B485B000AF786039607B68052B27D88E
:100BCC00164A7B6852F83330FB60144A7B68DB00B2
:100BDC0013445B68BB60BB68002B04D1FB681B68CB
:100BEC003A685A6315E0BB68042B04D1FB681A6899
:100BFC003B6893630DE0BB68082B04D1FB681A6853
:100C0C003B68D36305E0FB681A683B68136400E03B
:100C1C0000BF1437BD4680BC704700BF6400002085
:100C2C0080B584B000AF0346FB71FB79342202FB24
:100C3C0003F3134A1344FB60FB79012202FA03F31A
:100C4C00DB431A460F4B1B6813400E4A1360FB68BC
:100C5C001B6B002B07D0FB681B6BFA79104698476F
:100C6C00FB6800221A63084B1B68002B04D0064B50
:100C7C001B68FA791046984700BF1037BD4680BDF7
:100C8C00C0000020F8010020FC010020B0B588B0A5
:100C9C0000AF214B3C461D460FCD0FC495E8030019
:100CAC0084E803000023FB6128E0FB69342202FB8B
:100CBC0003F31A4A1344BB61BB6939461822184620
:100CCC0009F064FBBB695A68BB699A61BB695A68D5
:100CDC00BB69DA61BB695A68BB691A62BB690022DD
:100CEC005A62BB6900229A62BB69002283F82C20ED
:100CFC00BB6900221A63FB690133FB61FB69052B9D
:100D0C00D3DD074B00221A60064B00221A6000BF8D
:100D1C002037BD46B0BD00BF4CBE0008C00000204F
:100D2C00F8010020FC01002080B483B000AF786093
:100D3C00034A7B68136000BF0C37BD4680BC70470C
:100D4C00FC01002090B589B000AF03463960FB71FF
:100D5C00FB79052B02D940F2DC5370E0FB7934228D
:100D6C0002FB03F3384A1344BB61BB697B617B69AB
:100D7C00DB6819463868FFF74BFE0346002B03D09F
:100D8C007B69DB683B600BE07B695B691946386803
:100D9C00FFF75CFE0346002B02D07B695B693B606E
:100DAC007B695A697B69DB6819461046FFF788FB3B
:100DBC0003463B6125493869FFF72AFE0346002BA1
:100DCC0002D07B695B683AE07B69DB68194638685E
:100DDC00FFF776FB034639691846FFF72FFD0346EC
:100DEC00FB614FF00001F869FFF712FE0346002B80
:100DFC0002D04FF00003FB614FF07E51F869FFF712
:100E0C0025FE0346002B02D04FF07E53FB617B691D
:100E1C009A687B691B68D31AFB607B691C68F8684D
:100E2C00FFF700FC0346F9691846FFF753FC03462D
:100E3C001846FFF73BFE03462344BB60BB681846CD
:100E4C002437BD4690BD00BFC00000206F12833A0E
:100E5C0090B589B000AF03463960FB71FB79052B67
:100E6C0001D92C4B52E0FB79342202FB03F32A4AC2
:100E7C001344FB61FB69BB61BB691B683A689A420E
:100E8C0002D2BB691B683B60BB699B683A689A429B
:100E9C0002D9BB699B683B60BB699A68BB691B68DC
:100EAC00D31A1846FFF7BEFB03467B611B497869D2
:100EBC00FFF7AEFD0346002B02D0BB691B6925E092
:100ECC00BB691B683A68D31A1846FFF7ABFB03469D
:100EDC0079691846FFF7B2FC03463B61BB695A6956
:100EEC00BB69DB6819461046FFF7EAFA0346FB605C
:100EFC00BB69DC68F9683869FFF7ECFB03461946F7
:100F0C002046FFF7DFFA0346BB60BB681846243760
:100F1C00BD4690BD00000743C00000206F12833A0D
:100F2C0080B586B000AFB9607A603B600346FB7356
:100F3C00FB7B052B45D8FB7B342202FB03F3234AB6
:100F4C0013447B617B693B613B691B68BA689A42BD
:100F5C0002D23B691B68BB603B699B68BA689A42CA
:100F6C0002D93B699B68BB607B699B69BA689A42F2
:100F7C0008D17B69002283F82C20FB7B1846FFF7F5
:100F8C004FFE1FE07B699A697B691A627B69BA68BC
:100F9C00DA617B697A685A627B697A689A627B69E2
:100FAC00012283F82C207B693A681A63FB7B0122AF
:100FBC0002FA03F31A46064B1B681343044A1360E8
:100FCC0000E000BF1837BD4680BD00BFC000002048
:100FDC00F801002080B586B000AFB9607A603B6044
:100FEC000346FB73FB7B052B0CD8FB7BB9681846BF
:100FFC00FFF7A8FE7861F87B3B687A687969FFF7A0
:10100C008FFF00E000BF1837BD4680BD80B586B0AD
:10101C0000AF0346B9607A60FB73FB7B052B0ED8DF
:10102C00FB7B342202FB03F3074A13447B617B698D
:10103C005968F87B7B68BA68FFF772FF00E000BF65
:10104C001837BD4680BD00BFC000002080B582B0FF
:10105C0000AF0023FB7110E0FB79342202FB03F399
:10106C000A4A13443B60FA793B689B69194610465F
:10107C00FFF79EFDFB790133FB71FB79052BEBD957
:10108C0000BF00BF0837BD4680BD00BFC0000020B8
:10109C0080B586B000AFF860B9603B601346FB7159
:1010AC00FB68002B1DD0BB68002B1AD0FB79002BE2
:1010BC0017D00023FB750FE0FB7DFA6813441878FA
:1010CC00FB7D9B00BA68134419683B6A3A68FFF7CA
:1010DC0081FFFB7D0133FB75FA7DFB799A42EBD3E3
:1010EC0000E000BF1837BD4680BD000080B584B05D
:1010FC0000AF0346FB71FB79052B17D8FB79342223
:10110C0002FB03F30B4A1344FB60FB6893F82C308F
:10111C00002B0CD0FB68002283F82C20FB680022EB
:10112C009A62FB791846FFF77BFD00E000BF103791
:10113C00BD4680BDC000002080B485B000AF034622
:10114C00FB71FB79052B10D8FB79342202FB03F3DE
:10115C00084A1344FB60FB6893F82C30002B05D035
:10116C00FB68002283F82C2000E000BF1437BD463A
:10117C0080BC7047C000002080B485B000AF03462F
:10118C00FB71FB79052B13D8FB79342202FB03F39B
:10119C000A4A1344FB60FB6893F82C3083F001037C
:1011AC00DBB2002B05D0FB68012283F82C2000E079
:1011BC0000BF1437BD4680BC704700BFC000002084
:1011CC0080B582B000AF0023FB7106E0FB791846B6
:1011DC00FFF78CFFFB790133FB71FB79052BF5D9FC
:1011EC0000BF00BF0837BD4680BD000080B582B08F
:1011FC0000AF0023FB711BE0FB79342202FB03F3ED
:10120C000F4A13443B603B68002283F82C203B6858
:10121C0000229A623B685A683B689A61FA793B688B
:10122C005B6819461046FFF7C3FCFB790133FB7171
:10123C00FB79052BE0D900BF00BF0837BD4680BD48
:10124C00C000002080B483B000AF0346FB71FB7973
:10125C00052B01D9002307E0FB79064A342101FB59
:10126C0003F313442C331B7818460C37BD4680BC53
:10127C00704700BFC000002080B400AF024B1B6859
:10128C001846BD4680BC7047F801002080B483B07E
:10129C0000AF0346FB71FB79052B02D940F2DC53FE
:1012AC0007E0FB79054A342101FB03F3134418339F
:1012BC001B6818460C37BD4680BC7047C000002028
:1012CC0080B582B000AF0346FB71FB79052B01D9C9
:1012DC00094B0DE0FB79094A342101FB03F313445C
:1012EC001C331A68FB7911461846FFF7B1FD03460B
:1012FC0018460837BD4680BD00000743C0000020DB
:10130C0080B483B000AF0346FB71FB79052B01D988
:10131C00002307E0FB79064A342101FB03F3134455
:10132C0028331B6818460C37BD4680BC704700BF7D
:10133C00C000002090B583B000AF78604FF07C51B6
:10134C0078680AF097F8786079687868FFF7C2F9DE
:10135C0003461C467B6819461846FFF7B3F803464C
:10136C0019460648FFF7ACF8034619462046FFF726
:10137C00B1F9034618460C37BD4690BD00004040FD
:10138C0090B587B000AF0023FB757AE0FB7D34226B
:10139C0002FB03F33F4A13443B613B6993F82C3047
:1013AC0083F00103DBB2002B67D13B699B6A002BF6
:1013BC0004D03B699B6A5A1E3B699A623B699B6AE3
:1013CC00002B13D13B69DA693B699A613B690022B6
:1013DC0083F82C20FA7D3B69DB6919461046FFF730
:1013EC00E7FBFB7D1846FFF71BFC47E03B699B6A5C
:1013FC001846FFF717F904463B695B6A1846FFF776
:10140C0011F9034619462046FFF718FA0346194608
:10141C004FF07E50FFF754F80346FB60F868FFF777
:10142C0089FFF8603B69DB691A463B691B6AD31A72
:10143C00BB603B691B6A1C46B868FFF7F7F80346AC
:10144C00F9681846FFF746F903461846FFF708FBFC
:10145C00034623447B607B6823EAE3733B603B6970
:10146C009B693A689A4209D03B693A689A61FB7D5C
:10147C0039681846FFF79CFB00E000BFFB7D013389
:10148C00FB75FB7D052B81D900BF00BF1C37BD460A
:10149C0090BD00BFC000002080B500AF1822002115
:1014AC000748FFF75DFBA02200210648FFF758FB19
:1014BC00054B01221A600548FFF736FC00BF80BDC2
:1014CC00000200201802002094000020991500084A
:1014DC0080B483B000AF00237B6018E010497A68B9
:1014EC0013469B0013449B000B440C331B7883F076
:1014FC000103DBB2002B07D07A6813469B00134420
:10150C009B00074A134406E07B6801337B607B68D1
:10151C00072BE3DD002318460C37BD4680BC704713
:10152C001802002080B485B000AF78600023FB6007
:10153C0020E01549FA6813469B0013449B000B44AA
:10154C000C331B78002B12D00F49FA6813469B0002
:10155C0013449B000B441B687A689A4207D1FA68C3
:10156C0013469B0013449B00074A134406E0FB6898
:10157C000133FB60FB68072BDBDD002318461437B7
:10158C00BD4680BC704700BF1802002080B584B0F7
:10159C0000AF0346FB71FB79052B37D8FB791F4A4B
:1015AC0052F82330FB60FB68002B31D0F868FFF752
:1015BC00B9FFB860BB68002B2CD0BB681B7B83F0D9
:1015CC000103DBB2002B25D1BB689A68FB790121A2
:1015DC0001FA03F31A43BB689A60FB790F4A0021A6
:1015EC0042F82310BB689A68BB685B689A4212D1B8
:1015FC00BB6800221A73BB681B69002B0BD0BB683D
:10160C001B69BA6812681046984704E000BF02E0F4
:10161C0000BF00E000BF1037BD4680BD00020020B7
:10162C0080B483B000AF0346FB71FB79052B01D965
:10163C00002308E0FB79064A52F82330002B0CBF3C
:10164C0001230023DBB218460C37BD4680BC704723
:10165C000002002080B586B000AF78600B46FB70AE
:10166C007B68002B02D0FB78002B01D1002359E0C2
:10167C00FFF72EFFF860FB68002B01D1002351E02F
:10168C0000237B610023FB741FE0FB7C7A6813440E
:10169C001B78FB72FB7A052B01D9002342E0FB7A05
:1016AC001846FFF7BDFF034683F00103DBB2002BA6
:1016BC0001D0002336E0FB7A012202FA03F37A69A7
:1016CC0013437B61FB7C0133FB74FA7CFB789A42FD
:1016DC00DBD3164B1B685A1C14490A60FA6813605A
:1016EC00FB687A695A60FB6800229A60FB680122E9
:1016FC001A73FB6800221A610023BB740CE0BB7CDC
:10170C007A6813441B781946FB681B68084A42F830
:10171C002130BB7C0133BB74BA7CFB789A42EED38C
:10172C00FB681B6818461837BD4680BD9400002026
:10173C000002002080B584B000AF78607868FFF7B5
:10174C00F1FEB860BB68002B01D100231EE0002322
:10175C00FB7314E0BB685A68FB7B012101FA03F3AD
:10176C001340002B08D0FB7B1846FFF7BFFCFB7B1C
:10177C00084A002142F82310FB7B0133FB73FB7BEF
:10178C00052BE7D9BB6800221A73012318461037C2
:10179C00BD4680BD0002002080B584B000AF7860EB
:1017AC007868FFF7BFFEB860BB68002B01D100233F
:1017BC0016E00023FB730FE0BB685A68FB7B01212A
:1017CC0001FA03F31340002B03D0FB7B1846FFF701
:1017DC00D3FCFB7B0133FB73FB7B052BECD9012387
:1017EC0018461037BD4680BD80B584B000AF786018
:1017FC007868FFF797FEB860BB68002B01D1002317
:10180C0016E00023FB730FE0BB685A68FB7B0121D9
:10181C0001FA03F31340002B03D0FB7B1846FFF7B0
:10182C008BFCFB7B0133FB73FB7B052BECD901237E
:10183C0018461037BD4680BD80B584B000AF7860C7
:10184C007868FFF76FFEF860FB68002B06D0FB682A
:10185C001B7B83F00103DBB2002B01D0012300E0E2
:10186C00002303F00103DBB218461037BD4680BDE0
:10187C0080B584B000AF78607868FFF753FEF860ED
:10188C00FB68002B02D0FB685B6800E00023184665
:10189C001037BD4680BD80B588B000AFF860B96028
:1018AC003B601346FB71FB791946F868FFF7D2FED3
:1018BC00B861BB69002B01D1002321E0B869FFF7A7
:1018CC0031FE78617B69002B02D07B69BA6A1A61A0
:1018DC000023FB770FE0FB7FFA6813441878FB7F3B
:1018EC009B00BA681344196800233A68FFF772FB2F
:1018FC00FB7F0133FB77FA7FFB799A42EBD3BB6911
:10190C0018462037BD4680BD80B588B000AFF86062
:10191C00B9603B601346FB71FB791946F868FFF719
:10192C0099FEB861BB69002B01D1002321E0B86995
:10193C00FFF7F8FD78617B69002B02D07B69BA6AEE
:10194C001A610023FB770FE0FB7FFA6813441878C9
:10195C00FB7F9B00BA681344196800233A68FFF7B1
:10196C00DFFAFB7F0133FB77FA7FFB799A42EBD3EB
:10197C00BB6918462037BD4680BD000080B485B0D9
:10198C0000AF78600023FB6028E0194AFB68342123
:10199C0001FB03F3134424331B78002B1BD0144A94
:1019AC00FB68342101FB03F3134425331B78002B14
:1019BC0011D00F4AFB68342101FB03F313442C3381
:1019CC001B687A689A4206D1FB68342202FB03F347
:1019DC00074A134406E0FB680133FB60FB68052BE8
:1019EC00D3DD002318461437BD4680BC704700BFBA
:1019FC00B802002080B483B000AF00237B6011E0FC
:101A0C000D4A7B68342101FB03F3134424331B7808
:101A1C0083F00103DBB2002B01D07B6807E07B680D
:101A2C0001337B607B68052BEADD4FF0FF331846F2
:101A3C000C37BD4680BC7047B802002090B587B00B
:101A4C0000AF78607868FFF799FFF860FB68002BAF
:101A5C0062D0FB6893F8253083F00103DBB2002BD6
:101A6C005AD100237B6100233B610EE03B69342299
:101A7C0002FB03F32B4A1344FA689A4202D13B69E6
:101A8C007B6105E03B6901333B613B69052BEDDD77
:101A9C00FB681B6A5A1CFB681A62FB681A6AFB68B3
:101AAC001B699A4233D3FB6800221A62FB689B6A5B
:101ABC005A1CFB689A62FB681B6B002B08D0FB68F6
:101ACC001C6BFB68996AFB685A6900237869A0470C
:101ADC00FB685B69002B1AD0FB689A6AFB685B6930
:101AEC009A4214D3FB68002283F82520FB6800225D
:101AFC00DA62FB681B6B002B10D0FB681C6BFB685D
:101B0C00996AFB685A6901237869A04706E07969EC
:101B1C00F86800F009F802E000BF00E000BF1C37D5
:101B2C00BD4690BDB802002090B587B002AF78607A
:101B3C0039607B681B6AFB607B68DA68FB689B001A
:101B4C0013441B68BB607B681B7E002B13D17B6826
:101B5C0018687B689A68FB689B00134419687B685B
:101B6C005B68DAB2164B0093BB68FFF7CDFE0246FA
:101B7C007B68DA6212E07B6818687B689A68FB689D
:101B8C009B00134419687B685B68DAB20C4B0093BA
:101B9C00BB68FFF780FE02467B68DA627B681B6BD2
:101BAC00002B08D07B681C6B7B68996A7B685A6930
:101BBC0000233868A04700BF1437BD4690BD00BF56
:101BCC00491A000880B584B000AF786039607B6832
:101BDC00002B02D14FF0FF333FE07B681B68002BDA
:101BEC0002D14FF0FF3338E07B68DB68002B02D169
:101BFC004FF0FF3331E07B685B68002B03D07B68D0
:101C0C001B69002B02D14FF0FF3326E0FFF7F2FEE9
:101C1C00F860FB68002B02DA4FF0FF331DE0FB6825
:101C2C00342202FB03F30F4A1344BB60342200211D
:101C3C00B868FEF795FFBB6820227968184608F053
:101C4C00A5FBBB683A681A63BB68012283F82420A1
:101C5C00BB68002283F82520FB6818461037BD4668
:101C6C0080BD00BFB802002090B585B000AF786091
:101C7C007B68052B02D94FF0FF3334E07B683422AC
:101C8C0002FB03F31A4A1344FB60FB6893F82430FD
:101C9C0083F00103DBB2002B04D1FB6893F82530F1
:101CAC00002B02D04FF0FF331DE0FB6800221A62BC
:101CBC00FB6800229A62FB680022DA62FB68012250
:101CCC0083F82520FB681B6B002B07D0FB681C6B73
:101CDC00FB685A69002300217868A0477968F86886
:101CEC00FFF722FF002318461437BD4690BD00BFF6
:101CFC00B802002090B585B000AF78607B68052BEA
:101D0C0002D94FF0FF3333E07B68342202FB03F33C
:101D1C00194A1344FB60FB6893F8243083F00103E9
:101D2C00DBB2002B02D04FF0FF3321E0FB6893F8BD
:101D3C002530002B03D1FB68DB6A002B02D14FF05E
:101D4C00FF3315E0FB68DB6A1846FFF725FDFB68DF
:101D5C00012283F82520FB681B6B002B07D0FB6846
:101D6C001C6BFB685A69002300217868A04700238C
:101D7C0018461437BD4690BDB802002090B585B00A
:101D8C0000AF78607B68052B02D94FF0FF3330E051
:101D9C007B68342202FB03F3184A1344FB60FB6894
:101DAC0093F8243083F00103DBB2002B07D1FB68DE
:101DBC0093F8253083F00103DBB2002B02D04FF0F7
:101DCC00FF3316E0FB68DB6A1846FFF70DFDFB6876
:101DDC00002283F82520FB681B6B002B08D0FB68C6
:101DEC001C6BFB68996AFB685A6900237868A047EA
:101DFC00002318461437BD4690BD00BFB802002022
:101E0C0090B585B000AF78607B68052B02D94FF098
:101E1C00FF333CE07B68342202FB03F31E4A13447D
:101E2C00FB60FB6893F8243083F00103DBB2002BDA
:101E3C0002D04FF0FF332AE0FB6893F82530002BDB
:101E4C000BD0FB68DB6A1846FFF774FCFB680022BA
:101E5C00DA62FB68002283F82520FB68002283F8F5
:101E6C002420FB681B6B002B0BD0FB681C6BFB68E6
:101E7C00996AFB685A6901237868A047FB680022BD
:101E8C001A6334220021F868FEF76AFE0023184614
:101E9C001437BD4690BD00BFB802002080B485B099
:101EAC0000AF786039607B68052B01D9002335E0E1
:101EBC007B68342202FB03F31B4A1344FB60FB6870
:101ECC0093F8243083F00103DBB2002B01D0002304
:101EDC0024E0FB6893F824203B681A70FB6893F8A5
:101EEC0025203B685A70FB681B6ADAB23B689A7013
:101EFC00FB681B69DAB23B68DA70FB689A6A3B686C
:101F0C005A60FB685A693B689A60FB68DA6A3B68FE
:101F1C00DA60FB68DA693B681A61012318461437EA
:101F2C00BD4680BC704700BFB802002080B485B0AD
:101F3C0000AF786039607B68052B01D9002314E071
:101F4C007B68342202FB03F30A4A1344FB60FB68F0
:101F5C0093F8243083F00103DBB2002B01D0002373
:101F6C0003E0FB683A68DA61012318461437BD4672
:101F7C0080BC7047B802002080B485B000AF786098
:101F8C007B68052B01D9002312E07B68342202FB0D
:101F9C0003F30A4A1344FB60FB6893F8243083F084
:101FAC000103DBB2002B01D0002301E0FB68DB69ED
:101FBC0018461437BD4680BC704700BFB8020020DD
:101FCC0080B582B000AF03F07DF978607B68002BA0
:101FDC0001D1002356E00123FB702C4A01217868C3
:101FEC0003F0D0FA03461A46FB781340002B14BFBB
:101FFC0001230023FB70264A1021786803F0C2FAF3
:10200C0003461A46FB781340002B14BF0123002310
:10201C00FB70204A1121786803F0B4FA03461A4683
:10202C00FB781340002B14BF01230023FB701A4ACA
:10203C001221786803F0A6FA03461A46FB7813407F
:10204C00002B14BF01230023FB70144A1321786862
:10205C0003F098FA03461A46FB781340002B14BF82
:10206C0001230023FB700E4AE021786803F08AFA02
:10207C0003461A46FB781340002B14BF01230023A0
:10208C00FB70FB7818460837BD4680BD4D21000813
:10209C003124000897290008FD330008754000081A
:1020AC002942000890B5C7B002AF07F58873A3F5B5
:1020BC0088731960114607F58873A3F20913024659
:1020CC001A7007F58873A3F586730A461A8007F50C
:1020DC008873A3F5837300221A8007F10C0407F5AB
:1020EC008873A3F586731A8807F58873A3F588712E
:1020FC0007F58873A3F20913187807F10A03019303
:10210C0040F2011300932346096802F0B2F903462A
:10211C0083F00103DBB2002B01D000230BE007F5A9
:10212C008873A3F583731A8807F10C031946D02022
:10213C0003F06CF80346184607F58A77BD4690BD48
:10214C0080B586B000AF786039603B68002B01D158
:10215C0000231DE03B6858683B681B7A9BB207F173
:10216C000C02194602F0B4F8034683F00103DBB20B
:10217C00002B01D000230BE03B7B3969BA8A18464F
:10218C0000F00AF80346002B01D0012300E00023E5
:10219C0018461837BD4680BD80B5ADF50A7D02AF37
:1021AC0007F50873A3F508731960114607F5087352
:1021BC00A3F2192302461A7007F50873A3F50773E7
:1021CC000A461A8007F50873A3F219231B78013B02
:1021DC00052B00F2B28001A252F823F00122000874
:1021EC0057220008432300085F2200083F23000801
:1021FC005B2200080023A7F8163207F5887007F554
:10220C000873A3F507731A8807F50873A3F508710B
:10221C0007F21623019340F2011300930346096859
:10222C00022002F026F9034683F00103DBB2002BF7
:10223C0001D0002382E0B7F8162207F588731946FF
:10224C00012002F0E3FF034678E0012376E001234E
:10225C0074E03D4BC7F81832002387F81F3204E0B6
:10226C0097F81F32013387F81F3297F81F32D7F8CF
:10227C00182213441B78002B03D097F81F32FC2B29
:10228C00EED907F50873A3F5887301221A7007F5C8
:10229C000873A3F5887300225A7007F50873A3F529
:1022AC00887397F81F229A70002387F81E3212E069
:1022BC0097F81E32D7F818221A4497F81E320333B7
:1022CC00117807F50872A2F58872D15497F81E326E
:1022DC00013387F81E3297F81E2297F81F329A4264
:1022EC00E6D30023A7F8143297F81F329BB20333BE
:1022FC009AB207F10C0007F5887107F50573019385
:10230C0040F2011300930346052002F0B2F8034695
:10231C0083F00103DBB2002B01D000230EE0B7F8F1
:10232C00142207F10C031946012002F06FFF03463B
:10233C0004E0012302E0012300E00023184607F526
:10234C000877BD4680BD00BF64BE000880B58EB066
:10235C0000AF03460A46FB711346BB71FB793B7316
:10236C00BB793B61BB791846FEF76CFF0346002B2B
:10237C0001D0012300E000233B75BB791846FEF722
:10238C0085FF0346BB61BB791846FEF799FF0346F0
:10239C00FB61BB791846FEF7B3FF03463B6207F1BE
:1023AC00240107F10C031222184602F037F90346F8
:1023BC00FB86FB8E002B01D1002307E0FA8E07F180
:1023CC00240319460220FFF76DFE034618463837E2
:1023DC00BD4680BD80B582B000AF0346FB71FB7972
:1023EC00052B17D8FB7901229A400D4B1B68134023
:1023FC00002B11D0FB79012202FA03F3DA43084BCC
:10240C001B681340064A1360FB7919460620FFF738
:10241C009DFF02E000BF00E000BF0837BD4680BD55
:10242C00F003002080B586B000AF786039603B685F
:10243C00002B01D1002318E03B6858683B681B7ADD
:10244C009BB207F10C02194601F042FF034683F0E0
:10245C000103DBB2002B01D0002306E03B7B396982
:10246C00BA8A184600F006F8012318461837BD46FC
:10247C0080BD000090B593B002AF03463960FB718C
:10248C001346BB80FB79013B062B00F2D98101A2DC
:10249C0052F823F0BD240008012500087925000816
:1024AC0017260008532700080D280008BB26000833
:1024BC00AB4808F0EFF8BB881A46AA49AA4808F0BE
:1024CC004FF80023FB870AE0FB8F3A6813441B7814
:1024DC001946A64808F044F8FB8F0133FB87FA8FA6
:1024EC00BB889A42F0D30A2008F052F8FEF7AEFDF2
:1024FC000123A6E19E4808F0CDF8BB881A469949FD
:10250C00994808F02DF80023BB870AE0BB8F3A6886
:10251C0013441B781946954808F022F8BB8F0133F9
:10252C00BB87BA8FBB889A42F0D30A2008F030F8E8
:10253C00BB88012B16D13B681B7887F82F3097F896
:10254C002F30052B01D900237BE197F82F3019464A
:10255C00884808F005F897F82F301846FEF7C6FDA6
:10256C0001236EE1FEF742FE01236AE1824808F086
:10257C0091F8BB881A467B497B4807F0F1FF002392
:10258C007B870AE07B8F3A6813441B78194677489F
:10259C0007F0E6FF7B8F01337B877A8FBB889A42EB
:1025AC00F0D30A2007F0F4FF07F12002BB8819468C
:1025BC00386801F0B6FF034683F00103DBB2002B51
:1025CC0001D000233DE197F82030052B01D90023E1
:1025DC0037E197F8203019467A6ABB6A674807F0EA
:1025EC00BFFF97F82000796ABA6A654BFEF798FC32
:1025FC0097F820301A46012303FA02F2614B1B684C
:10260C001343604A136001231BE15F4808F042F852
:10261C00BB881A465349544807F0A2FF00233B8756
:10262C000AE03B8F3A6813441B7819464F4807F071
:10263C0097FF3B8F01333B873A8FBB889A42F0D38D
:10264C000A2007F0A5FF07F11402BB881946386869
:10265C0001F098FF034683F00103DBB2002B01D09D
:10266C000023EEE03B7D052B01D90023E9E03B7D07
:10267C001C46BB691846FDF7C7FE02460B46F969B6
:10268C0000912146414807F06BFF387DB969FA6922
:10269C003B4BFEF79FFC3B7D1A46012303FA02F2EB
:1026AC00384B1B681343374A13600123C9E0384881
:1026BC0007F0F0FFBB881A462A492B4807F050FF59
:1026CC000023FB860AE0FB8E3A6813441B781946FC
:1026DC00264807F045FFFB8E0133FB86FA8EBB883C
:1026EC009A42F0D30A2007F053FF07F11002BB887F
:1026FC001946386801F077FF034683F00103DBB21B
:10270C00002B01D000239CE0002387F8353014E027
:10271C00396997F835301A4A1846FEF777FC97F85E
:10272C00353001229A40174B1B681343154A13602E
:10273C0097F83530013387F8353097F83530052B5D
:10274C00E6D901237DE0134807F0A4FFBB881A46A5
:10275C000449054807F004FF00237B8627E000BFEF
:10276C006CBE000880BE000888BE0008A0BE000831
:10277C00A8BE0008BCBE0008CCBE0008E0BE000825
:10278C00E1230008F003002004BF000818BF000874
:10279C0040BF000854BF00087B8E3A6813441B7876
:1027AC0019462A4807F0DCFE7B8E01337B867A8E35
:1027BC00BB889A42F0D30A2007F0EAFE0023FB7391
:1027CC0007F10F02BB881946386801F08EFE0346EC
:1027DC0083F00103DBB2002B01D0002331E0FB7B43
:1027EC00052B01D900232CE0FB7B1946184807F078
:1027FC00B7FEFB7B19460520FFF7A8FD034620E03A
:10280C00144807F047FFBB881A461349134807F0D2
:10281C00A7FE00233B860AE03B8E3A6813441B78E4
:10282C0019460A4807F09CFE3B8E01333B863A8ED4
:10283C00BB889A42F0D30A2007F0AAFE012300E0DD
:10284C00002318464437BD4690BD00BFA0BE00080B
:10285C00BCBE00086CBF000880BE000888BE000823
:10286C0080B582B000AF78600B467B807B881A46BF
:10287C0079680320FFF716FC034618460837BD4657
:10288C0080BD80B586B000AF786001233B727B6859
:10289C00FB6007F1100107F108030522184601F04F
:1028AC007AFF0346FB82FB8A002B01D1002307E051
:1028BC00FA8A07F1100311461846FFF7D1FF0346B9
:1028CC0018461837BD4680BD80B588B000AF0346AA
:1028DC003960FB711346BB71FB793B733B683B6101
:1028EC00BB793B7507F1180107F10C03062218465A
:1028FC0001F073FF0346FB83FB8B002B01D10023FC
:10290C0007E0FA8B07F1180311461846FFF7A8FFEA
:10291C00034618462037BD4680BD80B58CB000AF4D
:10292C00F860B9601346FB7106233B75FB68BB610D
:10293C00BB68FB61FB7987F8203007F1240107F1B4
:10294C0014030A22184601F06FFF0346FB85FB8D2A
:10295C00002B01D1002307E0FA8D07F12403114667
:10296C001846FFF77DFF034618463037BD4680BD3D
:10297C0080B582B000AF7860012279680720FFF73C
:10298C00A3FF00BF0837BD4680BD80B586B000AF41
:10299C00786039603B68002B01D1002318E03B685C
:1029AC0058683B681B7A9BB207F10C02194601F080
:1029BC008FFC034683F00103DBB2002B01D0002314
:1029CC0006E03B7B3969BA8A184600F005F801230A
:1029DC0018461837BD4680BDF0B5A1B002AF03460E
:1029EC003960FB711346BB80FB79013B062B00F26F
:1029FC005D8201A252F823F0212A0008D92B00088D
:102A0C00572C0008D52C0008252E0008852D000811
:102A1C006F2E0008B34807F03DFEBB881A46B2493A
:102A2C00B24807F09DFD0023A7F876300DE0B7F80B
:102A3C0076303A6813441B781946AD4807F090FD80
:102A4C00B7F876300133A7F87630B7F87620BB8824
:102A5C009A42ECD30A2007F09BFD07F14C02BB888D
:102A6C001946386801F016FE034683F00103DBB209
:102A7C00002B01D000231AE297F84C30194697F836
:102A8C004D301A463B6D9B4807F06AFD97F84D3068
:102A9C00002B03D097F84D30062B01D9002306E20A
:102AAC0000233B6797F84C30002B3ED1002387F86E
:102ABC006F3028E097F86F3007F134029B00134415
:102ACC00B96D97F86F2092000A4412681A6097F853
:102ADC006F107A6D97F86F3013441B78184697F87F
:102AEC006F2097F86F309B0078333B4453F8443C8D
:102AFC00009313460246804807F032FD97F86F307A
:102B0C00013387F86F3097F84D3097F86F209A4261
:102B1C00D0D3786D97F84D203B6D07F13401774C8D
:102B2C000094FEF7F1FE38674BE097F84C30012B20
:102B3C0045D1002387F86E302FE097F86E3007F1FF
:102B4C001C029B001344B96D97F86E2092000A4446
:102B5C0012681A6097F86E407A6D97F86E301344CD
:102B6C001B781E4697F86E5097F86E309B007833A2
:102B7C003B4453F85C3C1846FDF746FC02460B46BA
:102B8C00CDE900232B46324621465D4807F0E8FC90
:102B9C0097F86E30013387F86E3097F84D3097F810
:102BAC006E209A42C9D3786D97F84D203B6D07F192
:102BBC001C01524C0094FEF76EFE386701E00023B6
:102BCC0075E1386FFFF75DFE034670E14D4807F085
:102BDC0061FDBB881A464449444807F0C1FC0023F8
:102BEC00A7F86C300DE0B7F86C303A6813441B78DA
:102BFC0019463F4807F0B4FCB7F86C300133A7F81E
:102C0C006C30B7F86C20BB889A42ECD30A2007F0E2
:102C1C00BFFC0023BB6107F11802BB88194638685A
:102C2C0001F09CFD034683F00103DBB2002B01D0C5
:102C3C0000233CE1BB691946334807F091FCBB69A2
:102C4C001846FEF777FD034631E1304807F022FDC8
:102C5C00BB881A462449254807F082FC0023A7F8B4
:102C6C006A300DE0B7F86A303A6813441B7819469D
:102C7C001F4807F075FCB7F86A300133A7F86A30C3
:102C8C00B7F86A20BB889A42ECD30A2007F080FC84
:102C9C0000237B6107F11402BB881946386801F0E8
:102CAC005DFD034683F00103DBB2002B01D0002352
:102CBC00FDE07B691946144807F052FC7B69184605
:102CCC00FEF792FD0346F2E0114807F0E3FCBB88E7
:102CDC001A460549054807F043FC0023A7F868305D
:102CEC0026E000BF80BF000894BF00089CBF00080E
:102CFC00B4BF0008BCBF0008E4BF00087D29000871
:102D0C0008C000082CC0000840C0000858C00008CB
:102D1C006CC00008B7F868303A6813441B78194641
:102D2C00654807F01DFCB7F868300133A7F8683028
:102D3C00B7F86820BB889A42ECD30A2007F028FC2D
:102D4C0000233B6107F11002BB881946386801F07B
:102D5C0005FD034683F00103DBB2002B01D00023F9
:102D6C00A5E03B691946554807F0FAFB3B69184644
:102D7C00FEF712FD03469AE0514807F08BFCBB8826
:102D8C001A465049504807F0EBFB0023A7F8663071
:102D9C000DE0B7F866303A6813441B78194646487C
:102DAC0007F0DEFBB7F866300133A7F86630B7F8EA
:102DBC006620BB889A42ECD30A2007F0E9FB00237B
:102DCC00FB6007F10C02BB881946386801F0C6FCA1
:102DDC00034683F00103DBB2002B01D0002366E035
:102DEC00FB681946354807F0BBFBFC68FB681846C6
:102DFC00FEF73EFD0546FB681846FEF71DFD034633
:102E0C00002B01D0012300E000231A46294620465E
:102E1C00FFF783FD03464AE02C4807F03BFCBB88D8
:102E2C001A462849284807F09BFB0023A7F8643072
:102E3C000DE0B7F864303A6813441B7819461E4805
:102E4C0007F08EFBB7F864300133A7F86430B7F89D
:102E5C006420BB889A42ECD30A2007F099FB00232C
:102E6C0025E01B4807F016FCBB881A461549164886
:102E7C0007F076FB0023A7F862300DE0B7F862305C
:102E8C003A6813441B7819460B4807F069FBB7F8EE
:102E9C0062300133A7F86230B7F86220BB889A42DF
:102EAC00ECD30A2007F074FB012300E00023184642
:102EBC007C37BD46F0BD00BFB4BF000840C0000861
:102ECC0080C0000894BF00089CBF000898C0000890
:102EDC00B0C0000880B582B000AF78600B467B8034
:102EEC007B881A4679680420FFF7DCF803461846FD
:102EFC000837BD4680BD80B58EB000AFF860B960B4
:102F0C007A60FB7006233B75FB68BB61BB68FB6199
:102F1C007B683B62FB7887F8243007F1280107F1C6
:102F2C0014030E22184601F014FE0346FB86FB8E9A
:102F3C00002B01D1002307E0FA8E07F1280311467C
:102F4C001846FFF7C7FF034618463837BD4680BD05
:102F5C0080B58EB000AF7860396005233B727B681A
:102F6C00FB603B681B783B743B685B787B743B680D
:102F7C009B78BB743B68DB78FB743B685B687B615C
:102F8C003B689B68BB613B68DB68FB6107F1200118
:102F9C0007F108031522184601F090FD0346FB8645
:102FAC00FB8E002B01D1002307E0FA8E07F12003E2
:102FBC0011461846FFF78EFF034618463837BD46B4
:102FCC0080BD0000F0B5EFB006AF002387F89F314D
:102FDC00002387F89E311CE197F89E313A1D11466B
:102FEC001846FEF75BFF034683F00103DBB2002BB0
:102FFC0040F0098197F89F2113469B0013449B00D6
:10300C0003F5D0733B44803B97F89E211A7007F56B
:10301C00D073A3F5CE731B7897F89F2119461346EE
:10302C009B0013449B0003F5D0733B447F3B0A4643
:10303C001A7007F5D073A3F5CE735B7897F89F21C0
:10304C00194613469B0013449B0003F5D0733B4475
:10305C007E3B0A461A7097F89F2107F5D073A3F5AB
:10306C00CE73997813469B0013449B0003F5D073E1
:10307C003B447D3B0A461A7097F89F2107F5D073A5
:10308C00A3F5CE73D97813469B0013449B0003F52C
:10309C00D0733B447C3B0A461A7097F89F2107F586
:1030AC00D073A3F5CE73596813469B0013449B0051
:1030BC0003F5D0733B44783B196097F89F2107F5D3
:1030CC00D073A3F5CE73996813469B0013449B00F1
:1030DC0003F5D0733B44743B196097F89F2107F5B7
:1030EC00D073A3F5CE73D96813469B0013449B0091
:1030FC0003F5D0733B44703B196097F89F31013353
:10310C0087F89F3107F5D073A3F5CE731B69C7F809
:10311C009831D7F89831002B40D0D7F8983193F8E4
:10312C003131002B3AD097F89E01D7F8983193F8AB
:10313C0030319C4607F5D073A3F5CE731B789E46B1
:10314C0007F5D073A3F5CE735B781C4607F5D073E7
:10315C00A3F5CE739B781D4607F5D073A3F5CE73FC
:10316C00DB781E4607F5D073A3F5CE735B6807F5C5
:10317C00D072A2F5CE72926807F5D071A1F5CE711E
:10318C00C9680591049203930296019500947346C5
:10319C00624601463F4807F0E3F935E097F89E0197
:1031AC0007F5D073A3F5CE731B781E4607F5D073C5
:1031BC00A3F5CE735B789C4607F5D073A3F5CE735D
:1031CC009B781C4607F5D073A3F5CE73DB781D46B0
:1031DC0007F5D073A3F5CE735B6807F5D072A2F533
:1031EC00CE72926807F5D071A1F5CE71C9680491C1
:1031FC000392029301950094634632460146264899
:10320C0007F0AEF900E000BF97F89E31013387F864
:10321C009E3197F89E31052B7FF6DEAE07F5D07305
:10322C00A3F5C47307221A7007F5D073A3F5C47302
:10323C0097F89F215A7007F5D073A3F5C47307F55F
:10324C0090725A6007F1200107F118034FF4807255
:10325C00184601F0B5FB0346A7F89C31B7F89C3132
:10326C00002B01D1002310E097F89F31B7F89C2177
:10327C0019460A4807F074F9B7F89C2107F12003A6
:10328C0011461846FFF726FE0346184607F5D27777
:10329C00BD46F0BDC4C0000828C1000884C10008A8
:1032AC0080B483B000AF00237B6011E00D4A7B68D3
:1032BC004FF49A7101FB03F3134403F231131B789F
:1032CC00002B02D17B685BB207E07B6801337B602B
:1032DC007B68052BEADD4FF0FF3318460C37BD46F3
:1032EC0080BC7047F403002080B483B000AF034669
:1032FC00FB71FB79052B0BD8FB79084A4FF49A71BB
:10330C0001FB03F3134403F2311300221A7000E0A3
:10331C0000BF0C37BD4680BC704700BFF4030020D3
:10332C0080B58EB002AFF860B9607A60FB70F86857
:10333C00FEF722FEF862FB6A002B49D0FB6ABB62E7
:10334C00BB6A93F83131002B44D0FB681F2B43D858
:10335C000122FB689A40244B1B681340002B3DD084
:10336C007B68002B09D07A68BB689A4203D97A68CB
:10337C00BB68D31A03E0002301E04FF0FF337B62FC
:10338C00FB78002B01D0012300E000237A6AB96896
:10339C00F868FFF7B0FDFB7801937B6A00937B68BC
:1033AC00BA68F968114807F0DBF807F11003194601
:1033BC00F868FEF773FD034683F00103DBB2002BC4
:1033CC000ED107F110031946F868FFF7C1FD08E0AC
:1033DC0000BF06E000BF04E000BF02E000BF00E059
:1033EC0000BF3037BD4680BD2C0B0020B0C100089B
:1033FC0080B586B000AF786039603B68002B01D196
:10340C00002318E03B6858683B681B7A9BB207F1B5
:10341C000C02194600F05CFF034683F00103DBB29B
:10342C00002B01D0002306E03B7B3969BA8A184691
:10343C0000F006F8012318461837BD4680BD000081
:10344C00F0B5C9B006AF07F58473A3F584731960A2
:10345C00114607F58473A3F2011302461A7007F59F
:10346C008473A3F582730A461A8007F58473A3F25A
:10347C0001131B78072B00F2E18501A252F823F00F
:10348C00AD340008093A00081B3B0008593C000801
:10349C005F3D0008BD3E0008BD3E0008E33F00084C
:1034AC00B54807F0F7F807F58473A3F582731B880A
:1034BC001A46B249B24807F053F80023A7F8063170
:1034CC0011E0B7F8063107F58472A2F58472126820
:1034DC0013441B781946AB4807F042F8B7F806318D
:1034EC000133A7F8063107F58473A3F58273B7F897
:1034FC0006211B889A42E4D30A2007F049F807F109
:10350C00AC0207F58473A3F58273198807F58473ED
:10351C00A3F58473186801F0D2F9034683F0010314
:10352C00DBB2002B02D0002300F089BD97F8AC3041
:10353C00194697F8AD301A4697F8AE301846D7F8BA
:10354C00B03000930346904807F00AF897F8AD3076
:10355C00002B03D097F8AE30002B02D1002300F0E3
:10356C006EBD97F8AD30062B03D897F8AE30082B0C
:10357C0002D9002300F063BDFFF792FE034687F8E3
:10358C00D73097F9D730002B05DA804807F082F84E
:10359C00002300F054BD97F9D7304FF49A7202FB18
:1035AC0003F37B4A1344C7F8D030D7F8D03001224C
:1035BC0083F8312197F8AC20D7F8D03083F830213C
:1035CC0097F8AD301A46D7F8D0309A6097F8AE30ED
:1035DC001A46D7F8D030C3F82C21002387F80531D0
:1035EC001AE0D7F8BC2097F805311A4497F8053142
:1035FC001178D7F8D020D15497F8051197F80531E8
:10360C00D7F8D020D35C1A46624806F0A9FF97F889
:10361C000531013387F8053197F8AD3097F805215E
:10362C009A42DED3002387F8043122E00023C7F846
:10363C00A830D7F8B42097F804319B0013441B68CA
:10364C00C7F8A83097F80431D7F8A820D7F8D010CD
:10365C0042339B000B445A6097F80431D7F8A820EA
:10366C0019464D4806F07CFF97F80431013387F872
:10367C00043197F8AE3097F804219A42D6D3002340
:10368C0087F80331DBE097F8AC30002B58D197F872
:10369C00032197F8030113465B001344DB00083346
:1036AC00D7F8D02013441A1DD7F8D01000F13203EC
:1036BC009B000B445A60002387F8023139E097F8DD
:1036CC0003319BB297F8AD2092B202FB03F39AB28E
:1036DC0097F802319BB21344A7F8C8300023C7F8FF
:1036EC00A430D7F8C020B7F8C8309B0013441B682F
:1036FC00C7F8A43097F8032197F80241D7F8A41023
:10370C00D7F8D00013465B0013445B00234402330C
:10371C009B000344596097F8031197F80221D7F8DE
:10372C00A4301E4806F01CFF97F80231013387F8CD
:10373C00023197F8AD3097F802219A42BFD379E065
:10374C0097F8AC30012B75D197F8032197F803014A
:10375C0013465B001344DB000833D7F8D020134426
:10376C001A1DD7F8D01000F13A039B000B445A6095
:10377C00002387F8013157E0F8C1000814C2000893
:10378C001CC2000834C200083CC2000878C2000801
:10379C00F4030020ACC20008C0C20008DCC2000860
:1037AC0097F803319BB297F8AD2092B202FB03F36A
:1037BC009AB297F801319BB21344A7F8CA304FF074
:1037CC000003C7F8A030D7F8C020B7F8CA309B0068
:1037DC0013441B68C7F8A03097F8032197F80141F0
:1037EC00D7F8A010D7F8D00013465B0013445B0049
:1037FC00234402339B000344596097F8034197F824
:10380C000151D7F8A0301846FCF7FEFD02460B46D6
:10381C00CDE900232A462146C54806F0A1FE97F8BB
:10382C000131013387F8013197F8AD3097F8012158
:10383C009A42B5D397F80331013387F8033197F8DF
:10384C00AE3097F803219A42FFF41DAF07F584734D
:10385C00A3F58073184620231A460021FDF780F942
:10386C00D7F8D02007F58473A3F580731A6097F806
:10387C00AD301A4607F58473A3F580735A60D7F8F8
:10388C00D03003F5867207F58473A3F58073DA6084
:10389C0097F8AE301A4607F58473A3F580731A6156
:1038AC00D7F8B02007F58473A3F580735A6197F8A5
:1038BC00AC2007F58473A3F580731A7607F584732F
:1038CC00A3F58073D7F8D020DA6197F8AC30002BD1
:1038DC0009D1D7F8D03003F1CC0207F58473A3F5E6
:1038EC0080739A6008E0D7F8D03003F1EC0207F54A
:1038FC008473A3F580739A6007F108038D49184609
:10390C00FEF760F9C7F8CC00D7F8CC30002B09DAF9
:10391C00894806F0BFFE97F8D7301846FFF7E4FC4D
:10392C0000238CE3D7F8CC30D7F8D0101846FEF72C
:10393C00FDFA034683F00103DBB2002B0ED07F4867
:10394C0006F0A8FED7F8CC301846FEF759FA97F8CF
:10395C00D7301846FFF7C8FC002370E3D7F8CC30FB
:10396C001F2B08DC0122D7F8CC309A40744B1B6813
:10397C001343734A136097F9D7301A46D7F8CC1013
:10398C00704806F0EDFD002387F800312EE097F823
:10399C00003107F18C0211461846FEF77FFA0346F8
:1039AC00002B1ED097F8000197F88C301E4697F824
:1039BC008D309C4697F88E301C4697F88F301D46FC
:1039CC00D7F89030D7F89420D7F898100491039238
:1039DC000293019500946346324601465A4806F01C
:1039EC00BFFD97F80031013387F8003197F80031AB
:1039FC00052BCCD9FFF7E6FA034620E3534806F033
:103A0C0049FE07F58473A3F582731B881A46504947
:103A1C00504806F0A5FD0023A7F8FE3011E0B7F8DA
:103A2C00FE3007F58472A2F58472126813441B7879
:103A3C001946494806F094FDB7F8FE300133A7F853
:103A4C00FE3007F58473A3F58273B7F8FE201B884C
:103A5C009A42E4D30A2006F09BFD0023C7F8883075
:103A6C0007F1880207F58473A3F58273198807F5AB
:103A7C008473A3F58473186800F004FF034683F085
:103A8C000103DBB2002B01D00023D8E2D7F8883039
:103A9C001846FEF7E9F8C7F8D800D7F8D830002B4D
:103AAC002DD1D7F8883019462C4806F059FDD7F897
:103ABC00883007F1740211461846FEF7EFF90346F9
:103ACC00002B1CD0D7F8880097F874301E4697F856
:103ADC0075309C4697F876301C4697F877301D4623
:103AEC00BB6FFA6FD7F88010049103920293019583
:103AFC000094634632460146194806F031FDD7F86A
:103B0C00D830002B0CBF01230023DBB297E2154801
:103B1C0006F0C0FD07F58473A3F582731B881A4663
:103B2C000B490C4806F01CFD0023A7F8FC302DE0D7
:103B3C00FCC200082D33000820C3000844C3000851
:103B4C002C0B002070C30008A8C30008F4C30008A5
:103B5C0014C200081CC2000834C200080CC40008BF
:103B6C0034C4000884C40008B7F8FC3007F584722C
:103B7C00A2F58472126813441B781946BF4806F0EC
:103B8C00EFFCB7F8FC300133A7F8FC3007F5847371
:103B9C00A3F58273B7F8FC201B889A42E4D30A2061
:103BAC0006F0F6FC00233B6707F1700207F58473FF
:103BBC00A3F58273198807F58473A3F584731868C9
:103BCC0000F060FE034683F00103DBB2002B01D052
:103BDC00002334E23B6F1846FEF78CF8C7F8DC0084
:103BEC00D7F8DC30002B29D13B6F1946A44806F0DE
:103BFC00B7FC3B6F07F15C0211461846FEF74EF915
:103C0C000346002B1AD0386F97F85C301E4697F895
:103C1C005D309C4697F85E301C4697F85F301D4629
:103C2C003B6E7A6EB96E04910392029301950094E7
:103C3C00634632460146934806F092FCD7F8DC30D6
:103C4C00002B0CBF01230023DBB2F8E18E4806F0F9
:103C5C0021FD07F58473A3F582731B881A468B49E3
:103C6C008B4806F07DFC0023A7F8FA3011E0B7F87A
:103C7C00FA3007F58472A2F58472126813441B782B
:103C8C0019467E4806F06CFCB7F8FA300133A7F8F9
:103C9C00FA3007F58473A3F58273B7F8FA201B8802
:103CAC009A42E4D30A2006F073FC0023BB6507F1AB
:103CBC00580207F58473A3F58273198807F584738A
:103CCC00A3F58473186800F0DDFD034683F001034F
:103CDC00DBB2002B01D00023B1E1BB6D1846FEF71F
:103CEC004DF8C7F8E000D7F8E030002B29D1BB6DB8
:103CFC001946684806F034FCBB6D07F144021146C6
:103D0C001846FEF7CBF80346002B1AD0B86D97F87F
:103D1C0044301E4697F845309C4697F846301C4672
:103D2C0097F847301D46BB6CFA6C396D04910392C1
:103D3C00029301950094634632460146514806F0C1
:103D4C000FFCD7F8E030002B0CBF01230023DBB2B3
:103D5C0075E1514806F09EFC07F58473A3F5827358
:103D6C001B881A4649494A4806F0FAFB0023A7F873
:103D7C00F83011E0B7F8F83007F58472A2F58472C8
:103D8C00126813441B7819463C4806F0E9FBB7F857
:103D9C00F8300133A7F8F83007F58473A3F5827374
:103DAC00B7F8F8201B889A42E4D30A2006F0F0FBFF
:103DBC0000233B6407F1400207F58473A3F582737B
:103DCC00198807F58473A3F58473186800F05AFDFD
:103DDC00034683F00103DBB2002B01D000232EE15C
:103DEC003B6C1846FEF7C8F8C7F8EC00D7F8EC3077
:103DFC00002B23D0D7F8EC3093F83131002B1DD0A9
:103E0C00D7F8EC30254A9B1A9B10254A02FB03F38A
:103E1C0087F8EB3097F9EB30002B0FDB97F9EB3091
:103E2C00052B0BDC97F8EB301846FFF75DFA97F98A
:103E3C00EB303A6C19461B4806F092FB3B6C18466B
:103E4C00FDF7DEFFC7F8E400D7F8E430002B04D10F
:103E5C003B6C1946144806F083FB3B6C1F2B09D8AE
:103E6C003B6C012202FA03F3DA43104B1B6813403C
:103E7C000E4A1360FFF7A6F80346E0E034C20008D0
:103E8C00A0C4000834C40008CCC4000814C2000844
:103E9C001CC20008E4C400080CC50008F403002090
:103EAC0085382B3F28C5000864C500082C0B002062
:103EBC00654806F0EFFB07F58473A3F582731B8846
:103ECC001A466249624806F04BFB0023A7F8F6300D
:103EDC0011E0B7F8F63007F58472A2F58472126817
:103EEC0013441B7819465B4806F03AFBB7F8F630DA
:103EFC000133A7F8F63007F58473A3F58273B7F88E
:103F0C00F6201B889A42E4D30A2006F041FB0023DA
:103F1C00FB6307F13C0207F58473A3F582731988E0
:103F2C0007F58473A3F58473186800F0ABFC0346A3
:103F3C0083F00103DBB2002B01D000237FE0FB6B8D
:103F4C001946454806F00CFBFB6B07F1280211469D
:103F5C001846FDF7A3FF034683F00103DBB2002BE9
:103F6C0001D000236BE097F828301C4697F82930D5
:103F7C001D4697F82A301E4697F82B301846FB6AD8
:103F8C003A6B796B039102920193009033462A4667
:103F9C002146324806F0E4FABB6BC7F8F030D7F88C
:103FAC00F030002B0ED0D7F8F03093F83131002BD5
:103FBC0008D0F96BD7F8F03093F830311A4628480E
:103FCC0006F0CEFAFB6B07F1280211461846FEF7F5
:103FDC00BFFF034633E0234806F05CFB07F5847310
:103FEC00A3F582731B881A461849194806F0B8FACB
:103FFC000023A7F8F43011E0B7F8F43007F5847219
:10400C00A2F58472126813441B781946114806F005
:10401C00A7FAB7F8F4300133A7F8F43007F5847336
:10402C00A3F58273B7F8F4201B889A42E4D30A20D4
:10403C0006F0AEFAFEF7C6FF034600E00023184672
:10404C0007F58677BD46F0BD90C5000814C2000880
:10405C001CC2000834C20008B4C50008D0C5000852
:10406C0040C6000870C6000880B586B000AF786006
:10407C0039603B68002B01D1002318E03B6858687D
:10408C003B681B7A9BB207F10C02194600F020F931
:10409C00034683F00103DBB2002B01D0002306E0C2
:1040AC003B7B3969BA8A184600F006F8012318469A
:1040BC001837BD4680BD000080B592B002AF0346F4
:1040CC003960FB711346BB80FB79013B042B00F27A
:1040DC009F8001A252F823F0F940000845410008E6
:1040EC004D410008E14100081942000807F1340372
:1040FC00B9884FF47A72386800F060FD034683F09B
:10410C000103DBB2002B01D0002382E0002387F8EF
:10411C003F300BE0796B97F83F3000221846FCF7E4
:10412C0075FF97F83F30013387F83F3097F83F30F1
:10413C00042BEFD901236CE0FDF742F8012368E072
:10414C0007F12C03B9880522386800F05FFD03469F
:10415C0083F00103DBB2002B01D0002359E00023D4
:10416C0087F83E3011E097F83E3007F118029B00BB
:10417C001344396B97F83E2092000A4412681A6077
:10418C0097F83E30013387F83E3097F83E30042BD9
:10419C00E9D9002387F83D300CE097F83D304033E7
:1041AC003B4497F83D2003F8302C97F83D30013311
:1041BC0087F83D3097F83D30042BEED9FB6A07F1B8
:1041CC00180107F11000002200920522FCF760FF95
:1041DC0001231EE0FDF750F80346BB6007F10C010C
:1041EC0007F108030422184600F042FD03467B87C2
:1041FC007B8F002B01D100230BE07A8F07F10C038E
:10420C0019460520FDF74EFF034602E0012300E0AE
:10421C00002318464037BD4680BD00BF80B586B030
:10422C0000AF786039603B68002B01D100231DE0A2
:10423C003B6858683B681B7A9BB207F10C02194625
:10424C0000F046F8034683F00103DBB2002B01D0EB
:10425C0000230BE03B7B3969BA8A184600F00AF858
:10426C000346002B01D0012300E000231846183729
:10427C00BD4680BD80B582B000AF03463960FB718E
:10428C001346BB80FB79013B042B1CD801A252F8CE
:10429C0023F000BFB5420008C3420008C742000823
:1042AC00CB420008CF420008002200210620FDF777
:1042BC00F9FE034608E0012306E0012304E0012394
:1042CC0002E0012300E0002318460837BD4680BDFC
:1042DC0080B485B000AFF8600B467A607B817B6858
:1042EC00002B01D100231EE0FB68002B02D07B8940
:1042FC00002B0AD17B6800221A707B6800225A605E
:10430C007B6800221A8100230DE0FB681A787B6819
:10431C001A70FB685A1C7B685A607B89013B9AB205
:10432C007B681A81012318461437BD4680BC704740
:10433C0080B485B000AFF8607B600B467B81134680
:10434C003B81FB68002B02D07B68002B01D1002342
:10435C0024E03B891A1D7B899A4201D900231DE078
:10436C003B89FA6813441B7819463B890133FA6878
:10437C0013441B781B0241EA03023B890233F968A0
:10438C000B441B781B041A433B890333F9680B4419
:10439C001B781B061A437B681A60012318461437D6
:1043AC00BD4680BC704780B586B000AFF8607B60BE
:1043BC000B467B8113463B8100237B617B68002B82
:1043CC0001D1002312E007F114033A897989F868C6
:1043DC00FFF7AEFF034683F00103DBB2002B01D0E5
:1043EC00002303E07A697B681A60012318461837AA
:1043FC00BD4680BD80B485B000AFF8600B467A60D6
:10440C007B817B89FA6813447A68D2B21A707B6814
:10441C00190A7B890133FA681344CAB21A707B6893
:10442C00190C7B890233FA681344CAB21A707B6880
:10443C00190E7B890333FA681344CAB21A7000BF91
:10444C001437BD4680BC704780B586B000AFF860AD
:10445C000B467A607B8100237B617B687B617A6988
:10446C007B891946F868FFF7C5FF00BF1837BD46B2
:10447C0080BD80B584B000AFB9607B600346FB7330
:10448C001346BB81FB69002B01D1002329E0FB699A
:10449C0000221A807B68002B01D1002321E0BB890C
:1044AC005A1C3B8B9A4201D900231AE0BB89002B82
:1044BC0004D0BB68002B01D1002312E07B68FA7B8F
:1044CC001A70BB89002B06D07B680133BA89B96896
:1044DC00184605F05BFFBB8901339AB2FB691A8061
:1044EC00012318461037BD4680BD80B485B000AF9F
:1044FC00F8600B467A607B81FB68002B05D07B68EB
:10450C00002B02D07B89012B01D0002304E0FB6837
:10451C001A787B681A70012318461437BD4680BC84
:10452C00704780B584B000AFF8600B467A607B8131
:10453C00FB68002B05D07B68002B02D07B89092BF4
:10454C0001D000231AE0FB681A787B681A707B682C
:10455C00043379890122F868FFF7EAFE034683F0F9
:10456C000103DBB2002B01D0002307E07B6808338A
:10457C0079890522F868FFF7DBFE034618461037E9
:10458C00BD4680BD80B584B000AFF8600B467A6044
:10459C007B81FB68002B05D07B68002B02D07B89CC
:1045AC00092B01D000231AE0FB681A787B681A707B
:1045BC007B68043379890122F868FFF7F4FE03461F
:1045CC0083F00103DBB2002B01D0002307E07B68F2
:1045DC00083379890522F868FFF7AAFE03461846C6
:1045EC001037BD4680BD80B485B000AFF8600B4677
:1045FC007A607B817B68002B01D1002309E07B89E9
:10460C00002B01D0002304E07B684FF47A721A600F
:10461C00012318461437BD4680BC704780B584B062
:10462C0000AFF860B9601346FB80FB68002B05D027
:10463C00BB68002B02D0FB88112B01D8002325E08E
:10464C00FB681A78BB681A70FB685B681A46012114
:10465C00B868FFF7CFFEBB680533FA68127A1A7098
:10466C00FB68DB681A460621B868FFF7C3FEFB68D7
:10467C001B691A460A21B868FFF7E6FEFB685B69FE
:10468C001A460E21B868FFF7B5FE122318461037EC
:10469C00BD4680BD80B586B000AFF8600B467A6031
:1046AC007B81FB68002B05D07B68002B02D07B89BB
:1046BC00052B01D800234DE0FB681A787B681A7033
:1046CC00FB685A787B685A707B68043379890222BC
:1046DC00F868FFF72DFE034683F00103DBB2002BD5
:1046EC0001D0002336E00623FB827B685B789AB20C
:1046FC00FB8A1344BB827B685B789BB29B009AB2AB
:10470C00BB8A13447B827A8A7B899A4201D9002323
:10471C0020E0FB8AFA681A447B689A60BB8AFA68C4
:10472C001A447B68DA607B681B78002B05D1BB8A46
:10473C00FA681A447B681A610BE07B681B78012BC2
:10474C0005D1BB8AFA681A447B681A6101E0002320
:10475C0000E0012318461837BD4680BD80B584B0F3
:10476C0000AFF8600B467A607B81FB68002B05D0AC
:10477C007B68002B02D07B89032B01D8002306E039
:10478C0079897B680022F868FFF7D2FD034618464A
:10479C001037BD4680BD80B584B000AFF860B960FD
:1047AC001346FB80FB68002B05D0BB68002B02D0A6
:1047BC00FB88042B01D800230BE0FB681A78BB683C
:1047CC001A70FB685B681A460121B868FFF712FE85
:1047DC00052318461037BD4680BD80B584B000AFA8
:1047EC00F860B9601346FB80FB68002B05D0BB68F2
:1047FC00002B02D0FB88052B01D8002310E0FB68AE
:10480C001A78BB681A70FB685B681A460121B86895
:10481C00FFF7F0FDBB680533FA68127A1A700623AD
:10482C0018461037BD4680BD80B584B000AFF86027
:10483C00B9601346FB80FB68002B05D0BB68002BCE
:10484C0002D0FB88092B01D8002317E0FB681A78EB
:10485C00BB681A70FB685B681A460121B868FFF7E1
:10486C00C9FDFB689B681A460521B868FFF7C2FDB5
:10487C00BB680933FA68127B1A700A231846103782
:10488C00BD4680BD80B584B000AFF8600B467A6041
:10489C007B81FB68002B05D07B68002B02D07B89C9
:1048AC00032B01D8002306E079897B680022F86885
:1048BC00FFF73EFD034618461037BD4680BD80B558
:1048CC0088B000AFF8600B467A607B81FB68002BE8
:1048DC0005D07B68002B02D07B89062B01D80023E6
:1048EC006AE0FB681A787B681A70FB685A787B68F8
:1048FC005A70FB689A787B689A707B680433798964
:10490C000322F868FFF714FD034683F00103DBB2C2
:10491C00002B01D000234FE00723FB837B689B789F
:10492C009BB29B009AB2FB8B1344BB837B685B7876
:10493C009AB2BB8B13447B837B689B789BB27A685F
:10494C00527892B202FB03F39BB29B003B837A8BAF
:10495C003B8B1344FB82FA8A7B899A4201D9002350
:10496C002AE0FB8BFA681A447B689A60FB8BFA6826
:10497C001A447B68DA60BB8BFA681A447B681A614C
:10498C007B8BFA681A447B685A617B681B78002B16
:10499C0005D17B8BFA681A447B689A610BE07B68C3
:1049AC001B78012B05D17B8BFA681A447B689A61C2
:1049BC0001E0002300E0012318462037BD4680BDEE
:1049CC0080B586B000AFF860B9601346FB80FB6819
:1049DC00002B05D0BB68002B02D0FB88012B01D823
:1049EC00002367E0FB681A78BB681A70BB68013358
:1049FC00FA6852781A700223FB8200237B7553E00D
:104A0C00FB6859687A7D13469B0013449B000B444A
:104A1C003B61FB8A03F11002FB889A4201DB002305
:104A2C0048E0FB8ABA6813443A6912781A70FB8A18
:104A3C000133BA6813443A6952781A70FB8A02330C
:104A4C00BA6813443A6992781A70FB8A0333BA68CD
:104A5C0013443A69D2781A70FB8A0433BA68134447
:104A6C003A6912791A70FB8A053399B23B699B68D3
:104A7C001A46B868FFF7BEFCFB8A093399B23B694A
:104A8C00DB681A46B868FFF7B5FCFB8A0D3399B2A0
:104A9C003B691B691A46B868FFF7ACFCFB8A1133FB
:104AAC00FB827B7D01337B75FB685B787A7D9A4258
:104ABC00A6D3FB8A18461837BD4680BD80B584B096
:104ACC0000AFF860B9601346FB80FB68002B05D083
:104ADC00BB68002B02D0FB88142B01D8002334E0D8
:104AEC00FB681A78BB681A70FB685B681A46012170
:104AFC00B868FFF77FFCBB680533FA68127A1A7046
:104B0C00BB680633FA68527A1A70BB680733FA68C6
:104B1C00927A1A70BB680833FA68D27A1A70FB68FA
:104B2C00DB681A460921B868FFF764FCFB681B694F
:104B3C001A460D21B868FFF75DFCFB685B691A46E5
:104B4C001121B868FFF756FC152318461037BD46DF
:104B5C0080BD80B584B000AFF860B9601346FB80AF
:104B6C00FB68002B05D0BB68002B02D0FB880D2BFB
:104B7C0001D800231EE0FB681A78BB681A70FB682A
:104B8C005B681A460121B868FFF734FCFB689B6828
:104B9C001A460521B868FFF72DFCFB68DB681A463E
:104BAC000921B868FFF726FCBB680D33FA68127C44
:104BBC001A700E2318461037BD4680BD80B584B0E0
:104BCC0000AFF8607A603B600B467B813B68002B42
:104BDC0001D1002316E03B687A681A607B89002BB0
:104BEC0001D101230EE0FB68002B02D07B89042B42
:104BFC0001D0002306E03B6879890022F868FFF7B2
:104C0C0097FB034618461037BD4680BD80B586B06D
:104C1C0000AFF8607B600B467B8113467B727B7A1E
:104C2C009BB201339BB29B00FB82FB68002B06D02E
:104C3C007B68002B03D07A89FB8A9A4201D000232F
:104C4C0012E07B6879890022F868FFF771FB034654
:104C5C0083F00103DBB2002B01D0002304E0FB68DE
:104C6C001A1D7B685A60012318461837BD4680BD53
:104C7C0080B584B000AFF860B9601346FB80FB6868
:104C8C00002B05D0BB68002B02D0FB88032B01D86E
:104C9C00002307E0FB681B681A460021B868FFF781
:104CAC00A9FB042318461037BD4680BD80B584B0DF
:104CBC0000AF264BDB6B1B685B689BB2C3F5806354
:104CCC00FB81234B1B88FA899A423BD0204B1B88D3
:104CDC00FA899A4213D9FB891D4A12889B1A7B6068
:104CEC001C4B1B68002B2AD01A4B1B68184A1288C5
:104CFC001146194A0A447968104698471FE0144B2C
:104D0C001B88C3F58063BB60124B1B68002B09D05A
:104D1C00104B1B680E4A128811460F4A0A44B96898
:104D2C0010469847FB89002B09D00A4B1B68002BB7
:104D3C0005D0084B1B68FA89114607489847044A66
:104D4C00FB89138000BF1037BD4680BD401C00207E
:104D5C00300F0020380F0020300B002080B487B0BB
:104D6C0000AF7860396072B600BF244B1B889BB2D1
:104D7C003B61234B1B889BB2BB603A69BB689A4270
:104D8C0006D3BA683B69D31A03F2FF137B6104E0C4
:104D9C00BA683B69D31A013B7B613A687B699A42DA
:104DAC0004D962B600BF4FF0FF3322E00023FB6052
:104DBC0014E07A68FB6813441978124A3B6913446F
:104DCC000A461A703B6901333B613B69B3F5007FBE
:104DDC0001D300233B61FB680133FB60FA683B683D
:104DEC009A42E6D33B699AB2044B1A8062B600BF72
:104DFC00002318461C37BD4680BC70473C11002070
:104E0C003E1100203C0F002080B485B000AF7860CC
:104E1C0072B600BF1B4B1B889AB21B4B1B889BB2F4
:104E2C009A4206D162B600BF7B6800221A6000234A
:104E3C0022E0144B1B889BB21A46144B1A447B6815
:104E4C001A60114B1B889AB20E4B1B889BB29A426C
:104E5C0009D90D4B1B889BB21A460A4B1B889BB277
:104E6C00D31AFB6005E0074B1B889BB2C3F500739C
:104E7C00FB6062B600BFFB6818461437BD4680BCA9
:104E8C00704700BF3E1100203C1100203C0F002059
:104E9C0080B483B000AF786072B600BF7B689AB202
:104EAC000D4B1B889BB213449AB20B4B1A800A4BC6
:104EBC001B889BB2B3F5007F07D3074B1B889BB2B3
:104ECC00A3F500739AB2044B1A8062B600BF00BF00
:104EDC000C37BD4680BC70473E11002080B582B0B7
:104EEC0000AF78600E4A7B6813600E4B00221A806C
:104EFC000D4B00221A600D4B00221A800C4B002225
:104F0C001A800C4B00221A604FF480620A490B483D
:104F1C0004F002FA002318460837BD4680BD00BFD6
:104F2C00380F0020300F0020340F00203C110020DF
:104F3C003E11002040110020300B0020401C0020AE
:104F4C0080B584B000AF786039607B68002B02D0EC
:104F5C003B68002B01D1002310E03B689AB24FF064
:104F6C00FF337968074804F0DCF80346FB73FB7BDE
:104F7C00002B01D13B6801E04FF0FF33184610378E
:104F8C00BD4680BD401C002080B586B000AF786067
:104F9C0039607B68002B02D03B68002B01D10023C9
:104FAC004AE039687868FFF7D9FE0346002B02D037
:104FBC004FF0FF3340E0224B1B68002B3BD107F135
:104FCC000C031846FFF720FF78617B69002B32D069
:104FDC001B4B01221A601B4A7B691360FB687A69C0
:104FEC0092B21946184804F027F90346FB74FB7C6F
:104FFC00002B20D072B600BF144B1B889AB23B68B2
:10500C009BB2D31A9AB2114B1A80104B1B889BB2CD
:10501C00B3F5007F07D30D4B1B889BB203F50073D0
:10502C009AB20A4B1A8062B600BF054B00221A6076
:10503C004FF0FF3300E0002318461837BD4680BD03
:10504C00340F002040110020401C00203C11002097
:10505C0080B500AFFFF72AFE00BF80BD80B582B0DF
:10506C0000AF144B00221A60134B1B68002B07D0A7
:10507C00114B1B681846FFF70BFF0F4B00221A60F1
:10508C003B461846FFF7C0FE78607B68002B0CD0BF
:10509C00084B01221A60084A7B6813603B687A68E7
:1050AC0092B21946054804F0C7F800BF0837BD4650
:1050BC0080BD00BF340F002040110020401C002098
:1050CC0080B584B000AFF860B9607A60BB68002B23
:1050DC0002D07B68002B03D1084805F0DBFA09E00D
:1050EC007968B868FFF750FF0346002B02D00448DC
:1050FC0005F0D0FA1037BD4680BD00BF88C6000849
:10510C00B4C6000880B582B000AF786039600C4836
:10511C0005F0C0FA386800F0F7FF0A4B1B68002B4B
:10512C0009D0084B1B683A6890783A6851683A681D
:10513C00127A92B29847012318460837BD4680BDB3
:10514C00D0C60008C01A002080B582B000AF7860CD
:10515C0039607B68002B08D03B68002B05D03A687F
:10516C007968044800F078FB00E000BF0837BD46C2
:10517C0080BD00BF4411002080B582B000AF7860C4
:10518C00184B1B78002B04D0174805F083FA012329
:10519C0023E0164805F07EFA154A7B681360154823
:1051AC00FFF79CFE0346002B04D0134805F072FA5F
:1051BC00002312E00021114800F0E4F810490F48D8
:1051CC0000F01AFA074B01221A700E4805F062FA29
:1051DC0079680D4805F0C4F9012318460837BD4617
:1051EC0080BD00BFC41A0020ECC600080CC7000824
:1051FC00C01A00205551000828C70008441100208F
:10520C00115100084CC7000870C7000880B588B061
:10521C0000AF03463960FB711346BB801B4B1B78F8
:10522C0083F00103DBB2002B04D0194805F032FAED
:10523C00002327E03B68002B02D0BB88002B04D155
:10524C00144805F027FA00231CE0FB79BB723B687D
:10525C00FB60BB88DBB23B7407F1080319460E48B0
:10526C0000F0ECFE0346FB77FB7F002B06D0FB79AE
:10527C00BA881946094805F073F902E0084805F0A8
:10528C0009FAFB7F18462037BD4680BDC41A0020A2
:10529C0090C70008B4C7000844110020D4C7000808
:1052AC0000C8000880B500AFFFF7D2FE00BF80BD7C
:1052BC0080B500AF024800F0D3FE00BF80BD00BF38
:1052CC004411002080B400AF024B1846BD4680BC90
:1052DC00704700BF4411002080B582B000AF7860E9
:1052EC00142200217868FBF73BFC00BF0837BD4651
:1052FC0080BD000080B582B000AF78607B6893F809
:10530C002138002B04D0074805F0C4F9002304E031
:10531C007B68012283F82128012318460837BD46F3
:10532C0080BD00BF18C8000880B483B000AF78609F
:10533C007B68002283F8212800BF0C37BD4680BC57
:10534C00704780B400AF00231846BD4680BC704740
:10535C0080B483B000AF03460A46FB711346BB71A1
:10536C00FB7918460C37BD4680BC704780B483B0BF
:10537C0000AF0346FB71FB7918460C37BD4680BC69
:10538C007047000080B584B000AF78600B46FB70AE
:10539C007B68002B04D10F4805F07CF9002315E045
:1053AC007B685B68FB607B681B68BB6040F67C12AB
:1053BC0000217868FBF7D4FB7B68FA685A607B683D
:1053CC00BA681A607B68FA781A720123184610378B
:1053DC00BD4680BD38C8000880B483B000AF78608B
:1053EC007B68DA897B689A8100BF0C37BD4680BC2C
:1053FC00704780B58AB000AFF8600B467A60FB72DC
:10540C007B685B68002B2CD07B681B69002B03D15D
:10541C007B685B69002B0ED07B681B693B627B68E9
:10542C005B697B620023BB617B685B6807F11402DC
:10543C001146F86898477B6800225A607B68002206
:10544C009A60FA7AFB6893F87839013B9A4209D151
:10545C00FB6893F87839013BDAB2FB6883F878295A
:10546C0000E000BF2837BD4680BD80B485B000AFDA
:10547C00F8600B467A60FB727B6800225A60FA7AFD
:10548C00FB6893F87939013B9A4207D1FB6893F892
:10549C007939013BDAB2FB6883F8792900BF1437FC
:1054AC00BD4680BC704780B485B000AFF8600B4639
:1054BC007A60FB727B6800221A60FA7AFB6893F8B8
:1054CC007A39013B9A4207D1FB6893F87A39013B50
:1054DC00DAB2FB6883F87A2900BF1437BD4680BC6A
:1054EC007047000080B586B000AFF860B9607A6094
:1054FC003B600023FB7538E0FA7D13465B001344D8
:10550C00DB0003F50263FA68134404333B613B6927
:10551C005B68002B26D13B697A685A603B693A6814
:10552C009A60BB681A783B691A70BB68DA683B6989
:10553C001A61BB681A693B695A613B693A8C9A815A
:10554C003B699A893B69DA81FB6893F87839FA7D73
:10555C009A4205D3FB7D0133DAB2FB6883F87829D4
:10556C00012309E0FB7D0133FB75FB7D092BC3D9BE
:10557C00034805F08FF8002318461837BD4680BD48
:10558C008CC8000880B586B000AFF8600B467A6016
:10559C00FB720023FB7522E0FB7D03F59173DB00AE
:1055AC00FA68134404333B613B695B68002B13D1ED
:1055BC003B697A685A603B69FA7A1A70FB6893F80F
:1055CC007939FA7D9A4205D3FB7D0133DAB2FB6857
:1055DC0083F87929012309E0FB7D0133FB75FB7D01
:1055EC00092BD9D9034805F055F80023184618376C
:1055FC00BD4680BDACC8000880B584B000AF7860F3
:10560C0039600023FB731FE0FB7B03F516739B00D3
:10561C007A6813440433BB60BB681B68002B10D141
:10562C00BB683A681A607B6893F87A39FA7B9A42BD
:10563C0005D3FB7B0133DAB27B6883F87A2901232B
:10564C0009E0FB7B0133FB73FB7B042BDCD90448A7
:10565C0005F020F8002318461037BD4680BD00BF6A
:10566C00D0C8000880B58CB000AF786007F1080393
:10567C001846FFF731FE7B689B7B3B7200237B72E5
:10568C007B6893F81334BB727B681033FB607B68C8
:10569C00DB7B3B74002387F82F304EE097F82F20EC
:1056AC0013465B001344DB0003F502637A68134472
:1056BC000433FB61FB695B68002B39D0FB691A78FA
:1056CC003B7A9A4234D1FB691B697B61FB695B694C
:1056DC00BB61FB695B6807F1080211467868984763
:1056EC00034687F827307A69FB691A61BA69FB6946
:1056FC005A6197F82730002B1AD097F82730022BD5
:10570C0003D1F869FFF768FE9BE097F82730032B6D
:10571C0040F09780FB6900221A61FB6900225A61F4
:10572C0097F82F30FA6919467868FFF762FE88E01F
:10573C0097F82F30013387F82F307B6893F878393E
:10574C0097F82F209A42A9D300237B610023BB61D9
:10575C00002387F82F3030E097F82F3003F5917342
:10576C00DB007A68134404333B623B6A5B68002BB2
:10577C001ED03B6A1A78BB7A9A4219D13B6A5B6895
:10578C0007F10802114678689847034687F82730D6
:10579C0097F82730002B0BD097F82730032B52D1DA
:1057AC0097F82F303A6A19467868FFF75EFE4AE0A0
:1057BC0097F82F30013387F82F307B6893F87939BD
:1057CC0097F82F209A42C7D3002387F82F302BE06D
:1057DC0097F82F3003F516739B007A681344043343
:1057EC00BB62BB6A1B68002B19D0BB6A1B6807F134
:1057FC000802114678689847034687F8273097F8CF
:10580C002730002B0BD097F82730032B1DD197F89E
:10581C002F30BA6A19467868FFF745FE15E097F8FD
:10582C002F30013387F82F307B6893F87A3997F84B
:10583C002F209A42CCD3BB7A1946064804F090FE2E
:10584C0004E000BF02E000BF00E000BF3037BD46FF
:10585C0080BD00BF78C9000880B586B000AFF86085
:10586C00B9607A6000237B610AE0BA687B691344F3
:10587C001B781946F86800F03FF87B6901337B61AF
:10588C007A697B689A42F0D300BF00BF1837BD46D7
:10589C0080BD80B483B000AF78607B6800229A72C0
:1058AC0000BF0C37BD4680BC704780B582B000AFDE
:1058BC007860FFF746FD03461A467B6883F811248F
:1058CC007B6893F8113401211846FFF741FD03461C
:1058DC001A467B6883F811247B68002283F8142411
:1058EC007B6803229A727B68002283F8102400BF25
:1058FC000837BD4680BD000080B582B000AF78602F
:10590C000B46FB707B689B89092B09D97B689B7ABA
:10591C00002B05D07868FFF7BCFFB74804F0BAFE3F
:10592C007B6800229A817B689B7A062B00F27C8133
:10593C0001A252F823F000BF61590008CD590008AC
:10594C00895A000871590008295A0008275B000879
:10595C00935B0008FB78012B40F059817868FFF7C6
:10596C00A4FF54E17B6893F81134FA781146184679
:10597C00FFF7EEFC03461A467B6883F811247B681C
:10598C009B7B1B025AB297F9033013435BB2DAB21A
:10599C007B689A737B6893F810340133DAB27B68B6
:1059AC0083F810247B6893F81034012B40F031817C
:1059BC007B6801229A727B68002283F8102428E10C
:1059CC007B6893F81134FA7811461846FFF7C0FC3F
:1059DC0003461A467B6883F811247B68DB7B1B0229
:1059EC005AB297F9033013435BB2DAB27B68DA73BD
:1059FC007B6893F810340133DAB27B6883F8102497
:105A0C007B6893F81034012B40F005817B680422ED
:105A1C009A727B68002283F81024FCE07B6893F870
:105A2C001134FA7811461846FFF792FC03461A46D1
:105A3C007B6883F811247B6893F813341B025AB2E9
:105A4C0097F9033013435BB2DAB27B6883F8132403
:105A5C007B6893F810340133DAB27B6883F8102436
:105A6C007B6893F81034012B40F0D7807B680522BB
:105A7C009A727B68002283F81024CEE07B6893F83E
:105A8C0012341B025AB297F9033013435BB2DAB2E9
:105A9C007B6883F812247B6893F810340133DAB2F4
:105AAC007B6883F810247B6893F81034012B40F04A
:105ABC00B6807B6893F811341846FFF757FC034601
:105ACC001A467B6883F811247B6893F811247B6851
