:020000040800F2
:100000000050002005620008A52B0008AB2B00085B
:10001000B12B0008B72B0008BD2B00080000000022
:10002000000000000000000000000000C32B0008DA
:10003000CF2B000800000000DB2B0008E72B000896
:100040004D6200084D6200084D6200084D620008D4
:100050004D6200084D6200084D6200084D620008C4
:100060004D6200084D6200084D6200084D620008B4
:10007000F52B0008092C00081D2C0008312C000865
:100080004D6200084D6200084D6200084D62000894
:100090004D6200084D6200084D620008452C0008C2
:1000A0004D620008552C00084D6200084D620008A2
:1000B0004D6200084D6200084D6200084D62000864
:1000C0004D6200084D6200084D6200084D62000854
:1000D0004D620008692C00084D6200087D2C000864
:1000E000912C00084D6200084D62000800000000DD
:1000F0000000000000000000000000000000000000
:0C01000000000000000000005FF808F1A3
:10010C0010B5054C237833B9044B13B10448AFF345
:10011C0000800123237010BDA4000020000000000B
:10012C00F87C000808B5034B1BB103490348AFF337
:10013C00008008BD00000000A8000020F87C00082A
:10014C0080F0004002E000BF81F0004142001FBF80
:10015C005FEA410392EA030F7FEA226C7FEA236C89
:10016C006AD04FEA1262D2EB1363C1BFD21841407E
:10017C0048404140B8BF5B42192B88BF704710F014
:10018C00004F40F4000020F07F4018BF404211F0B7
:10019C00004F41F4000121F07F4118BF494292EA1F
:1001AC00030F3FD0A2F1010241FA03FC10EB0C004B
:1001BC00C3F1200301FA03F100F0004302D54942D8
:1001CC0060EB4000B0F5000F13D3B0F1807F06D385
:1001DC0040084FEA310102F10102FE2A51D2B1F17D
:1001EC00004F40EBC25008BF20F0010040EA030072
:1001FC007047490040EB0000013A28BFB0F5000FF2
:10020C00EDD2B0FA80FCACF1080CB2EB0C0200FAA7
:10021C000CF0AABF00EBC25052421843BCBFD040F6
:10022C001843704792F0000F81F4000106BF80F470
:10023C0000000132013BB5E74FEA41037FEA226C33
:10024C0018BF7FEA236C21D092EA030F04D092F0FE
:10025C00000F08BF0846704790EA010F1CBF002032
:10026C00704712F07F4F04D1400028BF40F000408F
:10027C00704712F100723CBF00F50000704700F0AF
:10028C00004343F0FE4040F4000070477FEA2262D6
:10029C0016BF08467FEA23630146420206BF5FEAA7
:1002AC00412390EA010F40F4800070474FF00003A7
:1002BC0004E000BF10F0004348BF40425FEA000C6E
:1002CC0008BF704743F0964301464FF000001CE016
:1002DC0050EA010208BF70474FF000030AE000BF6C
:1002EC0050EA010208BF704711F0004302D54042AA
:1002FC0061EB41015FEA010C02BF8446014600201C
:10030C0043F0B64308BFA3F18053A3F50003BCFA36
:10031C008CF2083AA3EBC25310DB01FA02FC6344E3
:10032C0000FA02FCC2F12002BCF1004F20FA02F2EA
:10033C0043EB020008BF20F00100704702F12002DD
:10034C0001FA02FCC2F1200250EA4C0021FA02F23E
:10035C0043EB020008BF20EADC7070474FF0FF0C43
:10036C001CEAD0521EBF1CEAD15392EA0C0F93EA3E
:10037C000C0F6FD01A4480EA010C400218BF5FEAE0
:10038C0041211ED04FF0006343EA501043EA511153
:10039C00A0FB01310CF00040B1F5000F3EBF49004D
:1003AC0041EAD3715B0040EA010062F17F02FD2A51
:1003BC001DD8B3F1004F40EBC25008BF20F0010034
:1003CC00704790F0000F0CF0004C08BF49024CEA4B
:1003DC00502040EA51207F3AC2BFD2F1FF0340EADD
:1003EC00C250704740F400004FF00003013A5DDC4E
:1003FC0012F1190FDCBF00F000407047C2F100028F
:10040C00410021FA02F1C2F1200200FA02FC5FEA7B
:10041C00310040F1000053EA4C0308BF20EADC70C5
:10042C00704792F0000F00F0004C02BF400010F437
:10043C00000F013AF9D040EA0C0093F0000F01F0E4
:10044C00004C02BF490011F4000F013BF9D041EA06
:10045C000C018FE70CEAD15392EA0C0F18BF93EA08
:10046C000C0F0AD030F0004C18BF31F0004CD8D132
:10047C0080EA010000F00040704790F0000F17BFB9
:10048C0090F0004F084691F0000F91F0004F14D0FF
:10049C0092EA0C0F01D142020FD193EA0C0F03D157
:1004AC004B0218BF084608D180EA010000F000405A
:1004BC0040F0FE4040F40000704740F0FE4040F435
:1004CC00400070474FF0FF0C1CEAD0521EBF1CEAD4
:1004DC00D15392EA0C0F93EA0C0F69D0A2EB0302F2
:1004EC0080EA010C49024FEA402037D04FF080538C
:1004FC0043EA111143EA10130CF000408B4238BF51
:10050C005B0042F17D024FF4000C8B4224BF5B1A5E
:10051C0040EA0C00B3EB510F24BFA3EB510340EAAC
:10052C005C00B3EB910F24BFA3EB910340EA9C005A
:10053C00B3EBD10F24BFA3EBD10340EADC001B01CA
:10054C0018BF5FEA1C1CE0D1FD2A3FF650AF8B426E
:10055C0040EBC25008BF20F0010070470CF0004C7B
:10056C004CEA50207F32C2BFD2F1FF0340EAC250A6
:10057C00704740F400004FF00003013A37E792F067
:10058C00000F00F0004C02BF400010F4000F013AC5
:10059C00F9D040EA0C0093F0000F01F0004C02BFC0
:1005AC00490011F4000F013BF9D041EA0C0195E729
:1005BC000CEAD15392EA0C0F08D142027FF47DAFC2
:1005CC0093EA0C0F7FF470AF084676E793EA0C0FB2
:1005DC0004D14B023FF44CAF08466EE730F0004CB0
:1005EC0018BF31F0004CCAD130F000427FF45CAF40
:1005FC0031F000437FF43CAF5FE700BF4FF0FF3CAE
:10060C0006E000BF4FF0010C02E000BF4FF0010C00
:10061C004DF804CD4FEA40024FEA41037FEA226CC9
:10062C0018BF7FEA236C11D001B052EA530C18BFEB
:10063C0090EA010F58BFB2EB030088BFC81738BF50
:10064C006FEAE17018BF40F0010070477FEA226C3E
:10065C0002D15FEA402C05D17FEA236CE4D15FEA3A
:10066C00412CE1D05DF8040B704700BF844608466E
:10067C006146FFE70FB5FFF7C9FF002848BF10F12F
:10068C00000F0FBD4DF808EDFFF7F4FF0CBF012074
:10069C0000205DF808FB00BF4DF808EDFFF7EAFFFE
:1006AC0034BF012000205DF808FB00BF4DF808EDB9
:1006BC00FFF7E0FF94BF012000205DF808FB00BFAE
:1006CC004DF808EDFFF7D2FF94BF012000205DF834
:1006DC0008FB00BF4DF808EDFFF7C8FF34BF012041
:1006EC0000205DF808FB00BF4FEA4002B2F1FE4F5C
:1006FC000FD34FF09E03B3EB12620DD94FEA0023D8
:10070C0043F0004310F0004F23FA02F018BF4042B0
:10071C0070474FF00000704712F1610F01D1420297
:10072C0005D110F0004008BF6FF0004070474FF04B
:10073C00000070474FEA40024FEA41037FEA226C07
:10074C0002D15FEA402C08D17FEA236C02D15FEA28
:10075C00412C02D14FF0000070474FF00100704760
:10076C0070B500260C4D0D4C641BA410A64209D18B
:10077C0007F0BCFA00260A4D0A4C641BA410A642D2
:10078C0005D170BD55F8043B98470136EEE755F896
:10079C00043B98470136F2E7648200086482000843
:1007AC00648200086882000803460244934200D128
:1007BC00704703F8011BF9E780B582B000AF002346
:1007CC007B600FE00B4A7B6852F8332009497B6849
:1007DC00DB000B445B681946104602F07FFB7B681C
:1007EC0001337B607B68052BECD900BF00BF083759
:1007FC00BD4680BD6400002080B485B000AF786039
:10080C0039607B68052B27D8164A7B6852F8333041
:10081C00FB60144A7B68DB0013445B68BB60BB68FD
:10082C00002B04D1FB681B683A685A6315E0BB685F
:10083C00042B04D1FB681A683B6893630DE0BB681A
:10084C00082B04D1FB681A683B68D36305E0FB688E
:10085C001A683B68136400E000BF1437BD4680BCC7
:10086C00704700BF6400002080B584B000AF034621
:10087C00FB71FB79342202FB03F3124A1344FB6035
:10088C00FB79012202FA03F3DB431A460E4B1B6879
:10089C0013400D4A1360FB681B6B002B04D0FB68E4
:1008AC001B6BFA7910469847084B1B68002B04D039
:1008BC00064B1B68FA791046984700BF1037BD46A7
:1008CC0080BD00BFC0000020F8010020FC0100200A
:1008DC00B0B588B000AF214B3C461D460FCD0FC4C0
:1008EC0095E8030084E803000023FB6128E0FB6922
:1008FC00342202FB03F31A4A1344BB61BB69394629
:10090C001822184605F0A4FCBB695A68BB699A61A9
:10091C00BB695A68BB69DA61BB695A68BB691A6200
:10092C00BB6900225A62BB6900229A62BB69002231
:10093C0083F82C20BB6900221A63FB690133FB612D
:10094C00FB69052BD3DD074B00221A60064B0022F6
:10095C001A6000BF2037BD46B0BD00BF107D000837
:10096C00C0000020F8010020FC01002080B483B0FE
:10097C0000AF03463960FB71FB79052B09D8FB7975
:10098C00064A342101FB03F3134430333A681A60EE
:10099C0000E000BF0C37BD4680BC7047C000002093
:1009AC0080B485B000AF0346FB71FB79052B10D8E2
:1009BC00FB79342202FB03F3084A1344FB60FB6807
:1009CC0093F82C30002B05D0FB68002283F82C20E8
:1009DC0000E000BF1437BD4680BC7047C00000204B
:1009EC0080B485B000AF0346FB71FB79052B13D89F
:1009FC00FB79342202FB03F30A4A1344FB60FB68C5
:100A0C0093F82C3083F00103DBB2002B05D0FB688C
:100A1C00012283F82C2000E000BF1437BD4680BCB7
:100A2C00704700BFC000002090B583B000AF786065
:100A3C004FF07C51786806F07FFC786079687868B4
:100A4C00FFF78CFC03461C467B6819461846FFF7DB
:100A5C007DFB034619460648FFF776FB034619460D
:100A6C002046FFF77BFC034618460C37BD4690BD6D
:100A7C000000404090B587B000AF0023FB757AE0D2
:100A8C00FB7D342202FB03F33F4A13443B613B6979
:100A9C0093F82C3083F00103DBB2002B67D13B6958
:100AAC009B6A002B04D03B699B6A5A1E3B699A6275
:100ABC003B699B6A002B13D13B69DA693B699A61EC
:100ACC003B69002283F82C20FA7D3B69DB691946CF
:100ADC001046FFF791FEFB7D1846FFF7C5FE47E079
:100AEC003B699B6A1846FFF7E1FB04463B695B6A6E
:100AFC001846FFF7DBFB034619462046FFF7E2FCDE
:100B0C00034619464FF07E50FFF71EFB0346FB6071
:100B1C00F868FFF789FFF8603B69DB691A463B69A7
:100B2C001B6AD31ABB603B691B6A1C46B868FFF78B
:100B3C00C1FB0346F9681846FFF710FC034618463C
:100B4C00FFF7D2FD034623447B607B6823EAE37303
:100B5C003B603B699B693A689A4209D03B693A68A9
:100B6C009A61FB7D39681846FFF746FE00E000BF2E
:100B7C00FB7D0133FB75FB7D052B81D900BF00BFCD
:100B8C001C37BD4690BD00BFC000002080B582B0B0
:100B9C0000AF182200210F48FFF706FEA02200210B
:100BAC000D48FFF701FE0D4B01221A600023FB716B
:100BBC0007E0FB790A491846FFF7D8FEFB790133A9
:100BCC00FB71FB79052BF4D900BF00BF0837BD467C
:100BDC0080BD00BF000200201802002094000020FD
:100BEC00590C000880B485B000AF78600023FB601E
:100BFC0020E01549FA6813469B0013449B000B44F4
:100C0C000C331B78002B12D00F49FA6813469B004B
:100C1C0013449B000B441B687A689A4207D1FA680C
:100C2C0013469B0013449B00074A134406E0FB68E1
:100C3C000133FB60FB68072BDBDD00231846143700
:100C4C00BD4680BC704700BF1802002080B584B040
:100C5C0000AF0346FB71FB79052B37D8FB791F4A94
:100C6C0052F82330FB60FB68002B31D0F868FFF79B
:100C7C00B9FFB860BB68002B2CD0BB681B7B83F022
:100C8C000103DBB2002B25D1BB689A68FB790121EB
:100C9C0001FA03F31A43BB689A60FB790F4A0021EF
:100CAC0042F82310BB689A68BB685B689A4212D101
:100CBC00BB6800221A73BB681B69002B0BD0BB6886
:100CCC001B69BA6812681046984704E000BF02E03E
:100CDC0000BF00E000BF1037BD4680BD0002002001
:100CEC0080B584B000AF78607868FFF77BFFB860A0
:100CFC00BB68002B01D1002316E00023FB730FE02F
:100D0C00BB685A68FB7B012101FA03F31340002BEB
:100D1C0003D0FB7B1846FFF763FEFB7B0133FB73B1
:100D2C00FB7B052BECD9012318461037BD4680BD43
:100D3C0080B584B000AF78607868FFF753FFB86077
:100D4C00BB68002B01D1002316E00023FB730FE0DE
:100D5C00BB685A68FB7B012101FA03F31340002B9B
:100D6C0003D0FB7B1846FFF71BFEFB7B0133FB73A9
:100D7C00FB7B052BECD9012318461037BD4680BDF3
:100D8C0080B584B000AF78607B68042B02D94FF03B
:100D9C00FF331DE07B682C2202FB03F30E4A134445
:100DAC00FB60FB681B7F83F00103DBB2002B03D1DC
:100DBC00FB685B7F002B02D04FF0FF3308E0FB6831
:100DCC009B6A1846FFF78CFFFB6801225A770023B9
:100DDC0018461037BD4680BDB802002080B584B0DF
:100DEC0000AF78607B68042B02D94FF0FF3320E012
:100DFC007B682C2202FB03F3104A1344FB60FB6854
:100E0C001B7F83F00103DBB2002B06D1FB685B7FF9
:100E1C0083F00103DBB2002B02D04FF0FF3308E06C
:100E2C00FB689B6A1846FFF783FFFB6800225A7722
:100E3C00002318461037BD4680BD00BFB802002005
:100E4C0080B584B000AF264BDB6B1B685B689BB234
:100E5C00C3F58063FB81234B1B88FA899A423BD0F4
:100E6C00204B1B88FA899A4213D9FB891D4A128898
:100E7C009B1A7B601C4B1B68002B2AD01A4B1B68DF
:100E8C00184A12881146194A0A447968104698473C
:100E9C001FE0144B1B88C3F58063BB60124B1B68AF
:100EAC00002B09D0104B1B680E4A128811460F4AB2
:100EBC000A44B96810469847FB89002B09D00A4BA5
:100ECC001B68002B05D0084B1B68FA891146074894
:100EDC009847044AFB89138000BF1037BD4680BD7C
:100EEC009C120020940700209C07002094030020F3
:100EFC0080B582B000AF7860094A7B681360094BFB
:100F0C0000221A80084B00221A604FF480620749B5
:100F1C00074804F063F9002318460837BD4680BD26
:100F2C009C070020940700209807002094030020C1
:100F3C009C12002080B584B000AF786039607B686B
:100F4C00002B02D03B68002B01D1002310E03B6842
:100F5C009AB24FF0FF337968074804F044F803461F
:100F6C00FB73FB7B002B01D13B6801E04FF0FF339F
:100F7C0018461037BD4680BD9C12002080B584B049
:100F8C0000AF786039607B68002B02D03B68002B87
:100F9C0001D1002319E00F4B1B68002B02D04FF03E
:100FAC00FF3312E00B4B01221A603B689BB21A46CE
:100FBC007968094804F0A2F80346FB73FB7B002B0D
:100FCC0001D1002301E04FF0FF3318461037BD4626
:100FDC0080BD00BF980700209C12002080B500AF98
:100FEC00FFF72EFF00BF80BD80B400AF034B002283
:100FFC001A6000BFBD4680BC704700BF9807002038
:10100C0080B584B000AFF860B9607A60BB68002B23
:10101C0002D07B68002B03D10C4805F09DFA11E03F
:10102C007968B868FFF7AAFF0346002B03D008487D
:10103C0005F092FA06E0074805F08EFA7968B86870
:10104C0000F080FF1037BD4680BD00BF287D000832
:10105C00547D0008707D000880B582B000AF7860C8
:10106C0039600E4805F078FA386800F0B1FF39683D
:10107C00786800F001FF0A4B1B68002B09D0084B65
:10108C001B683A6890783A6851683A68127A92B25A
:10109C009847012318460837BD4680BD8C7D000853
:1010AC001C11002080B582B000AF786039607B687D
:1010BC00002B08D03B68002B05D03A6879680448AF
:1010CC0000F0E8FA00E000BF0837BD4680BD00BF65
:1010DC00A007002080B582B000AF7860184B1B7859
:1010EC00002B04D0174805F037FA012323E01648EB
:1010FC0005F032FA154A7B6813601548FFF7F8FEC5
:10110C000346002B04D0134805F026FA002312E006
:10111C000021114800F08EF810490F4800F08AF9B0
:10112C00074B01221A700E4805F016FA79680D4823
:10113C0005F078F9012318460837BD4680BD00BF7D
:10114C0020110020A87D0008C87D00081C1100207B
:10115C00B1100008E47D0008A0070020651000080D
:10116C00087E00082C7E000880B500AFFFF736FF24
:10117C0000BF80BD80B500AF024800F08FFE00BFFD
:10118C0080BD00BFA007002080B582B000AF7860A2
:10119C00142200217868FFF707FB00BF0837BD4613
:1011AC0080BD000080B582B000AF78607B6893F89A
:1011BC002138002B04D0074805F0CEF9002304E0B9
:1011CC007B68012283F82128012318460837BD4685
:1011DC0080BD00BFD47E000880B483B000AF7860BF
:1011EC007B68002283F8212800BF0C37BD4680BCE9
:1011FC00704780B400AF00231846BD4680BC7047D2
:10120C0080B483B000AF03460A46FB711346BB7132
:10121C00FB7918460C37BD4680BC704780B483B050
:10122C0000AF0346FB71FB7918460C37BD4680BCFA
:10123C007047000080B584B000AF78600B46FB703F
:10124C007B68002B04D10F4805F086F9002315E0CC
:10125C007B685B68FB607B681B68BB6040F67C123C
:10126C0000217868FFF7A0FA7B68FA685A607B68FF
:10127C00BA681A607B68FA781A720123184610371C
:10128C00BD4680BDF47E000880B483B000AF7860AA
:10129C007B68DA897B689A8100BF0C37BD4680BCBD
:1012AC00704780B58AB000AFF8600B467A60FB726D
:1012BC007B685B68002B2CD07B681B69002B03D1EF
:1012CC007B685B69002B0ED07B681B693B627B687B
:1012DC005B697B620023BB617B685B6807F114026E
:1012EC001146F86898477B6800225A607B68002298
:1012FC009A60FA7AFB6893F87839013B9A4209D1E3
:10130C00FB6893F87839013BDAB2FB6883F87829EB
:10131C0000E000BF2837BD4680BD80B485B000AF6B
:10132C00F8600B467A60FB727B6800225A60FA7A8E
:10133C00FB6893F87939013B9A4207D1FB6893F823
:10134C007939013BDAB2FB6883F8792900BF14378D
:10135C00BD4680BC704780B485B000AFF8600B46CA
:10136C007A60FB727B6800221A60FA7AFB6893F849
:10137C007A39013B9A4207D1FB6893F87A39013BE1
:10138C00DAB2FB6883F87A2900BF1437BD4680BCFB
:10139C007047000080B586B000AFF860B9607A6025
:1013AC003B600023FB7538E0FA7D13465B00134469
:1013BC00DB0003F50263FA68134404333B613B69B9
:1013CC005B68002B26D13B697A685A603B693A68A6
:1013DC009A60BB681A783B691A70BB68DA683B691B
:1013EC001A61BB681A693B695A613B693A8C9A81EC
:1013FC003B699A893B69DA81FB6893F87839FA7D05
:10140C009A4205D3FB7D0133DAB2FB6883F8782965
:10141C00012309E0FB7D0133FB75FB7D092BC3D94F
:10142C00034805F099F8002318461837BD4680BDCF
:10143C00487F000880B584B000AF78603960002325
:10144C00FB731FE0FB7B03F516739B007A68134458
:10145C000433BB60BB681B68002B10D1BB683A68B7
:10146C001A607B6893F87A39FA7B9A4205D3FB7B36
:10147C000133DAB27B6883F87A29012309E0FB7B1C
:10148C000133FB73FB7B042BDCD9044805F064F8B7
:10149C00002318461037BD4680BD00BF8C7F000866
:1014AC0080B58CB000AF786007F108031846FFF7E1
:1014BC006BFE7B689B7B3B7200237B727B6893F893
:1014CC001334BB727B681033FB607B68DB7B3B7433
:1014DC00002387F82F304EE097F82F2013465B003F
:1014EC001344DB0003F502637A6813440433FB6195
:1014FC00FB695B68002B39D0FB691A783B7A9A42FE
:10150C0034D1FB691B697B61FB695B69BB61FB695E
:10151C005B6807F10802114678689847034687F81C
:10152C0027307A69FB691A61BA69FB695A6197F8C5
:10153C002730002B1AD097F82730022B03D1F869EB
:10154C00FFF7A2FE9BE097F82730032B40F0978023
:10155C00FB6900221A61FB6900225A6197F82F304F
:10156C00FA6919467868FFF79CFE88E097F82F30E7
:10157C00013387F82F307B6893F8783997F82F2050
:10158C009A42A9D300237B610023BB61002387F817
:10159C002F3030E097F82F3003F59173DB007A6829
:1015AC00134404333B623B6A5B68002B1ED03B6ADE
:1015BC001A78BB7A9A4219D13B6A5B6807F1080228
:1015CC00114678689847034687F8273097F82730F4
:1015DC00002B0BD097F82730032B52D197F82F30D4
:1015EC003A6A19467868FFF798FE4AE097F82F3068
:1015FC00013387F82F307B6893F8793997F82F20CF
:10160C009A42C7D3002387F82F302BE097F82F305E
:10161C0003F516739B007A6813440433BB62BB6AF0
:10162C001B68002B19D0BB6A1B6807F10802114616
:10163C0078689847034687F8273097F82730002BAF
:10164C000BD097F82730032B1DD197F82F30BA6A9F
:10165C0019467868FFF77FFE15E097F82F300133B5
:10166C0087F82F307B6893F87A3997F82F209A42B5
:10167C00CCD3BB7A1946064804F0D4FE04E000BF74
:10168C0002E000BF00E000BF3037BD4680BD00BFA8
:10169C003480000880B586B000AFF860B9607A601D
:1016AC0000237B610AE0BA687B6913441B781946F6
:1016BC00F86800F03FF87B6901337B617A697B68DD
:1016CC009A42F0D300BF00BF1837BD4680BD80B42E
:1016DC0083B000AF78607B6800229A7200BF0C3731
:1016EC00BD4680BC704780B582B000AF7860FFF714
:1016FC0080FD03461A467B6883F811247B6893F8B7
:10170C00113401211846FFF77BFD03461A467B680E
:10171C0083F811247B68002283F814247B6803224D
:10172C009A727B68002283F8102400BF0837BD46EC
:10173C0080BD000080B582B000AF78600B46FB70B6
:10174C007B689B89092B09D97B689B7A002B05D078
:10175C007868FFF7BCFFB74804F0FEFE7B680022F8
:10176C009A817B689B7A062B00F27C8101A252F84D
:10177C0023F000BF9D17000809180008C5180008C1
:10178C00AD1700086518000863190008CF19000888
:10179C00FB78012B40F059817868FFF7A4FF54E1E6
:1017AC007B6893F81134FA7811461846FFF728FD38
:1017BC0003461A467B6883F811247B689B7B1B02CB
:1017CC005AB297F9033013435BB2DAB27B689A735F
:1017DC007B6893F810340133DAB27B6883F81024F9
:1017EC007B6893F81034012B40F031817B68012227
:1017FC009A727B68002283F8102428E17B6893F8A6
:10180C001134FA7811461846FFF7FAFC03461A46CB
:10181C007B6883F811247B68DB7B1B025AB297F937
:10182C00033013435BB2DAB27B68DA737B6893F8EC
:10183C0010340133DAB27B6883F810247B6893F898
:10184C001034012B40F005817B6804229A727B686E
:10185C00002283F81024FCE07B6893F81134FA78AA
:10186C0011461846FFF7CCFC03461A467B6883F8F2
:10187C0011247B6893F813341B025AB297F9033086
:10188C0013435BB2DAB27B6883F813247B6893F85A
:10189C0010340133DAB27B6883F810247B6893F838
:1018AC001034012B40F0D7807B6805229A727B683C
:1018BC00002283F81024CEE07B6893F812341B02CC
:1018CC005AB297F9033013435BB2DAB27B6883F8F0
:1018DC0012247B6893F810340133DAB27B6883F8F6
:1018EC0010247B6893F81034012B40F0B6807B6891
:1018FC0093F811341846FFF791FC03461A467B689F
:10190C0083F811247B6893F811247B6893F81234C4
:10191C009A4206D0484804F01FFE7868FFF7D7FEBD
:10192C00A0E07B68DB7B002B06D17868FFF7B8FD65
:10193C007868FFF7CCFE95E07B6805229A727B688D
:10194C00002283F81024FFF754FC03461A467B68E8
:10195C0083F8112481E07B6893F81434002B08D0B1
:10196C007B6893F810340133DAB27B6883F8102467
:10197C0019E07B6893F81134FA7811461846FFF792
:10198C003FFC03461A467B6883F811247B6893F866
:10199C0010345A1CD1B27A6882F810141A467B683B
:1019AC001344FA781A747B6893F810247B68DB7BF9
:1019BC009A4254D17868FFF773FD7868FFF787FE79
:1019CC004DE07B6893F812341B025AB297F903303E
:1019DC0013435BB2DAB27B6883F812247B6893F80A
:1019EC0010340133DAB27B6883F810247B6893F8E7
:1019FC001034012B35D17B6893F811341846FFF75E
:101A0C000DFC03461A467B6883F811247B6893F817
:101A1C00143483F00103DBB2002B12D07B6893F8F3
:101A2C0011247B6893F812349A4207D17868FFF737
:101A3C0037FD06E080800008948000080B4804F015
:101A4C008BFD7868FFF743FE0BE000BF0AE000BF98
:101A5C0008E000BF06E000BF04E000BF02E000BFEA
:101A6C0000E000BF00BF0837BD4680BDB080000855
:101A7C0080B588B000AFF860B9607A600023FB775E
:101A8C000023FB750023BB7700237B770023BB610E
:101A9C00FFF7AFFB03467B777B685B78002B03D0AB
:101AAC007B681B78BB7710E0FB685B7A5A1CD1B261
:101ABC00FA68517203F07F03BB77FB681B7A002B2B
:101ACC0003D0BB7F63F07F03BB777B68BA7F1A7050
:101ADC00FFF78FFB03467B77BB695A1CBA61BA6868
:101AEC00134401221A707B7F01211846FFF788FBF3
:101AFC0003467B770023FB771BE0BA7F97F91F30F7
:101B0C00DB0042FA03F3FB75BB695A1CBA61BA6875
:101B1C001344FA7D1A70FA7D7B7F11461846FFF745
:101B2C006FFB03467B7797F91F30DBB2013BDBB2CF
:101B3C00FB7797F91F30002BDFDA0023FB771DE0D2
:101B4C007B681B7A1A4697F91F30DB0042FA03F3C5
:101B5C00FB75BB695A1CBA61BA681344FA7D1A70DA
:101B6C00FA7D7B7F11461846FFF74AFB03467B77CD
:101B7C0097F91F30DBB2013BDBB2FB7797F91F30D3
:101B8C00002BDDDA0023FB771DE07B689B781A467F
:101B9C0097F91F30DB0042FA03F3FB75BB695A1C43
:101BAC00BA61BA681344FA7D1A70FA7D7B7F1146CC
:101BBC001846FFF725FB03467B7797F91F30DBB2FE
:101BCC00013BDBB2FB7797F91F30002BDDDABB69E9
:101BDC0018462037BD4680BD80B588B000AFF86090
:101BEC00B9603B601346FB710023FB770023FB7548
:101BFC000023BB610023FB7719E0FB7FBA68134419
:101C0C001B78FB75BB695A1CBA61FA681344FA7DE0
:101C1C001A703B681B78FA7D11461846FFF7F0FAEC
:101C2C0003461A463B681A70FB7F0133FB77FA7F39
:101C3C00FB799A42E1D3BB6918462037BD4680BD7B
:101C4C0080B485B000AF786039600023FB7300234B
:101C5C00BB730023BB60BB6818461437BD4680BC01
:101C6C00704780B586B002AFF860B9607A603B60AF
:101C7C00F868FFF797FA034683F00103DBB2002BF9
:101C8C0001D000232FE0FB6803F21543BA68194614
:101C9C00F868FFF7EDFE0246FB68C3F81828BB682E
:101CAC001B7A1A46FB68C3F81C287B68002B12D0E1
:101CBC003B8B00933B687A68B968F868FFF76AFB5E
:101CCC00034683F00103DBB2002B04D0F868FFF766
:101CDC0083FA002307E0FFF78CFA03461A46FB68E9
:101CEC0083F82028012318461037BD4680BD80B5E7
:101CFC0088B000AFF860B9607A600023BB617B6884
:101D0C00FB613EE0FB68D3F81838C3F58063FA69D1
:101D1C00934228BF13467B61FB6803F21542FB68B4
:101D2C00D3F81838D018BA68BB69D1187B69DAB205
:101D3C00FB6803F50263FFF74FFF0246FB68D3F81D
:101D4C0018381A44FB68C3F81828FA697B69D31A47
:101D5C00FB61BA697B691344BB61FB68D3F8183823
:101D6C00B3F5806F0DD1FB6803F21541FB68D3F816
:101D7C0018381A46F868FFF743F9FB680022C3F8D5
:101D8C001828FB69002BBDD100BF00BF2037BD4612
:101D9C0080BD80B582B000AF78607B68D3F81C380A
:101DAC00002B29D07B68D3F81838B3F5806F0DD190
:101DBC007B6803F215417B68D3F818381A467868AB
:101DCC00FFF71EF97B680022C3F818287B6803F222
:101DDC0015427B68D3F818381A447B6803F5026304
:101DEC0019461046FFF72CFF02467B68D3F81838CB
:101DFC001A447B68C3F818287B6803F215417B688A
:101E0C00D3F818381A467868FFF7FAF87868FFF7AD
:101E1C00E3F900BF0837BD4680BD80B586B002AF80
:101E2C00F860B9607A603B603B8B00933B687A68E2
:101E3C00B968F868FFF715FF034683F00103DBB2BE
:101E4C00002B01D0002313E0BB681B7A002B03D0BE
:101E5C00BB685B68002B0AD0BB685968BB681B7AEF
:101E6C001A46F868FFF743FFF868FFF792FF012363
:101E7C0018461037BD4680BD80B584B002AF78607F
:101E8C003960002300930023002239687868FFF73B
:101E9C00C4FF034618460837BD4680BD80B584B0E4
:101EAC0000AF78607B689B89092B05D87B689B8980
:101EBC0001339AB27B689A810023FB7335E0FA7B7D
:101ECC0013465B001344DB0003F502637A6813448A
:101EDC000433BB60BB685B68002B22D0BB689B895A
:101EEC00002B1ED0BB689B89013B9AB2BB689A81C0
:101EFC00BB689B89002B15D1BB681B781946104811
:101F0C0004F090FABB689B68002B03D0BB689B68FD
:101F1C0078689847FB7BBA6819467868FFF7C1F96F
:101F2C0000E000BFFB7B0133FB737B6893F87839CF
:101F3C00FA7B9A42C3D300BF00BF1037BD4680BDA9
:101F4C00CC80000880B584B000AF78603960002385
:101F5C00FB602AE07A68FB6813441B7819467A68A0
:101F6C00FB6813441B781A46154804F05BFA7A6830
:101F7C00FB6813441B781F2B0ED97A68FB6813443B
:101F8C001B787E2B08D87A68FB6813441B7819469B
:101F9C000C4804F047FA02E00B4804F043FA0A201C
:101FAC0004F058FAFB680133FB60FA683B689A420C
:101FBC00D0D3064804F0D0FA00BF1037BD4680BD20
:101FCC00F0800008048100080881000814810008D2
:101FDC0090B585B002AF78607B689B7818467B68BB
:101FEC001B7A1C467B685A687B681B7A19467B688F
:101FFC001B7801930091134622460146034804F0D6
:10200C0011FA00BF0C37BD4690BD00BF2C810008F3
:10201C0080B500AF01F0C2FD00F022F800F0ECF842
:10202C0000F056F900F08AF900F0D8F900F02EFA19
:10203C0000F086FA00F000FC00F028FC074800F0E5
:10204C00ABFEFEF7B9FBFEF743FCFEF79FFD00204D
:10205C00FFF740F8FFF788F8FCE700BF34110020C9
:10206C0080B590B000AF07F1180328220021184664
:10207C00FEF79AFB3B1D00221A605A609A60DA60E8
:10208C001A610123BB614FF48033FB6100233B6277
:10209C000123BB6202237B634FF48033BB634FF499
:1020AC00E013FB6307F11803184601F0D9FD034652
:1020BC00002B01D000F09AF80F237B600223BB6049
:1020CC000023FB604FF480633B6100237B613B1D6D
:1020DC000221184602F046F80346002B01D000F00E
:1020EC0085F800BF4037BD4680BD000080B582B08A
:1020FC0000AF78607B681B68044A934201D1FEF7FD
:10210C0073FF00BF0837BD4680BD00BF00480040CC
:10211C0080B582B000AF78607B681B68054A93423B
:10212C0003D1FEF7A7FCFFF725F800BF0837BD4623
:10213C0080BD00BF002C014080B584B000AF0346C9
:10214C00FB8001F083FDF860FB88B3F5807F1AD12A
:10215C001E4B1B68FA68D31A322B32D91B4AFB6808
:10216C0013601B4B01221A701A4B1B681846FEF7A2
:10217C0035FE194B1B681846FEF702FE1121174855
:10218C00FEF7D8FE1DE0FB88B3F5006F19D1144B98
:10219C001B68FA68D31A322B13D9114AFB681360E7
:1021AC00104B01221A700C4B1B681846FEF716FEDA
:1021BC00084B1B681846FEF7E3FD13210A48FEF78F
:1021CC00DDFE00BF1037BD4680BD00BF24110020CE
:1021DC00211100202C1100203011002078810008E2
:1021EC0028110020221100208C81000880B400AF3F
:1021FC0072B600BFFEE7000080B588B000AF07F1F3
:10220C00100300221A605A609A60DA602C4B9B69AA
:10221C002B4A43F020039361294B9B6903F0200365
:10222C00FB60FB68264B9B69254A43F008039361CE
:10223C00234B9B6903F00803BB60BB68204B9B6975
:10224C001F4A43F0040393611D4B9B6903F0040385
:10225C007B607B6800224FF400511A4802F094FA1C
:10226C004FF400533B6101237B610023BB610223CC
:10227C00FB6107F110031946124802F001F94FF403
:10228C0010633B61104B7B610123BB6107F11003B1
:10229C0019460E4802F0F4F800220021172002F033
:1022AC001CFE172002F035FE00220021282002F02F
:1022BC0014FE282002F02DFE00BF2037BD4680BD45
:1022CC0000100240000C01400000111000080140F9
:1022DC0080B582B000AF184B5B69174A43F001031D
:1022EC005361154B5B6903F001037B607B68002233
:1022FC0000210C2002F0F1FD0C2002F00AFE00225D
:10230C0000210D2002F0E9FD0D2002F002FE00225A
:10231C0000210E2002F0E1FD0E2002F0FAFD002259
:10232C0000210F2002F0D9FD0F2002F0F2FD00BFBA
:10233C000837BD4680BD00BF0010024080B586B096
:10234C0000AF07F1080300221A605A609A60DA6045
:10235C003B4600221A605A601E4B1F4A1A601D4BE6
:10236C0041F61F425A601B4B00229A60194B0922FE
:10237C00DA60184B00221A61164B00225A61154B79
:10238C0000229A61134800F0B7FC0346002B01D0E1
:10239C00FFF72CFF4FF48053BB6007F1080319467D
:1023AC000C4800F0EFFF0346002B01D0FFF71EFF97
:1023BC0000233B6000237B603B461946054801F037
:1023CC007DFB0346002B01D0FFF710FF00BF183731
:1023DC00BD4680BD34110020002C014080B58AB070
:1023EC0000AF07F1200300221A605A603B1D002247
:1023FC001A605A609A60DA601A615A619A61224BCB
:10240C004FF080421A60204B47225A601E4B00222C
:10241C009A601D4B44F61F62DA601B4B00221A6156
:10242C00194B80229A61184800F008FD0346002BD6
:10243C0001D0FFF7DBFE00233B6200237B6207F138
:10244C0020031946104801F039FB0346002B01D03C
:10245C00FFF7CCFE60237B600023BB600023FB6096
:10246C0000237B613B1D04221946074800F0C8FE7F
:10247C000346002B01D0FFF7B9FE034800F044F9E6
:10248C0000BF2837BD4680BD7C11002080B58AB0C6
:10249C0000AF07F1200300221A605A603B1D002296
:1024AC001A605A609A60DA601A615A619A61224B1A
:1024BC00224A1A60204B47225A601F4B00229A6016
:1024CC001D4B44F61F62DA601B4B00221A611A4B3B
:1024DC0080229A61184800F0B1FC0346002B01D011
:1024EC00FFF784FE00233B6200237B6207F120038D
:1024FC001946114801F0E2FA0346002B01D0FFF710
:10250C0075FE60237B600023BB600023FB6000230F
:10251C007B613B1D00221946074800F071FE034603
:10252C00002B01D0FFF762FE034800F0EDF800BF6E
:10253C002837BD4680BD00BFC411002000040040F8
:10254C0080B58AB000AF07F1200300221A605A60F0
:10255C003B1D00221A605A609A60DA601A615A6157
:10256C009A61324B324A1A60304B47225A602F4BD9
:10257C0000229A602D4B44F61F62DA602B4B00222E
:10258C001A612A4B80229A61284800F057FC0346B6
:10259C00002B01D0FFF72AFE00233B6200237B6255
:1025AC0007F120031946214801F088FA0346002B55
:1025BC0001D0FFF71BFE60237B600023BB60002370
:1025CC00FB6000237B613B1D00221946174800F07D
:1025DC0017FE0346002B01D0FFF708FE3B1D04221B
:1025EC001946124800F00CFE0346002B01D0FFF7F1
:1025FC00FDFD3B1D082219460C4800F001FE034668
:10260C00002B01D0FFF7F2FD3B1D0C2219460748A9
:10261C0000F0F6FD0346002B01D0FFF7E7FD034861
:10262C0000F072F800BF2837BD4680BD0C120020A8
:10263C000008004080B584B000AF78607B681B68F0
:10264C000D4A934213D10D4B9B690C4A43F4006322
:10265C0093610A4B9B6903F40063FB60FB680022E7
:10266C000021192002F039FC192002F052FC00BFA5
:10267C001037BD4680BD00BF002C01400010024049
:10268C0080B487B000AF78607B681B68B3F1804F73
:10269C000CD11A4BDB69194A43F00103D361174B78
:1026AC00DB6903F001037B617B6922E07B681B68BB
:1026BC00134A93420CD1114BDB69104A43F00203CD
:1026CC00D3610E4BDB6903F002033B613B6910E005
:1026DC007B681B680B4A93420BD1084BDB69074A9A
:1026EC0043F00403D361054BDB6903F00403FB6087
:1026FC00FB6800BF1C37BD4680BC70470010024011
:10270C00000400400008004080B58CB000AF786039
:10271C0007F1180300221A605A609A60DA607B682D
:10272C001B68B3F1804F2AD13E4B9B693D4A43F065
:10273C00080393613B4B9B6903F008037B617B6946
:10274C000823BB610223FB6102237B6207F11803A0
:10275C001946354801F094FE344B5B68BB62BB6A8A
:10276C0023F44073BB62BB6A43F0E063BB62BB6A99
:10277C0043F48073BB622D4ABB6A53604DE07B68A7
:10278C001B682B4A93422AD1264B9B69254A43F05E
:10279C0008039361234B9B6903F008033B613B697E
:1027AC001023BB610223FB6102237B6207F1180338
:1027BC0019461D4801F064FE1C4B5B68FB62FB6A0A
:1027CC0023F44063FB62FB6A43F0E063FB62FB6A49
:1027DC0043F40063FB62154AFB6A53601DE07B689F
:1027EC001B68144A934218D10E4B9B690D4A43F057
:1027FC00080393610B4B9B6903F00803FB60FB68B8
:10280C004FF47073BB610223FB6102237B6207F1FF
:10281C0018031946044801F033FE00BF3037BD469B
:10282C0080BD00BF00100240000C014000000140C0
:10283C00000400400008004080B500AF114B124A64
:10284C001A60104B4FF4E1325A600E4B00229A6022
:10285C000C4B0022DA600B4B00221A61094B0C2244
:10286C005A61084B00229A61064B0022DA61054836
:10287C0002F069FB0346002B01D0FFF7B7FC00BF49
:10288C0080BD00BF541200200038014080B500AF5D
:10289C00114B124A1A60104B4FF4E1325A600E4B36
:1028AC0000229A600C4B0022DA600B4B00221A615A
:1028BC00094B0C225A61084B00229A61064B0022EC
:1028CC00DA61054802F03FFB0346002B01D0FFF70D
:1028DC008DFC00BF80BD00BF9C1200200048004052
:1028EC0080B58AB000AF786007F1180300221A6037
:1028FC005A609A60DA607B681B688F4A934240F09A
:10290C0089808E4B9B698D4A43F4804393618B4B3A
:10291C009B6903F480437B617B69884B9B69874A85
:10292C0043F004039361854B9B6903F004033B6103
:10293C003B694FF40073BB610223FB6103237B6291
:10294C0007F1180319467E4801F09AFD4FF4806395
:10295C00BB610023FB6100233B6207F1180319469E
:10296C00774801F08DFD774B774A1A60754B002242
:10297C005A60744B00229A60724B8022DA60714B61
:10298C0000221A616F4B00225A616E4B20229A6111
:10299C006C4B4FF40052DA616A4801F025FF034694
:1029AC00002B01D0FFF722FC7B68664ADA63654A8C
:1029BC007B685362654B664A1A60644B10225A60FE
:1029CC00624B00229A60614B8022DA605F4B0022DE
:1029DC001A615E4B00225A615C4B00229A615B4B80
:1029EC004FF40052DA61594801F0FEFE0346002B09
:1029FC0001D0FFF7FBFB7B68544A9A63534A7B6810
:102A0C00536200220021252002F067FA252002F0F3
:102A1C0080FA8DE07B681B684E4A934240F08880B8
:102A2C00464BDB69454A43F48023D361434BDB6956
:102A3C0003F48023FB60FB68404B9B693F4A43F0E7
:102A4C00080393613D4B9B6903F00803BB60BB68B3
:102A5C004FF48063BB610223FB6103237B6207F1AC
:102A6C00180319463C4801F00BFD4FF40063BB61A1
:102A7C000023FB6100233B6207F11803194636481B
:102A8C0001F0FEFC354B364A1A60344B00225A607A
:102A9C00324B00229A60314B8022DA602F4B00229D
:102AAC001A612E4B00225A612C4B20229A612B4B1F
:102ABC004FF44052DA61294801F096FE0346002B90
:102ACC0001D0FFF793FB7B68244ADA63234A7B68C7
:102ADC005362244B244A1A60224B10225A60214B19
:102AEC0000229A601F4B8022DA601E4B00221A6172
:102AFC001C4B00225A611B4B00229A61194B4FF45C
:102B0C004052DA61174801F06FFE0346002B01D0EA
:102B1C00FFF76CFB7B68134A9A63124A7B6853621B
:102B2C0000220021272002F0D8F9272002F0F1F929
:102B3C0000BF2837BD4680BD003801400010024060
:102B4C0000080140E4120020580002402813002025
:102B5C004400024000480040000C01406C1300206F
:102B6C0030000240B01300201C00024080B584B03D
:102B7C0000AFF860B9607A607B689AB24FF6FF7369
:102B8C00B968044802F02FFA7B6818461037BD4626
:102B9C0080BD00BF5412002080B400AFFEE780B4AB
:102BAC0000AFFEE780B400AFFEE780B400AFFEE7F5
:102BBC0080B400AFFEE780B400AF00BFBD4680BC60
:102BCC00704780B400AF00BFBD4680BC704780B476
:102BDC0000AF00BFBD4680BC704780B500AF01F0B0
:102BEC0023F800BF80BD000080B500AF024801F0A3
:102BFC0069FF00BF80BD00BFB013002080B500AFDF
:102C0C00024801F05FFF00BF80BD00BF6C130020C5
:102C1C0080B500AF024801F055FF00BF80BD00BF7A
:102C2C002813002080B500AF024801F04BFF00BF15
:102C3C0080BD00BFE412002080B500AF4FF480705F
:102C4C0001F0BAFD00BF80BD80B500AF024800F0B6
:102C5C00E7F900BF80BD00BF3411002080B500AF84
:102C6C00024802F0E1FA00BF80BD00BF5412002000
:102C7C0080B500AF024802F0D7FA00BF80BD00BF9C
:102C8C009C12002080B500AF4FF4006001F094FD61
:102C9C0000BF80BD80B485B000AF154B9B69144A52
:102CAC0043F001039361124B9B6903F00103BB607A
:102CBC00BB680F4BDB690E4A43F08053D3610C4B5E
:102CCC00DB6903F080537B607B680A4B5B68FB60BD
:102CDC00FB6823F0E063FB60FB6843F08063FB6000
:102CEC00044AFB68536000BF1437BD4680BC704774
:102CFC00001002400000014080B582B000AF786047
:102D0C007B68002B01D1012341E07B6893F83D30B7
:102D1C00DBB2002B06D17B68002283F83C2078685C
:102D2C00FFF788FC7B68022283F83D207B681A68D9
:102D3C007B6804331946104600F010FC7B680122B6
:102D4C0083F846207B68012283F83E207B680122B1
:102D5C0083F83F207B68012283F840207B680122A6
:102D6C0083F841207B68012283F842207B68012292
:102D7C0083F843207B68012283F844207B6801227E
:102D8C0083F845207B68012283F83D2000231846F8
:102D9C000837BD4680BD000080B485B000AF7860B8
:102DAC007B6893F83D30DBB2012B01D001233AE074
:102DBC007B68022283F83D207B681B68DA687B689D
:102DCC001B6842F00102DA607B681B68184A934268
:102DDC000ED07B681B68B3F1804F09D07B681B68F1
:102DEC00144A934204D07B681B68134A934211D156
:102DFC007B681B689B6803F00703FB60FB68062B72
:102E0C0010D07B681B681A687B681B6842F0010253
:102E1C001A6007E07B681B681A687B681B6842F0C5
:102E2C0001021A60002318461437BD4680BC704757
:102E3C00002C0140000400400008004080B582B026
:102E4C0000AF78607B68002B01D1012341E07B68E7
:102E5C0093F83D30DBB2002B06D17B68002283F85F
:102E6C003C207868FFF70CFC7B68022283F83D203D
:102E7C007B681A687B6804331946104600F06EFBB9
:102E8C007B68012283F846207B68012283F83E2070
:102E9C007B68012283F83F207B68012283F8402065
:102EAC007B68012283F841207B68012283F8422051
:102EBC007B68012283F843207B68012283F844203D
:102ECC007B68012283F845207B68012283F83D2032
:102EDC00002318460837BD4680BD000080B584B07D
:102EEC0000AF786039603B68002B09D17B6893F8A0
:102EFC003E30DBB2012B14BF01230023DBB222E0F6
:102F0C003B68042B09D17B6893F83F30DBB2012B73
:102F1C0014BF01230023DBB215E03B68082B09D159
:102F2C007B6893F84030DBB2012B14BF01230023E4
:102F3C00DBB208E07B6893F84130DBB2012B14BFA5
:102F4C0001230023DBB2002B01D001235EE03B68A0
:102F5C00002B04D17B68022283F83E2013E03B68EF
:102F6C00042B04D17B68022283F83F200BE03B68E2
:102F7C00082B04D17B68022283F8402003E07B6895
:102F8C00022283F841207B681B68012239681846AD
:102F9C0000F070FD7B681B681E4A934207D17B686A
:102FAC001B685A6C7B681B6842F400425A647B684D
:102FBC001B68184A93420ED07B681B68B3F1804F94
:102FCC0009D07B681B68144A934204D07B681B6849
:102FDC00124A934211D17B681B689B6803F007036C
:102FEC00FB60FB68062B10D07B681B681A687B683B
:102FFC001B6842F001021A6007E07B681B681A68C4
:10300C007B681B6842F001021A60002318461037D7
:10301C00BD4680BD002C014000040040000800406B
:10302C0080B584B000AF78607B681B68DB68FB60A0
:10303C007B681B681B69BB60BB6803F00203002B39
:10304C0020D0FB6803F00203002B1BD07B681B68AD
:10305C006FF002021A617B6801221A777B681B6889
:10306C009B6903F00303002B03D0786800F05AFA35
:10307C0005E0786800F04DFA786800F05CFA7B683F
:10308C0000221A77BB6803F00403002B20D0FB68E6
:10309C0003F00403002B1BD07B681B686FF0040249
:1030AC001A617B6802221A777B681B689B6903F4A0
:1030BC004073002B03D0786800F034FA05E0786890
:1030CC0000F027FA786800F036FA7B6800221A774D
:1030DC00BB6803F00803002B20D0FB6803F0080347
:1030EC00002B1BD07B681B686FF008021A617B6891
:1030FC0004221A777B681B68DB6903F00303002B3F
:10310C0003D0786800F00EFA05E0786800F001FA58
:10311C00786800F010FA7B6800221A77BB6803F01D
:10312C001003002B20D0FB6803F01003002B1BD0E6
:10313C007B681B686FF010021A617B6808221A7793
:10314C007B681B68DB6903F44073002B03D0786841
:10315C0000F0E8F905E0786800F0DBF9786800F039
:10316C00EAF97B6800221A77BB6803F00103002B95
:10317C000CD0FB6803F00103002B07D07B681B68A5
:10318C006FF001021A617868FEF7C2FFBB6803F0AA
:10319C008003002B0CD0FB6803F08003002B07D0BE
:1031AC007B681B686FF080021A61786800F0EDFC98
:1031BC00BB6803F04003002B0CD0FB6803F040030A
:1031CC00002B07D07B681B686FF040021A6178688F
:1031DC0000F0BAF9BB6803F02003002B0CD0FB689D
:1031EC0003F02003002B07D07B681B686FF02002D4
:1031FC001A61786800F0C0FC00BF1037BD4680BD76
:10320C0080B586B000AFF860B9607A600023FB75BA
:10321C00FB6893F83C30012B01D10223AEE0FB6834
:10322C00012283F83C207B680C2B00F29F8001A2CA
:10323C0052F823F07532000879330008793300080E
:10324C0079330008B5320008793300087933000867
:10325C0079330008F7320008793300087933000815
:10326C007933000837330008FB681B68B9681846C7
:10327C0000F0E2F9FB681B689A69FB681B6842F076
:10328C0008029A61FB681B689A69FB681B6822F04C
:10329C0004029A61FB681B689969BB681A69FB6830
:1032AC001B680A439A6164E0FB681B68B96818469E
:1032BC0000F028FAFB681B689A69FB681B6842F4EB
:1032CC0000629A61FB681B689A69FB681B6822F4B0
:1032DC0080629A61FB681B689969BB681B691A025A
:1032EC00FB681B680A439A6143E0FB681B68B9687A
:1032FC00184600F071FAFB681B68DA69FB681B68FA
:10330C0042F00802DA61FB681B68DA69FB681B682B
:10331C0022F00402DA61FB681B68D969BB681A6980
:10332C00FB681B680A43DA6123E0FB681B68B96819
:10333C00184600F0BBFAFB681B68DA69FB681B686F
:10334C0042F40062DA61FB681B68DA69FB681B688F
:10335C0022F48062DA61FB681B68D969BB681B695F
:10336C001A02FB681B680A43DA6102E00123FB7551
:10337C0000BFFB68002283F83C20FB7D1846183701
:10338C00BD4680BD80B584B000AF78603960002345
:10339C00FB737B6893F83C30012B01D10223B4E022
:1033AC007B68012283F83C207B68022283F83D2055
:1033BC007B681B689B68BB60BB6823F07703BB60B2
:1033CC00BB6823F47F43BB607B681B68BA689A6058
:1033DC003B681B68B3F5005F3ED0B3F5005F00F2AD
:1033EC008780B3F5805F00F08680B3F5805F7FD86F
:1033FC00702B1AD0702B7BD8602B50D0602B77D8C9
:10340C00502B3CD0502B73D8402B58D0402B6FD81E
:10341C00302B64D0302B6BD8202B60D0202B67D86E
:10342C00002B5CD0102B5AD062E07B6818683B688C
:10343C0099683B685A683B68DB6800F0FCFA7B686B
:10344C001B689B68BB60BB6843F07703BB607B6801
:10345C001B68BA689A604FE07B6818683B6899688B
:10346C003B685A683B68DB6800F0E5FA7B681B68D0
:10347C009A687B681B6842F480429A603CE07B68E7
:10348C0018683B6859683B68DB681A4600F05CFAC0
:10349C007B681B685021184600F0B3FA2CE07B685F
:1034AC0018683B6859683B68DB681A4600F07AFA82
:1034BC007B681B686021184600F0A3FA1CE07B684F
:1034CC0018683B6859683B68DB681A4600F03CFAA0
:1034DC007B681B684021184600F093FA0CE07B686F
:1034EC001A683B681B681946104600F08AFA03E01C
:1034FC000123FB7300E000BF7B68012283F83D20B1
:10350C007B68002283F83C20FB7B18461037BD46B5
:10351C0080BD80B483B000AF786000BF0C37BD466F
:10352C0080BC704780B483B000AF786000BF0C37AC
:10353C00BD4680BC704780B483B000AF786000BFDC
:10354C000C37BD4680BC704780B483B000AF786048
:10355C0000BF0C37BD4680BC7047000080B485B0FE
:10356C0000AF786039607B681B68FB607B682F4A12
:10357C0093420BD07B68B3F1804F07D07B682C4A09
:10358C00934203D07B682B4A934208D1FB6823F00B
:10359C007003FB603B685B68FA681343FB607B68F5
:1035AC00224A93420BD07B68B3F1804F07D07B68E3
:1035BC001F4A934203D07B681E4A934208D1FB6892
:1035CC0023F44073FB603B68DB68FA681343FB60D1
:1035DC00FB6823F080023B685B691343FB607B68EC
:1035EC00FA681A603B689A687B68DA623B681A680A
:1035FC007B689A627B680D4A934203D13B681A69D7
:10360C007B681A637B6801225A617B681B6903F033
:10361C000103002B05D07B681B6923F001027B683A
:10362C001A6100BF1437BD4680BC7047002C0140A6
:10363C00000400400008004080B487B000AF786000
:10364C0039607B681B6A7B617B681B6A23F0010213
:10365C007B681A627B685B683B617B689B69FB607B
:10366C00FB6823F07003FB60FB6823F00303FB6033
:10367C003B681B68FA681343FB607B6923F0020309
:10368C007B613B689B687A6913437B617B681C4A4E
:10369C0093420CD17B6923F008037B613B68DB68A8
:1036AC007A6913437B617B6923F004037B617B683C
:1036BC00134A934211D13B6923F480733B613B69FC
:1036CC0023F400733B613B685B693A6913433B61CC
:1036DC003B689B693A6913433B617B683A695A6062
:1036EC007B68FA689A613B685A687B685A637B68A6
:1036FC007A691A6200BF1C37BD4680BC704700BF98
:10370C00002C014080B487B000AF786039607B68D2
:10371C001B6A7B617B681B6A23F010027B681A6250
:10372C007B685B683B617B689B69FB60FB6823F48F
:10373C00E043FB60FB6823F44073FB603B681B6851
:10374C001B02FA681343FB607B6923F020037B6147
:10375C003B689B681B017A6913437B617B681D4A3C
:10376C0093420DD17B6923F080037B613B68DB685E
:10377C001B017A6913437B617B6923F040037B61F6
:10378C007B68144A934213D13B6923F480633B61F9
:10379C003B6923F400633B613B685B699B003A69BE
:1037AC0013433B613B689B699B003A6913433B6144
:1037BC007B683A695A607B68FA689A613B685A6818
:1037CC007B689A637B687A691A6200BF1C37BD46B6
:1037DC0080BC7047002C014080B487B000AF78608B
:1037EC0039607B681B6A7B617B681B6A23F480727F
:1037FC007B681A627B685B683B617B68DB69FB609A
:10380C00FB6823F07003FB60FB6823F00303FB6091
:10381C003B681B68FA681343FB607B6923F40073F5
:10382C007B613B689B681B027A6913437B617B68F5
:10383C001D4A93420DD17B6923F400637B613B6885
:10384C00DB681B027A6913437B617B6923F4806319
:10385C007B617B68144A934213D13B6923F48053F8
:10386C003B613B6923F400533B613B685B691B0183
:10387C003A6913433B613B689B691B013A691343EB
:10388C003B617B683A695A607B68FA68DA613B682D
:10389C005A687B68DA637B687A691A6200BF1C37E6
:1038AC00BD4680BC704700BF002C014080B487B07F
:1038BC0000AF786039607B681B6A3B617B681B6A70
:1038CC0023F480527B681A627B685B687B617B683F
:1038DC00DB69FB60FB6823F4E043FB60FB6823F4CB
:1038EC004073FB603B681B681B02FA681343FB6068
:1038FC003B6923F400533B613B689B681B033A69AB
:10390C0013433B617B680F4A934209D17B6923F4D3
:10391C0080437B613B685B699B017A6913437B61E4
:10392C007B687A695A607B68FA68DA613B685A6826
:10393C007B681A647B683A691A6200BF1C37BD4603
:10394C0080BC7047002C014080B487B000AFF86099
:10395C00B9607A60FB681B6A7B61FB681B6A23F0A9
:10396C000102FB681A62FB689B693B613B6923F0AF
:10397C00F0033B617B681B013A6913433B617B6934
:10398C0023F00A037B617A69BB6813437B61FB6894
:10399C003A699A61FB687A691A6200BF1C37BD46A6
:1039AC0080BC704780B487B000AFF860B9607A60B3
:1039BC00FB681B6A7B61FB681B6A23F01002FB68C7
:1039CC001A62FB689B693B613B6923F470433B6162
:1039DC007B681B033A6913433B617B6923F0A003AB
:1039EC007B61BB681B017A6913437B61FB683A6995
:1039FC009A61FB687A691A6200BF1C37BD4680BCAD
:103A0C00704780B485B000AF786039607B689B6884
:103A1C00FB60FB6823F07003FB603A68FB681343A0
:103A2C0043F00703FB607B68FA689A6000BF1437A9
:103A3C00BD4680BC704780B487B000AFF860B960F9
:103A4C007A603B60FB689B687B617B6923F47F43F6
:103A5C007B613B681A027B681A43BB6813437A6923
:103A6C0013437B61FB687A699A6000BF1C37BD46C3
:103A7C0080BC704780B487B000AFF860B9607A60E2
:103A8C00BB6803F01F03012202FA03F37B61FB689E
:103A9C001A6A7B69DB431A40FB681A62FB681A6A74
:103AAC00BB6803F01F03796801FA03F31A43FB6840
:103ABC001A6200BF1C37BD4680BC704780B485B00D
:103ACC0000AF786039607B6893F83C30012B01D1F2
:103ADC00022346E07B68012283F83C207B680222AB
:103AEC0083F83D207B681B685B68FB607B681B6808
:103AFC009B68BB60FB6823F07003FB603B681B6832
:103B0C00FA681343FB607B681B68FA685A607B6831
:103B1C001B68164A93420ED07B681B68B3F1804F2A
:103B2C0009D07B681B68124A934204D07B681B68DF
:103B3C00104A93420CD1BB6823F08003BB603B68F6
:103B4C005B68BA681343BB607B681B68BA689A6091
:103B5C007B68012283F83D207B68002283F83C209F
:103B6C00002318461437BD4680BC7047002C01401A
:103B7C00000400400008004080B483B000AF7860BF
:103B8C0000BF0C37BD4680BC704780B483B000AF1B
:103B9C00786000BF0C37BD4680BC704780B500AF65
:103BAC00084B1B68074A43F010031360032001F015
:103BBC0089F90F2000F008F8FFF76CF8002318467D
:103BCC0080BD00BF0020024080B582B000AF78609D
:103BDC00124B1A68124B1B7819464FF47A73B3FBCD
:103BEC00F1F3B2FBF3F3184601F0A1F90346002BF5
:103BFC0001D001230EE07B680F2B0AD800227968D4
:103C0C004FF0FF3001F069F9064A7B68136000231E
:103C1C0000E0012318460837BD4680BDA0000020F7
:103C2C009C0000209800002080B400AF054B1B784E
:103C3C001A46054B1B681344034A136000BFBD466C
:103C4C0080BC70479C000020F413002080B400AFAF
:103C5C00024B1B681846BD4680BC7047F41300200D
:103C6C0080B586B000AF78607B68002B01D1012352
:103C7C0072E27B681B6803F00103002B00F0878065
:103C8C00924B5B6803F00C03042B0CD08F4B5B68DE
:103C9C0003F00C03082B12D18C4B5B6803F48033BC
:103CAC00B3F5803F0BD1894B1B6803F40033002B19
:103CBC006CD07B685B68002B68D101234CE27B687D
:103CCC005B68B3F5803F06D1804B1B687F4A43F499
:103CDC00803313602EE07B685B68002B0CD17B4B30
:103CEC001B687A4A23F480331360784B1B68774A3D
:103CFC0023F4802313601DE07B685B68B3F5A02F71
:103D0C000CD1724B1B68714A43F4802313606F4BC8
:103D1C001B686E4A43F4803313600BE06B4B1B68DB
:103D2C006A4A23F480331360684B1B68674A23F498
:103D3C00802313607B685B68002B13D0FFF786FF32
:103D4C00386108E0FFF782FF02463B69D31A642B07
:103D5C0001D9032300E25D4B1B6803F40033002BF5
:103D6C00F0D014E0FFF772FF386108E0FFF76EFF48
:103D7C0002463B69D31A642B01D90323ECE1534B64
:103D8C001B6803F40033002BF0D100E000BF7B680C
:103D9C001B6803F00203002B63D04C4B5B6803F0F1
:103DAC000C03002B0BD0494B5B6803F00C03082B66
:103DBC001CD1464B5B6803F48033002B16D1434B6C
:103DCC001B6803F00203002B05D07B681B69012BD9
:103DDC0001D00123C0E13D4B1B6823F0F8027B6846
:103DEC005B69DB00394913430B603AE07B681B6964
:103DFC00002B20D0364B01221A60FFF727FF3861C9
:103E0C0008E0FFF723FF02463B69D31A022B01D9C6
:103E1C000323A1E12D4B1B6803F00203002BF0D010
:103E2C002A4B1B6823F0F8027B685B69DB0027498F
:103E3C0013430B6015E0264B00221A60FFF706FFB8
:103E4C00386108E0FFF702FF02463B69D31A022BE8
:103E5C0001D9032380E11D4B1B6803F00203002BE7
:103E6C00F0D17B681B6803F00803002B3AD07B6809
:103E7C009B69002B19D0174B01221A60FFF7E6FE45
:103E8C00386108E0FFF7E2FE02463B69D31A022BC9
:103E9C0001D9032360E10D4B5B6A03F00203002B95
:103EAC00F0D0012000F0CEFA1CE00A4B00221A6080
:103EBC00FFF7CCFE38610FE0FFF7C8FE02463B6906
:103ECC00D31A022B08D9032346E100BF001002408D
:103EDC000000424280044242924B5B6A03F00203B0
:103EEC00002BE9D17B681B6803F00403002B00F066
:103EFC00A6800023FB758B4BDB6903F08053002BF2
:103F0C000DD1884BDB69874A43F08053D361854BD5
:103F1C00DB6903F08053BB60BB680123FB75824BEC
:103F2C001B6803F48073002B18D17F4B1B687E4AEF
:103F3C0043F480731360FFF789FE386108E0FFF7E4
:103F4C0085FE02463B69D31A642B01D9032303E196
:103F5C00754B1B6803F48073002BF0D07B68DB6817
:103F6C00012B06D16F4B1B6A6E4A43F0010313629F
:103F7C002DE07B68DB68002B0CD16A4B1B6A694A0D
:103F8C0023F001031362674B1B6A664A23F0040398
:103F9C0013621CE07B68DB68052B0CD1614B1B6A40
:103FAC00604A43F0040313625E4B1B6A5D4A43F0A4
:103FBC00010313620BE05B4B1B6A5A4A23F00103AB
:103FCC001362584B1B6A574A23F0040313627B6835
:103FDC00DB68002B15D0FFF739FE38610AE0FFF7DC
:103FEC0035FE02463B69D31A41F28832934201D91D
:103FFC000323B1E04B4B1B6A03F00203002BEED002
:10400C0014E0FFF723FE38610AE0FFF71FFE0246BB
:10401C003B69D31A41F28832934201D903239BE0C6
:10402C00404B1B6A03F00203002BEED1FB7D012BEE
:10403C0005D13C4BDB693B4A23F08053D3617B6851
:10404C00DB69002B00F08780364B5B6803F00C03B8
:10405C00082B61D07B68DB69022B46D1334B0022E5
:10406C001A60FFF7F3FD386108E0FFF7EFFD024639
:10407C003B69D31A022B01D903236DE0294B1B6832
:10408C0003F00073002BF0D17B681B6AB3F5803F03
:10409C0008D1244B5B6823F400327B689B68214970
:1040AC0013434B601F4B5B6823F474127B68196AD3
:1040BC007B685B6A0B431B4913434B601B4B012210
:1040CC001A60FFF7C3FD386108E0FFF7BFFD024639
:1040DC003B69D31A022B01D903233DE0114B1B681A
:1040EC0003F00073002BF0D035E0104B00221A6067
:1040FC00FFF7ACFD386108E0FFF7A8FD02463B690D
:10410C00D31A022B01D9032326E0064B1B6803F0BC
:10411C000073002BF0D11EE07B68DB69012B07D10B
:10412C00012319E000100240007000406000424280
:10413C000B4B5B68FB60FB6803F480327B681B6A8B
:10414C009A4206D1FB6803F470127B685B6A9A4250
:10415C0001D0012300E0002318461837BD4680BD6E
:10416C000010024080B584B000AF786039607B6885
:10417C00002B01D10123D0E06A4B1B6803F007032D
:10418C003A689A4210D9674B1B6823F007026549BD
:10419C003B6813430B60634B1B6803F007033A68DF
:1041AC009A4201D00123B8E07B681B6803F002033C
:1041BC00002B20D07B681B6803F00403002B05D078
:1041CC00594B5B68584A43F4E06353607B681B6847
:1041DC0003F00803002B05D0534B5B68524A43F4A1
:1041EC0060535360504B5B6823F0F0027B689B6814
:1041FC004D4913434B607B681B6803F00103002B94
:10420C0040D07B685B68012B07D1474B1B6803F4DC
:10421C000033002B15D101237FE07B685B68022BF8
:10422C0007D1414B1B6803F00073002B09D101230C
:10423C0073E03D4B1B6803F00203002B01D10123FB
:10424C006BE0394B5B6823F003027B685B68364993
:10425C0013434B60FFF7FAFCF8600AE0FFF7F6FC3B
:10426C000246FB68D31A41F28832934201D90323E8
:10427C0053E02D4B5B6803F00C027B685B689B0082
:10428C009A42EBD1274B1B6803F007033A689A421A
:10429C0010D2244B1B6823F0070222493B681343BE
:1042AC000B60204B1B6803F007033A689A4201D05D
:1042BC00012332E07B681B6803F00403002B08D059
:1042CC00194B5B6823F4E0627B68DB681649134387
:1042DC004B607B681B6803F00803002B09D0124B62
:1042EC005B6823F460527B681B69DB000E49134347
:1042FC004B6000F021F802460B4B5B681B0903F086
:10430C000F030A49CB5C22FA03F3094A1360094BE9
:10431C001B681846FFF758FC002318461037BD469B
:10432C0080BD00BF0020024000100240B881000890
:10433C00A00000209800002080B487B000AF0023BC
:10434C00FB600023BB6000237B6100237B600023A8
:10435C003B611E4B5B68FB60FB6803F00C03042B9A
:10436C0002D0082B03D027E0194B3B6127E0FB68F8
:10437C009B0C03F00F03174AD35C7B60FB6803F4C0
:10438C008033002B10D0114B5B685B0C03F00103E6
:10439C00114AD35CBB607B680D4A03FB02F2BB681D
:1043AC00B2FBF3F37B6104E07B680C4A02FB03F382
:1043BC007B617B693B6102E0054B3B6100BF3B6964
:1043CC0018461C37BD4680BC704700BF0010024029
:1043DC0000127A00A4810008B481000800093D0095
:1043EC0080B400AF024B1B681846BD4680BC7047BA
:1043FC00A000002080B500AFFFF7F2FF0246054B8E
:10440C005B681B0A03F007030349CB5C22FA03F336
:10441C00184680BD00100240C881000880B500AF6E
:10442C00FFF7DEFF0246054B5B68DB0A03F0070370
:10443C000349CB5C22FA03F3184680BD00100240FE
:10444C00C881000880B485B000AF78600A4B1B6847
:10445C000A4AA2FB03235B0A7A6802FB03F3FB60A4
:10446C0000BFFB685A1EFA60002BF9D100BF00BFD9
:10447C001437BD4680BC7047A0000020D34D62109D
:10448C0080B48BB000AF7860396000237B6200236E
:10449C003B6269E101227B6A02FA03F3FB613B6830
:1044AC001B68FA691340BB61BA69FB699A4240F018
:1044BC0058813B685B689A4A93425ED0984A934213
:1044CC0075D8984A934258D0964A93426FD8964AD8
:1044DC00934252D0944A934269D8944A93424CD016
:1044EC00924A934263D8924A934246D0904A93425E
:1044FC005DD8122B2AD8122B59D801A252F823F0CE
:10450C00874500086145000873450008B54500085B
:10451C00BB450008BB450008BB450008BB4500086F
:10452C00BB450008BB450008BB450008BB4500085F
:10453C00BB450008BB450008BB450008BB4500084F
:10454C00BB450008694500087D450008794A93423F
:10455C0013D02CE03B68DB683B6229E03B68DB68EE
:10456C0004333B6224E03B68DB6808333B621FE0AA
:10457C003B68DB680C333B621AE03B689B68002BA2
:10458C0002D104233B6213E03B689B68012B05D1ED
:10459C0008233B627B68FA691A6109E008233B62D5
:1045AC007B68FA695A6103E000233B6200E000BFBC
:1045BC00BB69FF2B01D87B6801E07B6804337B610E
:1045CC00BB69FF2B02D87B6A9B0002E07B6A083B2D
:1045DC009B003B617B691A680F213B6901FA03F36D
:1045EC00DB431A40396A3B6901FA03F31A437B69CE
:1045FC001A603B685B6803F08053002B00F0B180BD
:10460C004D4B9B694C4A43F0010393614A4B9B69A8
:10461C0003F00103BB60BB68484A7B6A9B0802330A
:10462C0052F82330FB607B6A03F003039B000F22DC
:10463C0002FA03F3DB43FA681340FB607B68404AE1
:10464C00934213D07B683F4A93420DD07B683E4A1D
:10465C00934207D07B683D4A934201D1032306E085
:10466C00042304E0022302E0012300E000237A6A21
:10467C0002F0030292009340FA681343FB602F4947
:10468C007B6A9B080233FA6841F823203B685B681D
:10469C0003F48013002B06D02D4B9A682C49BB6970
:1046AC0013438B6006E02A4B9A68BB69DB432849AD
:1046BC0013408B603B685B6803F40013002B06D03F
:1046CC00234BDA682249BB691343CB6006E0204BCD
:1046DC00DA68BB69DB431E491340CB603B685B68FF
:1046EC0003F40033002B06D0194B5A681849BB69E8
:1046FC0013434B6006E0164B5A68BB69DB43144905
:10470C0013404B603B685B6803F48033002B21D073
:10471C000F4B1A680E49BB6913430B6021E000BFB5
:10472C000000321000003110000022100000211097
:10473C000000121000001110001002400000014097
:10474C0000080140000C0140001001400014014021
:10475C00000401400B4B1A68BB69DB430949134049
:10476C000B607B6A01337B623B681A687B6A22FAB6
:10477C0003F3002B7FF48EAE00BF00BF2C37BD4679
:10478C0080BC70470004014080B483B000AF7860F7
:10479C000B467B8013467B707B78002B03D07A888A
:1047AC007B681A6103E07B881A047B681A6100BF7E
:1047BC000C37BD4680BC704780B582B000AF034655
:1047CC00FB80084B5A69FB881340002B06D0054A26
:1047DC00FB885361FB881846FDF7AEFC00BF083719
:1047EC00BD4680BD0004014080B485B000AF786048
:1047FC000023FB607B68002B01D1012343E07B6825
:10480C001B681A46224B1344224AA2FB03231B09A2
:10481C009A007B681A647B681F4ADA637B68022201
:10482C0083F821207B681B681B68FB60FB6823F402
:10483C007F5323F03003FB607B685A687B689B686E
:10484C001A437B68DB681A437B681B691A437B68D5
:10485C005B691A437B689B691A437B68DB6913436A
:10486C00FA681343FB607B681B68FA681A607B6804
:10487C0000229A637B68012283F821207B68002246
:10488C0083F82020002318461437BD4680BC70479F
:10489C00F8FFFDBFCDCCCCCC0000024080B586B07B
:1048AC0000AFF860B9607A603B600023FB75FB6871
:1048BC0093F82030012B01D102234BE0FB6801223D
:1048CC0083F82020FB6893F82130DBB2012B3AD11E
:1048DC00FB68022283F82120FB6800229A63FB68A4
:1048EC001B681A68FB681B6822F001021A603B689F
:1048FC007A68B968F86800F0EBF9FB68DB6A002BA2
:10490C0008D0FB681B681A68FB681B6842F00E0233
:10491C001A600FE0FB681B681A68FB681B6822F0C2
:10492C0004021A60FB681B681A68FB681B6842F07B
:10493C000A021A60FB681B681A68FB681B6842F065
:10494C0001021A6005E0FB68002283F82020022394
:10495C00FB75FB7D18461837BD4680BD80B485B00D
:10496C0000AF78600023FB737B6893F82130DBB2D7
:10497C00022B08D07B6804229A637B68002283F8A0
:10498C002020012320E07B681B681A687B681B6869
:10499C0022F00E021A607B681B681A687B681B6821
:1049AC0022F001021A607B681A6C7B68DB6B0121B8
:1049BC0001FA02F25A607B68012283F821207B689D
:1049CC00002283F82020FB7B18461437BD4680BCA0
:1049DC007047000080B584B000AF78600023FB7393
:1049EC007B6893F82130DBB2022B05D07B68042264
:1049FC009A630123FB7351E07B681B681A687B6820
:104A0C001B6822F00E021A607B681B681A687B68B0
:104A1C001B6822F001021A607B681B68224A9342D1
:104A2C0029D07B681B68214A934222D07B681B6883
:104A3C001F4A93421AD07B681B681E4A934212D0BD
:104A4C007B681B681C4A93420AD07B681B681B4A14
:104A5C00934202D14FF480130EE04FF080730BE0C1
:104A6C004FF4803308E04FF4805305E04FF480732B
:104A7C0002E0102300E00123114A53607B680122FD
:104A8C0083F821207B68002283F820207B685B6BF5
:104A9C00002B03D07B685B6B78689847FB7B1846D0
:104AAC001037BD4680BD00BF080002401C0002400C
:104ABC003000024044000240580002406C000240AA
:104ACC000000024080B584B000AF78607B68DB6B7F
:104ADC001B68FB607B681B681B68BB607B681B6C7E
:104AEC0004229A40FB681340002B4FD0BB6803F0A4
:104AFC000403002B4AD07B681B681B6803F020035F
:104B0C00002B07D17B681B681A687B681B6822F036
:104B1C0004021A607B681B68664A934229D07B6842
:104B2C001B68654A934222D07B681B68634A934298
:104B3C001AD07B681B68624A934212D07B681B6850
:104B4C00604A93420AD07B681B685F4A934202D149
:104B5C004FF480030EE04FF080630BE04FF48023A2
:104B6C0008E04FF4804305E04FF4806302E04023FB
:104B7C0000E00423554A53607B68DB6A002B00F08D
:104B8C0094807B68DB6A786898478EE07B681B6C46
:104B9C0002229A40FB681340002B56D0BB6803F0EE
:104BAC000203002B51D07B681B681B6803F02003A9
:104BBC00002B0BD17B681B681A687B681B6822F082
:104BCC000A021A607B68012283F821207B681B682B
:104BDC00384A934229D07B681B68374A934222D0CB
:104BEC007B681B68354A93421AD07B681B68344A31
:104BFC00934212D07B681B68324A93420AD07B687E
:104C0C001B68314A934202D14FF400130EE04FF06F
:104C1C0000730BE04FF4003308E04FF4005305E051
:104C2C004FF4007302E0202300E00223274A536074
:104C3C007B68002283F820207B689B6A002B34D091
:104C4C007B689B6A786898472FE07B681B6C08220E
:104C5C009A40FB681340002B28D0BB6803F0080374
:104C6C00002B23D07B681B681A687B681B6822F0BA
:104C7C000E021A607B681A6C7B68DB6B012101FAEF
:104C8C0002F25A607B6801229A637B68012283F8E6
:104C9C0021207B68002283F820207B681B6B002B73
:104CAC0004D07B681B6B7868984700BF00BF103737
:104CBC00BD4680BD080002401C000240300002408E
:104CCC0044000240580002406C00024000000240C8
:104CDC0080B485B000AFF860B9607A603B60FB6867
:104CEC001A6CFB68DB6B012101FA02F25A60FB685B
:104CFC001B683A685A60FB685B68102B08D1FB682C
:104D0C001B687A689A60FB681B68BA68DA6007E00F
:104D1C00FB681B68BA689A60FB681B687A68DA6083
:104D2C0000BF1437BD4680BC7047000080B485B00E
:104D3C0000AF78607B6803F00703FB600C4BDB680B
:104D4C00BB60BA684FF6FF031340BB60FB681A02E6
:104D5C00BB68134343F0BF6343F40033BB60044AA6
:104D6C00BB68D36000BF1437BD4680BC704700BF22
:104D7C0000ED00E080B400AF044BDB681B0A03F0CD
:104D8C0007031846BD4680BC704700BF00ED00E02D
:104D9C0080B483B000AF0346FB7197F90730002B4A
:104DAC000BDBFB7903F01F02064997F907305B090F
:104DBC00012000FA02F241F8232000BF0C37BD4657
:104DCC0080BC704700E100E080B483B000AF0346C4
:104DDC003960FB7197F90730002B0ADB3B68DAB2BC
:104DEC000C4997F907301201D2B20B4483F8002317
:104DFC000AE03B68DAB20849FB7903F00F03043B85
:104E0C001201D2B20B441A7600BF0C37BD4680BCDF
:104E1C00704700BF00E100E000ED00E080B489B015
:104E2C0000AFF860B9607A60FB6803F00703FB61C0
:104E3C00FB69C3F10703042B28BF0423BB61FB6987
:104E4C000433062B02D9FB69033B00E000237B6192
:104E5C004FF0FF32BB6902FA03F3DA43BB681A4026
:104E6C007B699A404FF0FF317B6901FA03F3D94318
:104E7C007B680B40134318462437BD4680BC7047F3
:104E8C0080B582B000AF78607B68013BB3F1807F66
:104E9C0001D301230FE00A4A7B68013B53600F21C9
:104EAC004FF0FF30FFF790FF054B00229A60044B48
:104EBC0007221A60002318460837BD4680BD00BF84
:104ECC0010E000E080B582B000AF78607868FFF742
:104EDC002DFF00BF0837BD4680BD80B586B000AF42
:104EEC000346B9607A60FB7300237B61FFF742FFD6
:104EFC0078617A68B9687869FFF790FF024697F98C
:104F0C000F3011461846FFF75FFF00BF1837BD463C
:104F1C0080BD80B582B000AF0346FB7197F90730B6
:104F2C001846FFF735FF00BF0837BD4680BD80B57A
:104F3C0082B000AF78607868FFF7A2FF034618468E
:104F4C000837BD4680BD80B582B000AF78607B6805
:104F5C00002B01D1012342E07B6893F84130DBB296
:104F6C00002B06D17B68002283F840207868FDF77F
:104F7C00B7FC7B68242283F841207B681B68DA68C5
:104F8C007B681B6822F40052DA60786801F01CF828
:104F9C007B681B681A697B681B6822F490421A6153
:104FAC007B681B685A697B681B6822F02A025A616D
:104FBC007B681B68DA687B681B6842F40052DA6015
:104FCC007B6800225A647B68202283F841207B682E
:104FDC00202283F842207B6800225A630023184663
:104FEC000837BD4680BD80B58AB002AFF860B960A5
:104FFC003B601346FB8000237B61FB6893F84130D8
:10500C00DBB2202B75D1BB68002B02D0FB88002BA8
:10501C0001D101236EE0FB6800225A64FB68212257
:10502C0083F84120FEF712FE7861FB68FA889A84B7
:10503C00FB68FA88DA84FB689B68B3F5805F08D15B
:10504C00FB681B69002B04D10023FB61BB68BB61AF
:10505C0003E0BB68FB610023BB612EE03B6800935F
:10506C007B6900228021F86800F0F8FC0346002BD5
:10507C0005D0FB68202283F8412003233AE0FB692A
:10508C00002B0BD1BB691B881A46FB681B68C2F34B
:10509C0008025A60BB690233BB6107E0FB691A78EE
:1050AC00FB681B685A60FB690133FB61FB68DB8C96
:1050BC009BB2013B9AB2FB68DA84FB68DB8C9BB237
:1050CC00002BCBD13B6800937B6900224021F86810
:1050DC0000F0C4FC0346002B05D0FB68202283F8AB
:1050EC004120032306E0FB68202283F841200023A3
:1050FC0000E0022318462037BD4680BD80B58CB039
:10510C0000AFF860B9601346FB80FB6893F8413040
:10511C00DBB2202B56D1BB68002B02D0FB88002BB6
:10512C0001D101234FE0BA68FB681A62FB68FA8868
:10513C009A84FB68FA88DA84FB6800225A64FB685C
:10514C00212283F84120FB689B6B214A9A62FB6801
:10515C009B6B204ADA62FB689B6B1F4A1A63FB68E5
:10516C009B6B00225A6307F10803FB62FB68986B88
:10517C00FB6A1968FB681B6804331A46FB88FFF747
:10518C008DFBFB681B686FF040021A60FB681B68A4
:10519C001433BB61BB6953E8003F7B617B6943F00F
:1051AC008003BB62FB681B681433BA6A7A623B6289
:1051BC00396A7A6A41E80023FB61FB69002BE5D16F
:1051CC00002300E0022318463037BD4680BD00BFE7
:1051DC00B757000851580008D559000880B584B05D
:1051EC0000AFF860B9601346FB80FB6893F842305F
:1051FC00DBB2202B12D1BB68002B02D0FB88002B1A
:10520C0001D101230BE0FB6800221A63FB881A46CC
:10521C00B968F86800F07CFC034600E002231846ED
:10522C001037BD4680BD000080B5BAB000AF7860C5
:10523C007B681B681B68C7F8E4307B681B68DB68FD
:10524C00C7F8E0307B681B685B69C7F8DC3000236B
:10525C00C7F8D8300023C7F8D430D7F8E43003F0BF
:10526C000F03C7F8D830D7F8D830002B0FD1D7F8A8
:10527C00E43003F02003002B09D0D7F8E03003F022
:10528C002003002B03D0786800F0E0FD5BE2D7F838
:10529C00D830002B00F0DE80D7F8DC3003F00103AF
:1052AC00002B06D1D7F8E03003F49073002B00F0FC
:1052BC00D180D7F8E43003F00103002B0BD0D7F8E2
:1052CC00E03003F48073002B05D07B685B6C43F0FB
:1052DC0001027B685A64D7F8E43003F00403002B16
:1052EC000BD0D7F8DC3003F00103002B05D07B6822
:1052FC005B6C43F002027B685A64D7F8E43003F02D
:10530C000203002B0BD0D7F8DC3003F00103002B89
:10531C0005D07B685B6C43F004027B685A64D7F859
:10532C00E43003F00803002B11D0D7F8E03003F081
:10533C002003002B05D1D7F8DC3003F00103002B40
:10534C0005D07B685B6C43F008027B685A647B6811
:10535C005B6C002B00F0F281D7F8E43003F02003F3
:10536C00002B08D0D7F8E03003F02003002B02D03C
:10537C00786800F06BFD7B681B685B6903F0400389
:10538C00002B14BF01230023DBB2C7F8D4307B6899
:10539C005B6C03F00803002B03D1D7F8D430002B3F
:1053AC004FD0786800F075FC7B681B685B6903F074
:1053BC004003002B41D07B681B681433C7F89C302A
:1053CC00D7F89C3053E8003FC7F89830D7F898309E
:1053DC0023F04003C7F8D0307B681B681433D7F830
:1053EC00D020C7F8A820C7F8A430D7F8A410D7F855
:1053FC00A82041E80023C7F8A030D7F8A030002B34
:10540C00D9D17B68DB6B002B13D07B68DB6B7E4ABE
:10541C005A637B68DB6B1846FFF7DCFA0346002BFC
:10542C0016D07B68DB6B5B6B7A68D26B1046984747
:10543C000EE0786800F0A5F90AE0786800F0A1F9B0
:10544C0006E0786800F09DF97B6800225A6475E1EB
:10545C0000BF73E17B681B6B012B40F04F81D7F8C9
:10546C00E43003F01003002B00F04881D7F8E03053
:10547C0003F01003002B00F041810023BB607B681C
:10548C001B681B68BB607B681B685B68BB60BB6888
:10549C007B681B685B6903F04003002B00F0B6804F
:1054AC007B68DB6B1B685B68A7F8BE30B7F8BE3057
:1054BC00002B00F045817B689B8DB7F8BE209A428B
:1054CC0080F03E817B68B7F8BE20DA857B68DB6BA9
:1054DC009B69202B00F088807B681B680C33C7F815
:1054EC008830D7F8883053E8003FC7F88430D7F8B5
:1054FC00843023F48073C7F8B8307B681B680C3396
:10550C00D7F8B820C7F89420C7F89030D7F8901087
:10551C00D7F8942041E80023C7F88C30D7F88C30AA
:10552C00002BD9D17B681B6814337B677B6F53E8E6
:10553C00003F3B673B6F23F00103C7F8B4307B6837
:10554C001B681433D7F8B420C7F88020FB67F96FB9
:10555C00D7F8802041E80023BB67BB6F002BE1D15B
:10556C007B681B6814333B663B6E53E8003FFB655E
:10557C00FB6D23F04003C7F8B0307B681B68143315
:10558C00D7F8B020FA66BB66B96EFA6E41E8002314
:10559C007B667B6E002BE3D17B68202283F8422054
:1055AC007B6800221A637B681B680C33FB64FB6C02
:1055BC0053E8003FBB64BB6C23F01003C7F8AC305E
:1055CC007B681B680C33D7F8AC20BA657B65796DAA
:1055DC00BA6D41E800233B653B6D002BE3D17B6842
:1055EC00DB6B1846FFF7BAF97B6802225A637B68BB
:1055FC009A8D7B68DB8D9BB2D31A9BB21946786867
:10560C0000F0C8F89CE000BF635D00087B689A8DD1
:10561C007B68DB8D9BB2D31AA7F8CE307B68DB8D11
:10562C009BB2002B00F08E80B7F8CE30002B00F030
:10563C0089807B681B680C33BB63BB6B53E8003FF2
:10564C007B637B6B23F49073C7F8C8307B681B6853
:10565C000C33D7F8C8207A643B64396C7A6C41E817
:10566C000023FB63FB6B002BE3D17B681B681433BB
:10567C007B627B6A53E8003F3B623B6A23F0010389
:10568C00C7F8C4307B681B681433D7F8C4203A635E
:10569C00FB62F96A3A6B41E80023BB62BB6A002BE0
:1056AC00E3D17B68202283F842207B6800221A63B6
:1056BC007B681B680C333B613B6953E8003FFB6024
:1056CC00FB6823F01003C7F8C0307B681B680C33F1
:1056DC00D7F8C020FA61BB61B969FA6941E80023C7
:1056EC007B617B69002BE3D17B6802225A63B7F89C
:1056FC00CE301946786800F04DF823E0D7F8E43046
:10570C0003F08003002B09D0D7F8E03003F08003BE
:10571C00002B03D0786800F032FB14E0D7F8E430AB
:10572C0003F04003002B0ED0D7F8E03003F0400319
:10573C00002B08D0786800F071FB04E000BF02E099
:10574C0000BF00E000BFE837BD4680BD80B483B029
:10575C0000AF786000BF0C37BD4680BC704780B48A
:10576C0083B000AF786000BF0C37BD4680BC70477B
:10577C0080B483B000AF786000BF0C37BD4680BCEE
:10578C00704780B483B000AF786000BF0C37BD4663
:10579C0080BC704780B483B000AF78600B467B80D0
:1057AC0000BF0C37BD4680BC704780B590B000AFD1
:1057BC0078607B685B6AFB637B681B681B6803F023
:1057CC002003002B37D1FB6B0022DA84FB6B1B68A8
:1057DC0014337B627B6A53E8003F3B623B6A23F0E5
:1057EC008003BB63FB6B1B681433BA6B3A63FB62BD
:1057FC00F96A3A6B41E80023BB62BB6A002BE5D126
:10580C00FB6B1B680C333B613B6953E8003FFB604F
:10581C00FB6843F040037B63FB6B1B680C337A6BB8
:10582C00FA61BB61B969FA6941E800237B617B6964
:10583C00002BE5D102E0F86BFCF758FC00BF4037B9
:10584C00BD4680BD80B584B000AF78607B685B6A74
:10585C00FB60F868FFF77AFF00BF1037BD4680BDCC
:10586C0080B59CB000AF78607B685B6AFB667B6838
:10587C001B681B6803F02003002B72D1FB6E002207
:10588C00DA85FB6E1B680C33FB64FB6C53E8003F42
:10589C00BB64BB6C23F48073BB66FB6E1B680C3360
:1058AC00BA6EBA657B65796DBA6D41E800233B65CC
:1058BC003B6D002BE5D1FB6E1B681433BB63BB6BDC
:1058CC0053E8003F7B637B6B23F001037B66FB6E2D
:1058DC001B6814337A6E7A643B64396C7A6C41E8D9
:1058EC000023FB63FB6B002BE5D1FB6E1B681433B1
:1058FC007B627B6A53E8003F3B623B6A23F04003C8
:10590C003B66FB6E1B6814333A6E3A63FB62F96AB2
:10591C003A6B41E80023BB62BB6A002BE5D1FB6EFE
:10592C00202283F84220FB6E1B6B012B19D1FB6EDE
:10593C001B680C333B613B6953E8003FFB60FB6821
:10594C0023F01003FB65FB6E1B680C33FA6DFA61D8
:10595C00BB61B969FA6941E800237B617B69002B63
:10596C00E5D1FB6E00225A63FB6E1B6B012B06D13B
:10597C00FB6E9B8D1946F86EFFF70CFF02E0F86E7C
:10598C00FFF7EDFE00BF7037BD4680BD80B584B01B
:10599C0000AF78607B685B6AFB60FB6801225A632E
:1059AC00FB681B6B012B08D1FB689B8D5B089BB2C2
:1059BC001946F868FFF7EEFE02E0F868FFF7D8FE2C
:1059CC0000BF1037BD4680BD80B584B000AF786095
:1059DC000023FB607B685B6ABB60BB681B685B6910
:1059EC0003F08003002B14BF01230023DBB2FB6008
:1059FC00BB6893F84130DBB2212B08D1FB68002B3C
:105A0C0005D0BB680022DA84B86800F01BF9BB68CB
:105A1C001B685B6903F04003002B14BF01230023B8
:105A2C00DBB2FB60BB6893F84230DBB2222B08D1AF
:105A3C00FB68002B05D0BB680022DA85B86800F043
:105A4C0028F9BB685B6C43F01002BB685A64B868F9
:105A5C00FFF797FE00BF1037BD4680BD80B586B0FE
:105A6C0000AFF860B9603B601346FB713BE03B6AEA
:105A7C00B3F1FF3F37D0FEF7E9F802463B68D31A83
:105A8C003A6A9A4202D33B6A002B01D103233AE0D3
:105A9C00FB681B68DB6803F00403002B23D0BB6896
:105AAC00802B20D0BB68402B1DD0FB681B681B686B
:105ABC0003F00803082B16D100237B61FB681B68DD
:105ACC001B687B61FB681B685B687B617B69F868A2
